{
	"MultiPoolMixer.sol": {
		"MultiPoolMixer": {
			"abi": [
				{
					"inputs": [],
					"stateMutability": "nonpayable",
					"type": "constructor"
				},
				{
					"anonymous": false,
					"inputs": [
						{
							"indexed": true,
							"internalType": "address",
							"name": "from",
							"type": "address"
						},
						{
							"indexed": false,
							"internalType": "uint256",
							"name": "amount",
							"type": "uint256"
						},
						{
							"indexed": false,
							"internalType": "address",
							"name": "pool",
							"type": "address"
						}
					],
					"name": "Deposit",
					"type": "event"
				},
				{
					"anonymous": false,
					"inputs": [
						{
							"indexed": true,
							"internalType": "address",
							"name": "poolAddress",
							"type": "address"
						}
					],
					"name": "PoolCreated",
					"type": "event"
				},
				{
					"anonymous": false,
					"inputs": [
						{
							"indexed": true,
							"internalType": "address",
							"name": "to",
							"type": "address"
						},
						{
							"indexed": false,
							"internalType": "uint256",
							"name": "amount",
							"type": "uint256"
						},
						{
							"indexed": false,
							"internalType": "address",
							"name": "pool",
							"type": "address"
						}
					],
					"name": "Withdrawal",
					"type": "event"
				},
				{
					"anonymous": false,
					"inputs": [
						{
							"indexed": true,
							"internalType": "address",
							"name": "poolAddress",
							"type": "address"
						},
						{
							"indexed": false,
							"internalType": "uint256",
							"name": "poolBalance",
							"type": "uint256"
						},
						{
							"indexed": true,
							"internalType": "address",
							"name": "recipient",
							"type": "address"
						}
					],
					"name": "WithdrawalAttempt",
					"type": "event"
				},
				{
					"inputs": [],
					"name": "admin",
					"outputs": [
						{
							"internalType": "address",
							"name": "",
							"type": "address"
						}
					],
					"stateMutability": "view",
					"type": "function"
				},
				{
					"inputs": [
						{
							"internalType": "uint256",
							"name": "numberOfPools",
							"type": "uint256"
						}
					],
					"name": "createPools",
					"outputs": [],
					"stateMutability": "nonpayable",
					"type": "function"
				},
				{
					"inputs": [],
					"name": "deposit",
					"outputs": [],
					"stateMutability": "payable",
					"type": "function"
				},
				{
					"inputs": [],
					"name": "getPools",
					"outputs": [
						{
							"internalType": "address[]",
							"name": "",
							"type": "address[]"
						}
					],
					"stateMutability": "view",
					"type": "function"
				},
				{
					"inputs": [],
					"name": "getTotalFundsInFirstTenPools",
					"outputs": [
						{
							"internalType": "uint256",
							"name": "",
							"type": "uint256"
						}
					],
					"stateMutability": "view",
					"type": "function"
				},
				{
					"inputs": [
						{
							"internalType": "uint256",
							"name": "",
							"type": "uint256"
						}
					],
					"name": "pools",
					"outputs": [
						{
							"internalType": "contract Pool",
							"name": "",
							"type": "address"
						}
					],
					"stateMutability": "view",
					"type": "function"
				},
				{
					"inputs": [
						{
							"internalType": "address payable",
							"name": "to",
							"type": "address"
						}
					],
					"name": "withdraw",
					"outputs": [],
					"stateMutability": "nonpayable",
					"type": "function"
				}
			],
			"devdoc": {
				"kind": "dev",
				"methods": {},
				"version": 1
			},
			"evm": {
				"assembly": "    /* \"MultiPoolMixer.sol\":84:3910  contract MultiPoolMixer {... */\n  mstore(0x40, 0x80)\n    /* \"MultiPoolMixer.sol\":546:634  constructor() {... */\n  callvalue\n  dup1\n  iszero\n  tag_1\n  jumpi\n  0x00\n  dup1\n  revert\ntag_1:\n  pop\n    /* \"MultiPoolMixer.sol\":579:589  msg.sender */\n  caller\n    /* \"MultiPoolMixer.sol\":571:576  admin */\n  0x01\n  0x00\n    /* \"MultiPoolMixer.sol\":571:589  admin = msg.sender */\n  0x0100\n  exp\n  dup2\n  sload\n  dup2\n  0xffffffffffffffffffffffffffffffffffffffff\n  mul\n  not\n  and\n  swap1\n  dup4\n  0xffffffffffffffffffffffffffffffffffffffff\n  and\n  mul\n  or\n  swap1\n  sstore\n  pop\n    /* \"MultiPoolMixer.sol\":84:3910  contract MultiPoolMixer {... */\n  dataSize(sub_0)\n  dup1\n  dataOffset(sub_0)\n  0x00\n  codecopy\n  0x00\n  return\nstop\n\nsub_0: assembly {\n        /* \"MultiPoolMixer.sol\":84:3910  contract MultiPoolMixer {... */\n      mstore(0x40, 0x80)\n      jumpi(tag_1, lt(calldatasize, 0x04))\n      shr(0xe0, calldataload(0x00))\n      dup1\n      0xac4afa38\n      gt\n      tag_9\n      jumpi\n      dup1\n      0xac4afa38\n      eq\n      tag_5\n      jumpi\n      dup1\n      0xd0e30db0\n      eq\n      tag_6\n      jumpi\n      dup1\n      0xe4876078\n      eq\n      tag_7\n      jumpi\n      dup1\n      0xf851a440\n      eq\n      tag_8\n      jumpi\n      jump(tag_1)\n    tag_9:\n      dup1\n      0x51cff8d9\n      eq\n      tag_2\n      jumpi\n      dup1\n      0x673a2a1f\n      eq\n      tag_3\n      jumpi\n      dup1\n      0x7c8244d7\n      eq\n      tag_4\n      jumpi\n    tag_1:\n      0x00\n      dup1\n      revert\n        /* \"MultiPoolMixer.sol\":1829:2983  function withdraw(address payable to) external {... */\n    tag_2:\n      callvalue\n      dup1\n      iszero\n      tag_10\n      jumpi\n      0x00\n      dup1\n      revert\n    tag_10:\n      pop\n      tag_11\n      0x04\n      dup1\n      calldatasize\n      sub\n      dup2\n      add\n      swap1\n      tag_12\n      swap2\n      swap1\n      tag_13\n      jump\t// in\n    tag_12:\n      tag_14\n      jump\t// in\n    tag_11:\n      stop\n        /* \"MultiPoolMixer.sol\":3465:3752  function getPools() external view returns (address[] memory) {... */\n    tag_3:\n      callvalue\n      dup1\n      iszero\n      tag_15\n      jumpi\n      0x00\n      dup1\n      revert\n    tag_15:\n      pop\n      tag_16\n      tag_17\n      jump\t// in\n    tag_16:\n      mload(0x40)\n      tag_18\n      swap2\n      swap1\n      tag_19\n      jump\t// in\n    tag_18:\n      mload(0x40)\n      dup1\n      swap2\n      sub\n      swap1\n      return\n        /* \"MultiPoolMixer.sol\":3036:3415  function getTotalFundsInFirstTenPools() external view returns (uint256) {... */\n    tag_4:\n      callvalue\n      dup1\n      iszero\n      tag_20\n      jumpi\n      0x00\n      dup1\n      revert\n    tag_20:\n      pop\n      tag_21\n      tag_22\n      jump\t// in\n    tag_21:\n      mload(0x40)\n      tag_23\n      swap2\n      swap1\n      tag_24\n      jump\t// in\n    tag_23:\n      mload(0x40)\n      dup1\n      swap2\n      sub\n      swap1\n      return\n        /* \"MultiPoolMixer.sol\":115:134  Pool[] public pools */\n    tag_5:\n      callvalue\n      dup1\n      iszero\n      tag_25\n      jumpi\n      0x00\n      dup1\n      revert\n    tag_25:\n      pop\n      tag_26\n      0x04\n      dup1\n      calldatasize\n      sub\n      dup2\n      add\n      swap1\n      tag_27\n      swap2\n      swap1\n      tag_28\n      jump\t// in\n    tag_27:\n      tag_29\n      jump\t// in\n    tag_26:\n      mload(0x40)\n      tag_30\n      swap2\n      swap1\n      tag_31\n      jump\t// in\n    tag_30:\n      mload(0x40)\n      dup1\n      swap2\n      sub\n      swap1\n      return\n        /* \"MultiPoolMixer.sol\":1065:1821  function deposit() external payable {... */\n    tag_6:\n      tag_32\n      tag_33\n      jump\t// in\n    tag_32:\n      stop\n        /* \"MultiPoolMixer.sol\":681:1036  function createPools(uint256 numberOfPools) external onlyAdmin {... */\n    tag_7:\n      callvalue\n      dup1\n      iszero\n      tag_34\n      jumpi\n      0x00\n      dup1\n      revert\n    tag_34:\n      pop\n      tag_35\n      0x04\n      dup1\n      calldatasize\n      sub\n      dup2\n      add\n      swap1\n      tag_36\n      swap2\n      swap1\n      tag_28\n      jump\t// in\n    tag_36:\n      tag_37\n      jump\t// in\n    tag_35:\n      stop\n        /* \"MultiPoolMixer.sol\":175:195  address public admin */\n    tag_8:\n      callvalue\n      dup1\n      iszero\n      tag_38\n      jumpi\n      0x00\n      dup1\n      revert\n    tag_38:\n      pop\n      tag_39\n      tag_40\n      jump\t// in\n    tag_39:\n      mload(0x40)\n      tag_41\n      swap2\n      swap1\n      tag_42\n      jump\t// in\n    tag_41:\n      mload(0x40)\n      dup1\n      swap2\n      sub\n      swap1\n      return\n        /* \"MultiPoolMixer.sol\":1829:2983  function withdraw(address payable to) external {... */\n    tag_14:\n        /* \"MultiPoolMixer.sol\":1910:1911  0 */\n      0x00\n        /* \"MultiPoolMixer.sol\":1895:1900  pools */\n      dup1\n        /* \"MultiPoolMixer.sol\":1895:1907  pools.length */\n      dup1\n      sload\n      swap1\n      pop\n        /* \"MultiPoolMixer.sol\":1895:1911  pools.length > 0 */\n      gt\n        /* \"MultiPoolMixer.sol\":1887:1934  require(pools.length > 0, \"No pools available\") */\n      tag_44\n      jumpi\n      mload(0x40)\n      0x08c379a000000000000000000000000000000000000000000000000000000000\n      dup2\n      mstore\n      0x04\n      add\n      tag_45\n      swap1\n      tag_46\n      jump\t// in\n    tag_45:\n      mload(0x40)\n      dup1\n      swap2\n      sub\n      swap1\n      revert\n    tag_44:\n        /* \"MultiPoolMixer.sol\":1967:1968  0 */\n      0x00\n        /* \"MultiPoolMixer.sol\":1953:1969  to != address(0) */\n      0xffffffffffffffffffffffffffffffffffffffff\n      and\n        /* \"MultiPoolMixer.sol\":1953:1955  to */\n      dup2\n        /* \"MultiPoolMixer.sol\":1953:1969  to != address(0) */\n      0xffffffffffffffffffffffffffffffffffffffff\n      and\n      sub\n        /* \"MultiPoolMixer.sol\":1945:1999  require(to != address(0), \"Invalid recipient address\") */\n      tag_47\n      jumpi\n      mload(0x40)\n      0x08c379a000000000000000000000000000000000000000000000000000000000\n      dup2\n      mstore\n      0x04\n      add\n      tag_48\n      swap1\n      tag_49\n      jump\t// in\n    tag_48:\n      mload(0x40)\n      dup1\n      swap2\n      sub\n      swap1\n      revert\n    tag_47:\n        /* \"MultiPoolMixer.sol\":2012:2039  uint256 fixedWithdrawAmount */\n      0x00\n        /* \"MultiPoolMixer.sol\":2042:2053  10 * 10**18 */\n      0x8ac7230489e80000\n        /* \"MultiPoolMixer.sol\":2012:2053  uint256 fixedWithdrawAmount = 10 * 10**18 */\n      swap1\n      pop\n        /* \"MultiPoolMixer.sol\":2096:2113  uint256 poolCount */\n      0x00\n        /* \"MultiPoolMixer.sol\":2116:2121  pools */\n      dup1\n        /* \"MultiPoolMixer.sol\":2116:2128  pools.length */\n      dup1\n      sload\n      swap1\n      pop\n        /* \"MultiPoolMixer.sol\":2096:2128  uint256 poolCount = pools.length */\n      swap1\n      pop\n        /* \"MultiPoolMixer.sol\":2146:2155  uint256 i */\n      0x00\n        /* \"MultiPoolMixer.sol\":2141:2912  for (uint256 i = 0; i < poolCount; i++) {... */\n    tag_50:\n        /* \"MultiPoolMixer.sol\":2165:2174  poolCount */\n      dup2\n        /* \"MultiPoolMixer.sol\":2161:2162  i */\n      dup2\n        /* \"MultiPoolMixer.sol\":2161:2174  i < poolCount */\n      lt\n        /* \"MultiPoolMixer.sol\":2141:2912  for (uint256 i = 0; i < poolCount; i++) {... */\n      iszero\n      tag_51\n      jumpi\n        /* \"MultiPoolMixer.sol\":2196:2215  uint256 randomIndex */\n      0x00\n        /* \"MultiPoolMixer.sol\":2307:2316  poolCount */\n      dup3\n        /* \"MultiPoolMixer.sol\":2253:2268  block.timestamp */\n      timestamp\n        /* \"MultiPoolMixer.sol\":2270:2286  block.prevrandao */\n      prevrandao\n        /* \"MultiPoolMixer.sol\":2288:2298  msg.sender */\n      caller\n        /* \"MultiPoolMixer.sol\":2300:2301  i */\n      dup6\n        /* \"MultiPoolMixer.sol\":2236:2302  abi.encodePacked(block.timestamp, block.prevrandao, msg.sender, i) */\n      add(0x20, mload(0x40))\n      tag_53\n      swap5\n      swap4\n      swap3\n      swap2\n      swap1\n      tag_54\n      jump\t// in\n    tag_53:\n      mload(0x40)\n      0x20\n      dup2\n      dup4\n      sub\n      sub\n      dup2\n      mstore\n      swap1\n      0x40\n      mstore\n        /* \"MultiPoolMixer.sol\":2226:2303  keccak256(abi.encodePacked(block.timestamp, block.prevrandao, msg.sender, i)) */\n      dup1\n      mload\n      swap1\n      0x20\n      add\n      keccak256\n        /* \"MultiPoolMixer.sol\":2218:2304  uint256(keccak256(abi.encodePacked(block.timestamp, block.prevrandao, msg.sender, i))) */\n      0x00\n      shr\n        /* \"MultiPoolMixer.sol\":2218:2316  uint256(keccak256(abi.encodePacked(block.timestamp, block.prevrandao, msg.sender, i))) % poolCount */\n      tag_55\n      swap2\n      swap1\n      tag_56\n      jump\t// in\n    tag_55:\n        /* \"MultiPoolMixer.sol\":2196:2316  uint256 randomIndex = uint256(keccak256(abi.encodePacked(block.timestamp, block.prevrandao, msg.sender, i))) % poolCount */\n      swap1\n      pop\n        /* \"MultiPoolMixer.sol\":2392:2420  address payable selectedPool */\n      0x00\n        /* \"MultiPoolMixer.sol\":2439:2444  pools */\n      dup1\n        /* \"MultiPoolMixer.sol\":2445:2456  randomIndex */\n      dup3\n        /* \"MultiPoolMixer.sol\":2439:2457  pools[randomIndex] */\n      dup2\n      sload\n      dup2\n      lt\n      tag_57\n      jumpi\n      tag_58\n      tag_59\n      jump\t// in\n    tag_58:\n    tag_57:\n      swap1\n      0x00\n      mstore\n      keccak256(0x00, 0x20)\n      add\n      0x00\n      swap1\n      sload\n      swap1\n      0x0100\n      exp\n      swap1\n      div\n      0xffffffffffffffffffffffffffffffffffffffff\n      and\n        /* \"MultiPoolMixer.sol\":2392:2459  address payable selectedPool = payable(address(pools[randomIndex])) */\n      swap1\n      pop\n        /* \"MultiPoolMixer.sol\":2476:2495  uint256 poolBalance */\n      0x00\n        /* \"MultiPoolMixer.sol\":2498:2510  selectedPool */\n      dup2\n        /* \"MultiPoolMixer.sol\":2498:2518  selectedPool.balance */\n      0xffffffffffffffffffffffffffffffffffffffff\n      and\n      balance\n        /* \"MultiPoolMixer.sol\":2476:2518  uint256 poolBalance = selectedPool.balance */\n      swap1\n      pop\n        /* \"MultiPoolMixer.sol\":2585:2587  to */\n      dup7\n        /* \"MultiPoolMixer.sol\":2540:2588  WithdrawalAttempt(selectedPool, poolBalance, to) */\n      0xffffffffffffffffffffffffffffffffffffffff\n      and\n        /* \"MultiPoolMixer.sol\":2558:2570  selectedPool */\n      dup3\n        /* \"MultiPoolMixer.sol\":2540:2588  WithdrawalAttempt(selectedPool, poolBalance, to) */\n      0xffffffffffffffffffffffffffffffffffffffff\n      and\n      0xd764f2dab73cedbd6d5fb479c647f3746632f050b1eadf2df110132376c1ad5c\n        /* \"MultiPoolMixer.sol\":2572:2583  poolBalance */\n      dup4\n        /* \"MultiPoolMixer.sol\":2540:2588  WithdrawalAttempt(selectedPool, poolBalance, to) */\n      mload(0x40)\n      tag_61\n      swap2\n      swap1\n      tag_24\n      jump\t// in\n    tag_61:\n      mload(0x40)\n      dup1\n      swap2\n      sub\n      swap1\n      log3\n        /* \"MultiPoolMixer.sol\":2640:2659  fixedWithdrawAmount */\n      dup6\n        /* \"MultiPoolMixer.sol\":2625:2636  poolBalance */\n      dup2\n        /* \"MultiPoolMixer.sol\":2625:2659  poolBalance >= fixedWithdrawAmount */\n      lt\n        /* \"MultiPoolMixer.sol\":2621:2901  if (poolBalance >= fixedWithdrawAmount) {... */\n      tag_62\n      jumpi\n        /* \"MultiPoolMixer.sol\":2740:2752  selectedPool */\n      dup2\n        /* \"MultiPoolMixer.sol\":2735:2762  Pool(selectedPool).withdraw */\n      0xffffffffffffffffffffffffffffffffffffffff\n      and\n      0xf3fef3a3\n        /* \"MultiPoolMixer.sol\":2763:2765  to */\n      dup9\n        /* \"MultiPoolMixer.sol\":2767:2786  fixedWithdrawAmount */\n      dup9\n        /* \"MultiPoolMixer.sol\":2735:2787  Pool(selectedPool).withdraw(to, fixedWithdrawAmount) */\n      mload(0x40)\n      dup4\n      0xffffffff\n      and\n      0xe0\n      shl\n      dup2\n      mstore\n      0x04\n      add\n      tag_63\n      swap3\n      swap2\n      swap1\n      tag_64\n      jump\t// in\n    tag_63:\n      0x00\n      mload(0x40)\n      dup1\n      dup4\n      sub\n      dup2\n      0x00\n      dup8\n      dup1\n      extcodesize\n      iszero\n      dup1\n      iszero\n      tag_65\n      jumpi\n      0x00\n      dup1\n      revert\n    tag_65:\n      pop\n      gas\n      call\n      iszero\n      dup1\n      iszero\n      tag_67\n      jumpi\n      returndatasize\n      0x00\n      dup1\n      returndatacopy\n      revert(0x00, returndatasize)\n    tag_67:\n      pop\n      pop\n      pop\n      pop\n        /* \"MultiPoolMixer.sol\":2822:2824  to */\n      dup7\n        /* \"MultiPoolMixer.sol\":2811:2860  Withdrawal(to, fixedWithdrawAmount, selectedPool) */\n      0xffffffffffffffffffffffffffffffffffffffff\n      and\n      0x1a143d5b175701cb3246058ffac3d63945192075a926ff73a19930f09d587a\n        /* \"MultiPoolMixer.sol\":2826:2845  fixedWithdrawAmount */\n      dup8\n        /* \"MultiPoolMixer.sol\":2847:2859  selectedPool */\n      dup5\n        /* \"MultiPoolMixer.sol\":2811:2860  Withdrawal(to, fixedWithdrawAmount, selectedPool) */\n      mload(0x40)\n      tag_68\n      swap3\n      swap2\n      swap1\n      tag_69\n      jump\t// in\n    tag_68:\n      mload(0x40)\n      dup1\n      swap2\n      sub\n      swap1\n      log2\n        /* \"MultiPoolMixer.sol\":2879:2886  return; */\n      pop\n      pop\n      pop\n      pop\n      pop\n      pop\n      jump(tag_43)\n        /* \"MultiPoolMixer.sol\":2621:2901  if (poolBalance >= fixedWithdrawAmount) {... */\n    tag_62:\n        /* \"MultiPoolMixer.sol\":2181:2912  {... */\n      pop\n      pop\n      pop\n        /* \"MultiPoolMixer.sol\":2176:2179  i++ */\n      dup1\n      dup1\n      0x01\n      add\n      swap2\n      pop\n      pop\n        /* \"MultiPoolMixer.sol\":2141:2912  for (uint256 i = 0; i < poolCount; i++) {... */\n      jump(tag_50)\n    tag_51:\n      pop\n        /* \"MultiPoolMixer.sol\":2924:2975  revert(\"No pool with sufficient balance available\") */\n      mload(0x40)\n      0x08c379a000000000000000000000000000000000000000000000000000000000\n      dup2\n      mstore\n      0x04\n      add\n      tag_70\n      swap1\n      tag_71\n      jump\t// in\n    tag_70:\n      mload(0x40)\n      dup1\n      swap2\n      sub\n      swap1\n      revert\n        /* \"MultiPoolMixer.sol\":1829:2983  function withdraw(address payable to) external {... */\n    tag_43:\n      pop\n      jump\t// out\n        /* \"MultiPoolMixer.sol\":3465:3752  function getPools() external view returns (address[] memory) {... */\n    tag_17:\n        /* \"MultiPoolMixer.sol\":3508:3524  address[] memory */\n      0x60\n        /* \"MultiPoolMixer.sol\":3537:3567  address[] memory poolAddresses */\n      0x00\n        /* \"MultiPoolMixer.sol\":3584:3589  pools */\n      dup1\n        /* \"MultiPoolMixer.sol\":3584:3596  pools.length */\n      dup1\n      sload\n      swap1\n      pop\n        /* \"MultiPoolMixer.sol\":3570:3597  new address[](pools.length) */\n      0xffffffffffffffff\n      dup2\n      gt\n      iszero\n      tag_73\n      jumpi\n      tag_74\n      tag_75\n      jump\t// in\n    tag_74:\n    tag_73:\n      mload(0x40)\n      swap1\n      dup1\n      dup3\n      mstore\n      dup1\n      0x20\n      mul\n      0x20\n      add\n      dup3\n      add\n      0x40\n      mstore\n      dup1\n      iszero\n      tag_76\n      jumpi\n      dup2\n      0x20\n      add\n      0x20\n      dup3\n      mul\n      dup1\n      calldatasize\n      dup4\n      calldatacopy\n      dup1\n      dup3\n      add\n      swap2\n      pop\n      pop\n      swap1\n      pop\n    tag_76:\n      pop\n        /* \"MultiPoolMixer.sol\":3537:3597  address[] memory poolAddresses = new address[](pools.length) */\n      swap1\n      pop\n        /* \"MultiPoolMixer.sol\":3613:3622  uint256 i */\n      0x00\n        /* \"MultiPoolMixer.sol\":3608:3714  for (uint256 i = 0; i < pools.length; i++) {... */\n    tag_77:\n        /* \"MultiPoolMixer.sol\":3632:3637  pools */\n      0x00\n        /* \"MultiPoolMixer.sol\":3632:3644  pools.length */\n      dup1\n      sload\n      swap1\n      pop\n        /* \"MultiPoolMixer.sol\":3628:3629  i */\n      dup2\n        /* \"MultiPoolMixer.sol\":3628:3644  i < pools.length */\n      lt\n        /* \"MultiPoolMixer.sol\":3608:3714  for (uint256 i = 0; i < pools.length; i++) {... */\n      iszero\n      tag_78\n      jumpi\n        /* \"MultiPoolMixer.sol\":3693:3698  pools */\n      0x00\n        /* \"MultiPoolMixer.sol\":3699:3700  i */\n      dup2\n        /* \"MultiPoolMixer.sol\":3693:3701  pools[i] */\n      dup2\n      sload\n      dup2\n      lt\n      tag_80\n      jumpi\n      tag_81\n      tag_59\n      jump\t// in\n    tag_81:\n    tag_80:\n      swap1\n      0x00\n      mstore\n      keccak256(0x00, 0x20)\n      add\n      0x00\n      swap1\n      sload\n      swap1\n      0x0100\n      exp\n      swap1\n      div\n      0xffffffffffffffffffffffffffffffffffffffff\n      and\n        /* \"MultiPoolMixer.sol\":3666:3679  poolAddresses */\n      dup3\n        /* \"MultiPoolMixer.sol\":3680:3681  i */\n      dup3\n        /* \"MultiPoolMixer.sol\":3666:3682  poolAddresses[i] */\n      dup2\n      mload\n      dup2\n      lt\n      tag_83\n      jumpi\n      tag_84\n      tag_59\n      jump\t// in\n    tag_84:\n    tag_83:\n      0x20\n      mul\n      0x20\n      add\n      add\n        /* \"MultiPoolMixer.sol\":3666:3702  poolAddresses[i] = address(pools[i]) */\n      swap1\n      0xffffffffffffffffffffffffffffffffffffffff\n      and\n      swap1\n      dup2\n      0xffffffffffffffffffffffffffffffffffffffff\n      and\n      dup2\n      mstore\n      pop\n      pop\n        /* \"MultiPoolMixer.sol\":3646:3649  i++ */\n      dup1\n      dup1\n      0x01\n      add\n      swap2\n      pop\n      pop\n        /* \"MultiPoolMixer.sol\":3608:3714  for (uint256 i = 0; i < pools.length; i++) {... */\n      jump(tag_77)\n    tag_78:\n      pop\n        /* \"MultiPoolMixer.sol\":3731:3744  poolAddresses */\n      dup1\n        /* \"MultiPoolMixer.sol\":3724:3744  return poolAddresses */\n      swap2\n      pop\n      pop\n        /* \"MultiPoolMixer.sol\":3465:3752  function getPools() external view returns (address[] memory) {... */\n      swap1\n      jump\t// out\n        /* \"MultiPoolMixer.sol\":3036:3415  function getTotalFundsInFirstTenPools() external view returns (uint256) {... */\n    tag_22:\n        /* \"MultiPoolMixer.sol\":3099:3106  uint256 */\n      0x00\n        /* \"MultiPoolMixer.sol\":3119:3137  uint256 totalFunds */\n      dup1\n        /* \"MultiPoolMixer.sol\":3140:3141  0 */\n      0x00\n        /* \"MultiPoolMixer.sol\":3119:3141  uint256 totalFunds = 0 */\n      swap1\n      pop\n        /* \"MultiPoolMixer.sol\":3152:3165  uint256 limit */\n      0x00\n        /* \"MultiPoolMixer.sol\":3183:3185  10 */\n      0x0a\n        /* \"MultiPoolMixer.sol\":3168:3173  pools */\n      0x00\n        /* \"MultiPoolMixer.sol\":3168:3180  pools.length */\n      dup1\n      sload\n      swap1\n      pop\n        /* \"MultiPoolMixer.sol\":3168:3185  pools.length < 10 */\n      lt\n        /* \"MultiPoolMixer.sol\":3168:3205  pools.length < 10 ? pools.length : 10 */\n      tag_86\n      jumpi\n        /* \"MultiPoolMixer.sol\":3203:3205  10 */\n      0x0a\n        /* \"MultiPoolMixer.sol\":3168:3205  pools.length < 10 ? pools.length : 10 */\n      jump(tag_87)\n    tag_86:\n        /* \"MultiPoolMixer.sol\":3188:3193  pools */\n      0x00\n        /* \"MultiPoolMixer.sol\":3188:3200  pools.length */\n      dup1\n      sload\n      swap1\n      pop\n        /* \"MultiPoolMixer.sol\":3168:3205  pools.length < 10 ? pools.length : 10 */\n    tag_87:\n        /* \"MultiPoolMixer.sol\":3152:3205  uint256 limit = pools.length < 10 ? pools.length : 10 */\n      swap1\n      pop\n        /* \"MultiPoolMixer.sol\":3255:3264  uint256 i */\n      0x00\n        /* \"MultiPoolMixer.sol\":3250:3380  for (uint256 i = 0; i < limit; i++) {... */\n    tag_88:\n        /* \"MultiPoolMixer.sol\":3274:3279  limit */\n      dup2\n        /* \"MultiPoolMixer.sol\":3270:3271  i */\n      dup2\n        /* \"MultiPoolMixer.sol\":3270:3279  i < limit */\n      lt\n        /* \"MultiPoolMixer.sol\":3250:3380  for (uint256 i = 0; i < limit; i++) {... */\n      iszero\n      tag_89\n      jumpi\n        /* \"MultiPoolMixer.sol\":3323:3328  pools */\n      0x00\n        /* \"MultiPoolMixer.sol\":3329:3330  i */\n      dup2\n        /* \"MultiPoolMixer.sol\":3323:3331  pools[i] */\n      dup2\n      sload\n      dup2\n      lt\n      tag_91\n      jumpi\n      tag_92\n      tag_59\n      jump\t// in\n    tag_92:\n    tag_91:\n      swap1\n      0x00\n      mstore\n      keccak256(0x00, 0x20)\n      add\n      0x00\n      swap1\n      sload\n      swap1\n      0x0100\n      exp\n      swap1\n      div\n      0xffffffffffffffffffffffffffffffffffffffff\n      and\n        /* \"MultiPoolMixer.sol\":3315:3340  address(pools[i]).balance */\n      0xffffffffffffffffffffffffffffffffffffffff\n      and\n      balance\n        /* \"MultiPoolMixer.sol\":3301:3340  totalFunds += address(pools[i]).balance */\n      dup4\n      tag_94\n      swap2\n      swap1\n      tag_95\n      jump\t// in\n    tag_94:\n      swap3\n      pop\n        /* \"MultiPoolMixer.sol\":3281:3284  i++ */\n      dup1\n      dup1\n      0x01\n      add\n      swap2\n      pop\n      pop\n        /* \"MultiPoolMixer.sol\":3250:3380  for (uint256 i = 0; i < limit; i++) {... */\n      jump(tag_88)\n    tag_89:\n      pop\n        /* \"MultiPoolMixer.sol\":3397:3407  totalFunds */\n      dup2\n        /* \"MultiPoolMixer.sol\":3390:3407  return totalFunds */\n      swap3\n      pop\n      pop\n      pop\n        /* \"MultiPoolMixer.sol\":3036:3415  function getTotalFundsInFirstTenPools() external view returns (uint256) {... */\n      swap1\n      jump\t// out\n        /* \"MultiPoolMixer.sol\":115:134  Pool[] public pools */\n    tag_29:\n      0x00\n      dup2\n      dup2\n      sload\n      dup2\n      lt\n      tag_96\n      jumpi\n      0x00\n      dup1\n      revert\n    tag_96:\n      swap1\n      0x00\n      mstore\n      keccak256(0x00, 0x20)\n      add\n      0x00\n      swap2\n      pop\n      sload\n      swap1\n      0x0100\n      exp\n      swap1\n      div\n      0xffffffffffffffffffffffffffffffffffffffff\n      and\n      dup2\n      jump\t// out\n        /* \"MultiPoolMixer.sol\":1065:1821  function deposit() external payable {... */\n    tag_33:\n        /* \"MultiPoolMixer.sol\":1112:1135  uint256 requiredDeposit */\n      0x00\n        /* \"MultiPoolMixer.sol\":1138:1149  10 * 10**18 */\n      0x8ac7230489e80000\n        /* \"MultiPoolMixer.sol\":1112:1149  uint256 requiredDeposit = 10 * 10**18 */\n      swap1\n      pop\n        /* \"MultiPoolMixer.sol\":1240:1255  requiredDeposit */\n      dup1\n        /* \"MultiPoolMixer.sol\":1227:1236  msg.value */\n      callvalue\n        /* \"MultiPoolMixer.sol\":1227:1255  msg.value == requiredDeposit */\n      eq\n        /* \"MultiPoolMixer.sol\":1219:1297  require(msg.value == requiredDeposit, \"Deposit amount must be exactly 10 XRP\") */\n      tag_99\n      jumpi\n      mload(0x40)\n      0x08c379a000000000000000000000000000000000000000000000000000000000\n      dup2\n      mstore\n      0x04\n      add\n      tag_100\n      swap1\n      tag_101\n      jump\t// in\n    tag_100:\n      mload(0x40)\n      dup1\n      swap2\n      sub\n      swap1\n      revert\n    tag_99:\n        /* \"MultiPoolMixer.sol\":1331:1332  0 */\n      0x00\n        /* \"MultiPoolMixer.sol\":1316:1321  pools */\n      dup1\n        /* \"MultiPoolMixer.sol\":1316:1328  pools.length */\n      dup1\n      sload\n      swap1\n      pop\n        /* \"MultiPoolMixer.sol\":1316:1332  pools.length > 0 */\n      gt\n        /* \"MultiPoolMixer.sol\":1308:1355  require(pools.length > 0, \"No pools available\") */\n      tag_102\n      jumpi\n      mload(0x40)\n      0x08c379a000000000000000000000000000000000000000000000000000000000\n      dup2\n      mstore\n      0x04\n      add\n      tag_103\n      swap1\n      tag_46\n      jump\t// in\n    tag_103:\n      mload(0x40)\n      dup1\n      swap2\n      sub\n      swap1\n      revert\n    tag_102:\n        /* \"MultiPoolMixer.sol\":1408:1427  uint256 randomIndex */\n      0x00\n        /* \"MultiPoolMixer.sol\":1516:1521  pools */\n      dup1\n        /* \"MultiPoolMixer.sol\":1516:1528  pools.length */\n      dup1\n      sload\n      swap1\n      pop\n        /* \"MultiPoolMixer.sol\":1465:1480  block.timestamp */\n      timestamp\n        /* \"MultiPoolMixer.sol\":1482:1498  block.prevrandao */\n      prevrandao\n        /* \"MultiPoolMixer.sol\":1500:1510  msg.sender */\n      caller\n        /* \"MultiPoolMixer.sol\":1448:1511  abi.encodePacked(block.timestamp, block.prevrandao, msg.sender) */\n      add(0x20, mload(0x40))\n      tag_104\n      swap4\n      swap3\n      swap2\n      swap1\n      tag_105\n      jump\t// in\n    tag_104:\n      mload(0x40)\n      0x20\n      dup2\n      dup4\n      sub\n      sub\n      dup2\n      mstore\n      swap1\n      0x40\n      mstore\n        /* \"MultiPoolMixer.sol\":1438:1512  keccak256(abi.encodePacked(block.timestamp, block.prevrandao, msg.sender)) */\n      dup1\n      mload\n      swap1\n      0x20\n      add\n      keccak256\n        /* \"MultiPoolMixer.sol\":1430:1513  uint256(keccak256(abi.encodePacked(block.timestamp, block.prevrandao, msg.sender))) */\n      0x00\n      shr\n        /* \"MultiPoolMixer.sol\":1430:1528  uint256(keccak256(abi.encodePacked(block.timestamp, block.prevrandao, msg.sender))) % pools.length */\n      tag_106\n      swap2\n      swap1\n      tag_56\n      jump\t// in\n    tag_106:\n        /* \"MultiPoolMixer.sol\":1408:1528  uint256 randomIndex = uint256(keccak256(abi.encodePacked(block.timestamp, block.prevrandao, msg.sender))) % pools.length */\n      swap1\n      pop\n        /* \"MultiPoolMixer.sol\":1539:1559  address selectedPool */\n      0x00\n        /* \"MultiPoolMixer.sol\":1570:1575  pools */\n      dup1\n        /* \"MultiPoolMixer.sol\":1576:1587  randomIndex */\n      dup3\n        /* \"MultiPoolMixer.sol\":1570:1588  pools[randomIndex] */\n      dup2\n      sload\n      dup2\n      lt\n      tag_107\n      jumpi\n      tag_108\n      tag_59\n      jump\t// in\n    tag_108:\n    tag_107:\n      swap1\n      0x00\n      mstore\n      keccak256(0x00, 0x20)\n      add\n      0x00\n      swap1\n      sload\n      swap1\n      0x0100\n      exp\n      swap1\n      div\n      0xffffffffffffffffffffffffffffffffffffffff\n      and\n        /* \"MultiPoolMixer.sol\":1539:1589  address selectedPool = address(pools[randomIndex]) */\n      swap1\n      pop\n        /* \"MultiPoolMixer.sol\":1640:1652  bool success */\n      0x00\n        /* \"MultiPoolMixer.sol\":1658:1670  selectedPool */\n      dup2\n        /* \"MultiPoolMixer.sol\":1658:1675  selectedPool.call */\n      0xffffffffffffffffffffffffffffffffffffffff\n      and\n        /* \"MultiPoolMixer.sol\":1683:1692  msg.value */\n      callvalue\n        /* \"MultiPoolMixer.sol\":1658:1697  selectedPool.call{value: msg.value}(\"\") */\n      mload(0x40)\n      tag_110\n      swap1\n      tag_111\n      jump\t// in\n    tag_110:\n      0x00\n      mload(0x40)\n      dup1\n      dup4\n      sub\n      dup2\n      dup6\n      dup8\n      gas\n      call\n      swap3\n      pop\n      pop\n      pop\n      returndatasize\n      dup1\n      0x00\n      dup2\n      eq\n      tag_114\n      jumpi\n      mload(0x40)\n      swap2\n      pop\n      and(add(returndatasize, 0x3f), not(0x1f))\n      dup3\n      add\n      0x40\n      mstore\n      returndatasize\n      dup3\n      mstore\n      returndatasize\n      0x00\n      0x20\n      dup5\n      add\n      returndatacopy\n      jump(tag_113)\n    tag_114:\n      0x60\n      swap2\n      pop\n    tag_113:\n      pop\n        /* \"MultiPoolMixer.sol\":1639:1697  (bool success, ) = selectedPool.call{value: msg.value}(\"\") */\n      pop\n      swap1\n      pop\n        /* \"MultiPoolMixer.sol\":1716:1723  success */\n      dup1\n        /* \"MultiPoolMixer.sol\":1708:1751  require(success, \"Transfer to pool failed\") */\n      tag_115\n      jumpi\n      mload(0x40)\n      0x08c379a000000000000000000000000000000000000000000000000000000000\n      dup2\n      mstore\n      0x04\n      add\n      tag_116\n      swap1\n      tag_117\n      jump\t// in\n    tag_116:\n      mload(0x40)\n      dup1\n      swap2\n      sub\n      swap1\n      revert\n    tag_115:\n        /* \"MultiPoolMixer.sol\":1777:1787  msg.sender */\n      caller\n        /* \"MultiPoolMixer.sol\":1769:1813  Deposit(msg.sender, msg.value, selectedPool) */\n      0xffffffffffffffffffffffffffffffffffffffff\n      and\n      0xe31c7b8d08ee7db0afa68782e1028ef92305caeea8626633ad44d413e30f6b2f\n        /* \"MultiPoolMixer.sol\":1789:1798  msg.value */\n      callvalue\n        /* \"MultiPoolMixer.sol\":1800:1812  selectedPool */\n      dup5\n        /* \"MultiPoolMixer.sol\":1769:1813  Deposit(msg.sender, msg.value, selectedPool) */\n      mload(0x40)\n      tag_118\n      swap3\n      swap2\n      swap1\n      tag_119\n      jump\t// in\n    tag_118:\n      mload(0x40)\n      dup1\n      swap2\n      sub\n      swap1\n      log2\n        /* \"MultiPoolMixer.sol\":1101:1821  {... */\n      pop\n      pop\n      pop\n      pop\n        /* \"MultiPoolMixer.sol\":1065:1821  function deposit() external payable {... */\n      jump\t// out\n        /* \"MultiPoolMixer.sol\":681:1036  function createPools(uint256 numberOfPools) external onlyAdmin {... */\n    tag_37:\n        /* \"MultiPoolMixer.sol\":3844:3849  admin */\n      0x01\n      0x00\n      swap1\n      sload\n      swap1\n      0x0100\n      exp\n      swap1\n      div\n      0xffffffffffffffffffffffffffffffffffffffff\n      and\n        /* \"MultiPoolMixer.sol\":3830:3849  msg.sender == admin */\n      0xffffffffffffffffffffffffffffffffffffffff\n      and\n        /* \"MultiPoolMixer.sol\":3830:3840  msg.sender */\n      caller\n        /* \"MultiPoolMixer.sol\":3830:3849  msg.sender == admin */\n      0xffffffffffffffffffffffffffffffffffffffff\n      and\n      eq\n        /* \"MultiPoolMixer.sol\":3822:3887  require(msg.sender == admin, \"Only admin can call this function\") */\n      tag_121\n      jumpi\n      mload(0x40)\n      0x08c379a000000000000000000000000000000000000000000000000000000000\n      dup2\n      mstore\n      0x04\n      add\n      tag_122\n      swap1\n      tag_123\n      jump\t// in\n    tag_122:\n      mload(0x40)\n      dup1\n      swap2\n      sub\n      swap1\n      revert\n    tag_121:\n        /* \"MultiPoolMixer.sol\":779:780  0 */\n      0x00\n        /* \"MultiPoolMixer.sol\":763:776  numberOfPools */\n      dup2\n        /* \"MultiPoolMixer.sol\":763:780  numberOfPools > 0 */\n      gt\n        /* \"MultiPoolMixer.sol\":755:826  require(numberOfPools > 0, \"Number of pools must be greater than zero\") */\n      tag_125\n      jumpi\n      mload(0x40)\n      0x08c379a000000000000000000000000000000000000000000000000000000000\n      dup2\n      mstore\n      0x04\n      add\n      tag_126\n      swap1\n      tag_127\n      jump\t// in\n    tag_126:\n      mload(0x40)\n      dup1\n      swap2\n      sub\n      swap1\n      revert\n    tag_125:\n        /* \"MultiPoolMixer.sol\":842:851  uint256 i */\n      0x00\n        /* \"MultiPoolMixer.sol\":837:1029  for (uint256 i = 0; i < numberOfPools; i++) {... */\n    tag_128:\n        /* \"MultiPoolMixer.sol\":861:874  numberOfPools */\n      dup2\n        /* \"MultiPoolMixer.sol\":857:858  i */\n      dup2\n        /* \"MultiPoolMixer.sol\":857:874  i < numberOfPools */\n      lt\n        /* \"MultiPoolMixer.sol\":837:1029  for (uint256 i = 0; i < numberOfPools; i++) {... */\n      iszero\n      tag_129\n      jumpi\n        /* \"MultiPoolMixer.sol\":896:908  Pool newPool */\n      0x00\n        /* \"MultiPoolMixer.sol\":928:932  this */\n      address\n        /* \"MultiPoolMixer.sol\":911:934  new Pool(address(this)) */\n      mload(0x40)\n      tag_131\n      swap1\n      tag_132\n      jump\t// in\n    tag_131:\n      tag_133\n      swap2\n      swap1\n      tag_42\n      jump\t// in\n    tag_133:\n      mload(0x40)\n      dup1\n      swap2\n      sub\n      swap1\n      0x00\n      create\n      dup1\n      iszero\n      dup1\n      iszero\n      tag_134\n      jumpi\n      returndatasize\n      0x00\n      dup1\n      returndatacopy\n      revert(0x00, returndatasize)\n    tag_134:\n      pop\n        /* \"MultiPoolMixer.sol\":896:934  Pool newPool = new Pool(address(this)) */\n      swap1\n      pop\n        /* \"MultiPoolMixer.sol\":949:954  pools */\n      0x00\n        /* \"MultiPoolMixer.sol\":960:967  newPool */\n      dup2\n        /* \"MultiPoolMixer.sol\":949:968  pools.push(newPool) */\n      swap1\n      dup1\n      0x01\n      dup2\n      sload\n      add\n      dup1\n      dup3\n      sstore\n      dup1\n      swap2\n      pop\n      pop\n      0x01\n      swap1\n      sub\n      swap1\n      0x00\n      mstore\n      keccak256(0x00, 0x20)\n      add\n      0x00\n      swap1\n      swap2\n      swap1\n      swap2\n      swap1\n      swap2\n      0x0100\n      exp\n      dup2\n      sload\n      dup2\n      0xffffffffffffffffffffffffffffffffffffffff\n      mul\n      not\n      and\n      swap1\n      dup4\n      0xffffffffffffffffffffffffffffffffffffffff\n      and\n      mul\n      or\n      swap1\n      sstore\n      pop\n        /* \"MultiPoolMixer.sol\":1008:1015  newPool */\n      dup1\n        /* \"MultiPoolMixer.sol\":988:1017  PoolCreated(address(newPool)) */\n      0xffffffffffffffffffffffffffffffffffffffff\n      and\n      0x83a48fbcfc991335314e74d0496aab6a1987e992ddc85dddbcc4d6dd6ef2e9fc\n      mload(0x40)\n      mload(0x40)\n      dup1\n      swap2\n      sub\n      swap1\n      log2\n        /* \"MultiPoolMixer.sol\":881:1029  {... */\n      pop\n        /* \"MultiPoolMixer.sol\":876:879  i++ */\n      dup1\n      dup1\n      0x01\n      add\n      swap2\n      pop\n      pop\n        /* \"MultiPoolMixer.sol\":837:1029  for (uint256 i = 0; i < numberOfPools; i++) {... */\n      jump(tag_128)\n    tag_129:\n      pop\n        /* \"MultiPoolMixer.sol\":681:1036  function createPools(uint256 numberOfPools) external onlyAdmin {... */\n      pop\n      jump\t// out\n        /* \"MultiPoolMixer.sol\":175:195  address public admin */\n    tag_40:\n      0x01\n      0x00\n      swap1\n      sload\n      swap1\n      0x0100\n      exp\n      swap1\n      div\n      0xffffffffffffffffffffffffffffffffffffffff\n      and\n      dup2\n      jump\t// out\n    tag_132:\n      dataSize(sub_0)\n      dup1\n      dataOffset(sub_0)\n      dup4\n      codecopy\n      add\n      swap1\n      jump\t// out\n        /* \"#utility.yul\":88:205   */\n    tag_137:\n        /* \"#utility.yul\":197:198   */\n      0x00\n        /* \"#utility.yul\":194:195   */\n      dup1\n        /* \"#utility.yul\":187:199   */\n      revert\n        /* \"#utility.yul\":334:460   */\n    tag_139:\n        /* \"#utility.yul\":371:378   */\n      0x00\n        /* \"#utility.yul\":411:453   */\n      0xffffffffffffffffffffffffffffffffffffffff\n        /* \"#utility.yul\":404:409   */\n      dup3\n        /* \"#utility.yul\":400:454   */\n      and\n        /* \"#utility.yul\":389:454   */\n      swap1\n      pop\n        /* \"#utility.yul\":334:460   */\n      swap2\n      swap1\n      pop\n      jump\t// out\n        /* \"#utility.yul\":466:570   */\n    tag_140:\n        /* \"#utility.yul\":511:518   */\n      0x00\n        /* \"#utility.yul\":540:564   */\n      tag_196\n        /* \"#utility.yul\":558:563   */\n      dup3\n        /* \"#utility.yul\":540:564   */\n      tag_139\n      jump\t// in\n    tag_196:\n        /* \"#utility.yul\":529:564   */\n      swap1\n      pop\n        /* \"#utility.yul\":466:570   */\n      swap2\n      swap1\n      pop\n      jump\t// out\n        /* \"#utility.yul\":576:714   */\n    tag_141:\n        /* \"#utility.yul\":657:689   */\n      tag_198\n        /* \"#utility.yul\":683:688   */\n      dup2\n        /* \"#utility.yul\":657:689   */\n      tag_140\n      jump\t// in\n    tag_198:\n        /* \"#utility.yul\":650:655   */\n      dup2\n        /* \"#utility.yul\":647:690   */\n      eq\n        /* \"#utility.yul\":637:708   */\n      tag_199\n      jumpi\n        /* \"#utility.yul\":704:705   */\n      0x00\n        /* \"#utility.yul\":701:702   */\n      dup1\n        /* \"#utility.yul\":694:706   */\n      revert\n        /* \"#utility.yul\":637:708   */\n    tag_199:\n        /* \"#utility.yul\":576:714   */\n      pop\n      jump\t// out\n        /* \"#utility.yul\":720:875   */\n    tag_142:\n        /* \"#utility.yul\":774:779   */\n      0x00\n        /* \"#utility.yul\":812:818   */\n      dup2\n        /* \"#utility.yul\":799:819   */\n      calldataload\n        /* \"#utility.yul\":790:819   */\n      swap1\n      pop\n        /* \"#utility.yul\":828:869   */\n      tag_201\n        /* \"#utility.yul\":863:868   */\n      dup2\n        /* \"#utility.yul\":828:869   */\n      tag_141\n      jump\t// in\n    tag_201:\n        /* \"#utility.yul\":720:875   */\n      swap3\n      swap2\n      pop\n      pop\n      jump\t// out\n        /* \"#utility.yul\":881:1226   */\n    tag_13:\n        /* \"#utility.yul\":948:954   */\n      0x00\n        /* \"#utility.yul\":997:999   */\n      0x20\n        /* \"#utility.yul\":985:994   */\n      dup3\n        /* \"#utility.yul\":976:983   */\n      dup5\n        /* \"#utility.yul\":972:995   */\n      sub\n        /* \"#utility.yul\":968:1000   */\n      slt\n        /* \"#utility.yul\":965:1084   */\n      iszero\n      tag_203\n      jumpi\n        /* \"#utility.yul\":1003:1082   */\n      tag_204\n      tag_137\n      jump\t// in\n    tag_204:\n        /* \"#utility.yul\":965:1084   */\n    tag_203:\n        /* \"#utility.yul\":1123:1124   */\n      0x00\n        /* \"#utility.yul\":1148:1209   */\n      tag_205\n        /* \"#utility.yul\":1201:1208   */\n      dup5\n        /* \"#utility.yul\":1192:1198   */\n      dup3\n        /* \"#utility.yul\":1181:1190   */\n      dup6\n        /* \"#utility.yul\":1177:1199   */\n      add\n        /* \"#utility.yul\":1148:1209   */\n      tag_142\n      jump\t// in\n    tag_205:\n        /* \"#utility.yul\":1138:1209   */\n      swap2\n      pop\n        /* \"#utility.yul\":1094:1219   */\n      pop\n        /* \"#utility.yul\":881:1226   */\n      swap3\n      swap2\n      pop\n      pop\n      jump\t// out\n        /* \"#utility.yul\":1232:1346   */\n    tag_143:\n        /* \"#utility.yul\":1299:1305   */\n      0x00\n        /* \"#utility.yul\":1333:1338   */\n      dup2\n        /* \"#utility.yul\":1327:1339   */\n      mload\n        /* \"#utility.yul\":1317:1339   */\n      swap1\n      pop\n        /* \"#utility.yul\":1232:1346   */\n      swap2\n      swap1\n      pop\n      jump\t// out\n        /* \"#utility.yul\":1352:1536   */\n    tag_144:\n        /* \"#utility.yul\":1451:1462   */\n      0x00\n        /* \"#utility.yul\":1485:1491   */\n      dup3\n        /* \"#utility.yul\":1480:1483   */\n      dup3\n        /* \"#utility.yul\":1473:1492   */\n      mstore\n        /* \"#utility.yul\":1525:1529   */\n      0x20\n        /* \"#utility.yul\":1520:1523   */\n      dup3\n        /* \"#utility.yul\":1516:1530   */\n      add\n        /* \"#utility.yul\":1501:1530   */\n      swap1\n      pop\n        /* \"#utility.yul\":1352:1536   */\n      swap3\n      swap2\n      pop\n      pop\n      jump\t// out\n        /* \"#utility.yul\":1542:1674   */\n    tag_145:\n        /* \"#utility.yul\":1609:1613   */\n      0x00\n        /* \"#utility.yul\":1632:1635   */\n      dup2\n        /* \"#utility.yul\":1624:1635   */\n      swap1\n      pop\n        /* \"#utility.yul\":1662:1666   */\n      0x20\n        /* \"#utility.yul\":1657:1660   */\n      dup3\n        /* \"#utility.yul\":1653:1667   */\n      add\n        /* \"#utility.yul\":1645:1667   */\n      swap1\n      pop\n        /* \"#utility.yul\":1542:1674   */\n      swap2\n      swap1\n      pop\n      jump\t// out\n        /* \"#utility.yul\":1680:1776   */\n    tag_146:\n        /* \"#utility.yul\":1717:1724   */\n      0x00\n        /* \"#utility.yul\":1746:1770   */\n      tag_210\n        /* \"#utility.yul\":1764:1769   */\n      dup3\n        /* \"#utility.yul\":1746:1770   */\n      tag_139\n      jump\t// in\n    tag_210:\n        /* \"#utility.yul\":1735:1770   */\n      swap1\n      pop\n        /* \"#utility.yul\":1680:1776   */\n      swap2\n      swap1\n      pop\n      jump\t// out\n        /* \"#utility.yul\":1782:1890   */\n    tag_147:\n        /* \"#utility.yul\":1859:1883   */\n      tag_212\n        /* \"#utility.yul\":1877:1882   */\n      dup2\n        /* \"#utility.yul\":1859:1883   */\n      tag_146\n      jump\t// in\n    tag_212:\n        /* \"#utility.yul\":1854:1857   */\n      dup3\n        /* \"#utility.yul\":1847:1884   */\n      mstore\n        /* \"#utility.yul\":1782:1890   */\n      pop\n      pop\n      jump\t// out\n        /* \"#utility.yul\":1896:2075   */\n    tag_148:\n        /* \"#utility.yul\":1965:1975   */\n      0x00\n        /* \"#utility.yul\":1986:2032   */\n      tag_214\n        /* \"#utility.yul\":2028:2031   */\n      dup4\n        /* \"#utility.yul\":2020:2026   */\n      dup4\n        /* \"#utility.yul\":1986:2032   */\n      tag_147\n      jump\t// in\n    tag_214:\n        /* \"#utility.yul\":2064:2068   */\n      0x20\n        /* \"#utility.yul\":2059:2062   */\n      dup4\n        /* \"#utility.yul\":2055:2069   */\n      add\n        /* \"#utility.yul\":2041:2069   */\n      swap1\n      pop\n        /* \"#utility.yul\":1896:2075   */\n      swap3\n      swap2\n      pop\n      pop\n      jump\t// out\n        /* \"#utility.yul\":2081:2194   */\n    tag_149:\n        /* \"#utility.yul\":2151:2155   */\n      0x00\n        /* \"#utility.yul\":2183:2187   */\n      0x20\n        /* \"#utility.yul\":2178:2181   */\n      dup3\n        /* \"#utility.yul\":2174:2188   */\n      add\n        /* \"#utility.yul\":2166:2188   */\n      swap1\n      pop\n        /* \"#utility.yul\":2081:2194   */\n      swap2\n      swap1\n      pop\n      jump\t// out\n        /* \"#utility.yul\":2230:2962   */\n    tag_150:\n        /* \"#utility.yul\":2349:2352   */\n      0x00\n        /* \"#utility.yul\":2378:2432   */\n      tag_217\n        /* \"#utility.yul\":2426:2431   */\n      dup3\n        /* \"#utility.yul\":2378:2432   */\n      tag_143\n      jump\t// in\n    tag_217:\n        /* \"#utility.yul\":2448:2534   */\n      tag_218\n        /* \"#utility.yul\":2527:2533   */\n      dup2\n        /* \"#utility.yul\":2522:2525   */\n      dup6\n        /* \"#utility.yul\":2448:2534   */\n      tag_144\n      jump\t// in\n    tag_218:\n        /* \"#utility.yul\":2441:2534   */\n      swap4\n      pop\n        /* \"#utility.yul\":2558:2614   */\n      tag_219\n        /* \"#utility.yul\":2608:2613   */\n      dup4\n        /* \"#utility.yul\":2558:2614   */\n      tag_145\n      jump\t// in\n    tag_219:\n        /* \"#utility.yul\":2637:2644   */\n      dup1\n        /* \"#utility.yul\":2668:2669   */\n      0x00\n        /* \"#utility.yul\":2653:2937   */\n    tag_220:\n        /* \"#utility.yul\":2678:2684   */\n      dup4\n        /* \"#utility.yul\":2675:2676   */\n      dup2\n        /* \"#utility.yul\":2672:2685   */\n      lt\n        /* \"#utility.yul\":2653:2937   */\n      iszero\n      tag_222\n      jumpi\n        /* \"#utility.yul\":2754:2760   */\n      dup2\n        /* \"#utility.yul\":2748:2761   */\n      mload\n        /* \"#utility.yul\":2781:2844   */\n      tag_223\n        /* \"#utility.yul\":2840:2843   */\n      dup9\n        /* \"#utility.yul\":2825:2838   */\n      dup3\n        /* \"#utility.yul\":2781:2844   */\n      tag_148\n      jump\t// in\n    tag_223:\n        /* \"#utility.yul\":2774:2844   */\n      swap8\n      pop\n        /* \"#utility.yul\":2867:2927   */\n      tag_224\n        /* \"#utility.yul\":2920:2926   */\n      dup4\n        /* \"#utility.yul\":2867:2927   */\n      tag_149\n      jump\t// in\n    tag_224:\n        /* \"#utility.yul\":2857:2927   */\n      swap3\n      pop\n        /* \"#utility.yul\":2713:2937   */\n      pop\n        /* \"#utility.yul\":2700:2701   */\n      0x01\n        /* \"#utility.yul\":2697:2698   */\n      dup2\n        /* \"#utility.yul\":2693:2702   */\n      add\n        /* \"#utility.yul\":2688:2702   */\n      swap1\n      pop\n        /* \"#utility.yul\":2653:2937   */\n      jump(tag_220)\n    tag_222:\n        /* \"#utility.yul\":2657:2671   */\n      pop\n        /* \"#utility.yul\":2953:2956   */\n      dup6\n        /* \"#utility.yul\":2946:2956   */\n      swap4\n      pop\n        /* \"#utility.yul\":2354:2962   */\n      pop\n      pop\n      pop\n        /* \"#utility.yul\":2230:2962   */\n      swap3\n      swap2\n      pop\n      pop\n      jump\t// out\n        /* \"#utility.yul\":2968:3341   */\n    tag_19:\n        /* \"#utility.yul\":3111:3115   */\n      0x00\n        /* \"#utility.yul\":3149:3151   */\n      0x20\n        /* \"#utility.yul\":3138:3147   */\n      dup3\n        /* \"#utility.yul\":3134:3152   */\n      add\n        /* \"#utility.yul\":3126:3152   */\n      swap1\n      pop\n        /* \"#utility.yul\":3198:3207   */\n      dup2\n        /* \"#utility.yul\":3192:3196   */\n      dup2\n        /* \"#utility.yul\":3188:3208   */\n      sub\n        /* \"#utility.yul\":3184:3185   */\n      0x00\n        /* \"#utility.yul\":3173:3182   */\n      dup4\n        /* \"#utility.yul\":3169:3186   */\n      add\n        /* \"#utility.yul\":3162:3209   */\n      mstore\n        /* \"#utility.yul\":3226:3334   */\n      tag_226\n        /* \"#utility.yul\":3329:3333   */\n      dup2\n        /* \"#utility.yul\":3320:3326   */\n      dup5\n        /* \"#utility.yul\":3226:3334   */\n      tag_150\n      jump\t// in\n    tag_226:\n        /* \"#utility.yul\":3218:3334   */\n      swap1\n      pop\n        /* \"#utility.yul\":2968:3341   */\n      swap3\n      swap2\n      pop\n      pop\n      jump\t// out\n        /* \"#utility.yul\":3347:3424   */\n    tag_151:\n        /* \"#utility.yul\":3384:3391   */\n      0x00\n        /* \"#utility.yul\":3413:3418   */\n      dup2\n        /* \"#utility.yul\":3402:3418   */\n      swap1\n      pop\n        /* \"#utility.yul\":3347:3424   */\n      swap2\n      swap1\n      pop\n      jump\t// out\n        /* \"#utility.yul\":3430:3548   */\n    tag_152:\n        /* \"#utility.yul\":3517:3541   */\n      tag_229\n        /* \"#utility.yul\":3535:3540   */\n      dup2\n        /* \"#utility.yul\":3517:3541   */\n      tag_151\n      jump\t// in\n    tag_229:\n        /* \"#utility.yul\":3512:3515   */\n      dup3\n        /* \"#utility.yul\":3505:3542   */\n      mstore\n        /* \"#utility.yul\":3430:3548   */\n      pop\n      pop\n      jump\t// out\n        /* \"#utility.yul\":3554:3776   */\n    tag_24:\n        /* \"#utility.yul\":3647:3651   */\n      0x00\n        /* \"#utility.yul\":3685:3687   */\n      0x20\n        /* \"#utility.yul\":3674:3683   */\n      dup3\n        /* \"#utility.yul\":3670:3688   */\n      add\n        /* \"#utility.yul\":3662:3688   */\n      swap1\n      pop\n        /* \"#utility.yul\":3698:3769   */\n      tag_231\n        /* \"#utility.yul\":3766:3767   */\n      0x00\n        /* \"#utility.yul\":3755:3764   */\n      dup4\n        /* \"#utility.yul\":3751:3768   */\n      add\n        /* \"#utility.yul\":3742:3748   */\n      dup5\n        /* \"#utility.yul\":3698:3769   */\n      tag_152\n      jump\t// in\n    tag_231:\n        /* \"#utility.yul\":3554:3776   */\n      swap3\n      swap2\n      pop\n      pop\n      jump\t// out\n        /* \"#utility.yul\":3782:3904   */\n    tag_153:\n        /* \"#utility.yul\":3855:3879   */\n      tag_233\n        /* \"#utility.yul\":3873:3878   */\n      dup2\n        /* \"#utility.yul\":3855:3879   */\n      tag_151\n      jump\t// in\n    tag_233:\n        /* \"#utility.yul\":3848:3853   */\n      dup2\n        /* \"#utility.yul\":3845:3880   */\n      eq\n        /* \"#utility.yul\":3835:3898   */\n      tag_234\n      jumpi\n        /* \"#utility.yul\":3894:3895   */\n      0x00\n        /* \"#utility.yul\":3891:3892   */\n      dup1\n        /* \"#utility.yul\":3884:3896   */\n      revert\n        /* \"#utility.yul\":3835:3898   */\n    tag_234:\n        /* \"#utility.yul\":3782:3904   */\n      pop\n      jump\t// out\n        /* \"#utility.yul\":3910:4049   */\n    tag_154:\n        /* \"#utility.yul\":3956:3961   */\n      0x00\n        /* \"#utility.yul\":3994:4000   */\n      dup2\n        /* \"#utility.yul\":3981:4001   */\n      calldataload\n        /* \"#utility.yul\":3972:4001   */\n      swap1\n      pop\n        /* \"#utility.yul\":4010:4043   */\n      tag_236\n        /* \"#utility.yul\":4037:4042   */\n      dup2\n        /* \"#utility.yul\":4010:4043   */\n      tag_153\n      jump\t// in\n    tag_236:\n        /* \"#utility.yul\":3910:4049   */\n      swap3\n      swap2\n      pop\n      pop\n      jump\t// out\n        /* \"#utility.yul\":4055:4384   */\n    tag_28:\n        /* \"#utility.yul\":4114:4120   */\n      0x00\n        /* \"#utility.yul\":4163:4165   */\n      0x20\n        /* \"#utility.yul\":4151:4160   */\n      dup3\n        /* \"#utility.yul\":4142:4149   */\n      dup5\n        /* \"#utility.yul\":4138:4161   */\n      sub\n        /* \"#utility.yul\":4134:4166   */\n      slt\n        /* \"#utility.yul\":4131:4250   */\n      iszero\n      tag_238\n      jumpi\n        /* \"#utility.yul\":4169:4248   */\n      tag_239\n      tag_137\n      jump\t// in\n    tag_239:\n        /* \"#utility.yul\":4131:4250   */\n    tag_238:\n        /* \"#utility.yul\":4289:4290   */\n      0x00\n        /* \"#utility.yul\":4314:4367   */\n      tag_240\n        /* \"#utility.yul\":4359:4366   */\n      dup5\n        /* \"#utility.yul\":4350:4356   */\n      dup3\n        /* \"#utility.yul\":4339:4348   */\n      dup6\n        /* \"#utility.yul\":4335:4357   */\n      add\n        /* \"#utility.yul\":4314:4367   */\n      tag_154\n      jump\t// in\n    tag_240:\n        /* \"#utility.yul\":4304:4367   */\n      swap2\n      pop\n        /* \"#utility.yul\":4260:4377   */\n      pop\n        /* \"#utility.yul\":4055:4384   */\n      swap3\n      swap2\n      pop\n      pop\n      jump\t// out\n        /* \"#utility.yul\":4390:4450   */\n    tag_155:\n        /* \"#utility.yul\":4418:4421   */\n      0x00\n        /* \"#utility.yul\":4439:4444   */\n      dup2\n        /* \"#utility.yul\":4432:4444   */\n      swap1\n      pop\n        /* \"#utility.yul\":4390:4450   */\n      swap2\n      swap1\n      pop\n      jump\t// out\n        /* \"#utility.yul\":4456:4598   */\n    tag_156:\n        /* \"#utility.yul\":4506:4515   */\n      0x00\n        /* \"#utility.yul\":4539:4592   */\n      tag_243\n        /* \"#utility.yul\":4557:4591   */\n      tag_244\n        /* \"#utility.yul\":4566:4590   */\n      tag_245\n        /* \"#utility.yul\":4584:4589   */\n      dup5\n        /* \"#utility.yul\":4566:4590   */\n      tag_139\n      jump\t// in\n    tag_245:\n        /* \"#utility.yul\":4557:4591   */\n      tag_155\n      jump\t// in\n    tag_244:\n        /* \"#utility.yul\":4539:4592   */\n      tag_139\n      jump\t// in\n    tag_243:\n        /* \"#utility.yul\":4526:4592   */\n      swap1\n      pop\n        /* \"#utility.yul\":4456:4598   */\n      swap2\n      swap1\n      pop\n      jump\t// out\n        /* \"#utility.yul\":4604:4738   */\n    tag_157:\n        /* \"#utility.yul\":4662:4671   */\n      0x00\n        /* \"#utility.yul\":4695:4732   */\n      tag_247\n        /* \"#utility.yul\":4726:4731   */\n      dup3\n        /* \"#utility.yul\":4695:4732   */\n      tag_156\n      jump\t// in\n    tag_247:\n        /* \"#utility.yul\":4682:4732   */\n      swap1\n      pop\n        /* \"#utility.yul\":4604:4738   */\n      swap2\n      swap1\n      pop\n      jump\t// out\n        /* \"#utility.yul\":4744:4898   */\n    tag_158:\n        /* \"#utility.yul\":4814:4823   */\n      0x00\n        /* \"#utility.yul\":4847:4892   */\n      tag_249\n        /* \"#utility.yul\":4886:4891   */\n      dup3\n        /* \"#utility.yul\":4847:4892   */\n      tag_157\n      jump\t// in\n    tag_249:\n        /* \"#utility.yul\":4834:4892   */\n      swap1\n      pop\n        /* \"#utility.yul\":4744:4898   */\n      swap2\n      swap1\n      pop\n      jump\t// out\n        /* \"#utility.yul\":4904:5075   */\n    tag_159:\n        /* \"#utility.yul\":5011:5068   */\n      tag_251\n        /* \"#utility.yul\":5062:5067   */\n      dup2\n        /* \"#utility.yul\":5011:5068   */\n      tag_158\n      jump\t// in\n    tag_251:\n        /* \"#utility.yul\":5006:5009   */\n      dup3\n        /* \"#utility.yul\":4999:5069   */\n      mstore\n        /* \"#utility.yul\":4904:5075   */\n      pop\n      pop\n      jump\t// out\n        /* \"#utility.yul\":5081:5343   */\n    tag_31:\n        /* \"#utility.yul\":5194:5198   */\n      0x00\n        /* \"#utility.yul\":5232:5234   */\n      0x20\n        /* \"#utility.yul\":5221:5230   */\n      dup3\n        /* \"#utility.yul\":5217:5235   */\n      add\n        /* \"#utility.yul\":5209:5235   */\n      swap1\n      pop\n        /* \"#utility.yul\":5245:5336   */\n      tag_253\n        /* \"#utility.yul\":5333:5334   */\n      0x00\n        /* \"#utility.yul\":5322:5331   */\n      dup4\n        /* \"#utility.yul\":5318:5335   */\n      add\n        /* \"#utility.yul\":5309:5315   */\n      dup5\n        /* \"#utility.yul\":5245:5336   */\n      tag_159\n      jump\t// in\n    tag_253:\n        /* \"#utility.yul\":5081:5343   */\n      swap3\n      swap2\n      pop\n      pop\n      jump\t// out\n        /* \"#utility.yul\":5349:5467   */\n    tag_160:\n        /* \"#utility.yul\":5436:5460   */\n      tag_255\n        /* \"#utility.yul\":5454:5459   */\n      dup2\n        /* \"#utility.yul\":5436:5460   */\n      tag_146\n      jump\t// in\n    tag_255:\n        /* \"#utility.yul\":5431:5434   */\n      dup3\n        /* \"#utility.yul\":5424:5461   */\n      mstore\n        /* \"#utility.yul\":5349:5467   */\n      pop\n      pop\n      jump\t// out\n        /* \"#utility.yul\":5473:5695   */\n    tag_42:\n        /* \"#utility.yul\":5566:5570   */\n      0x00\n        /* \"#utility.yul\":5604:5606   */\n      0x20\n        /* \"#utility.yul\":5593:5602   */\n      dup3\n        /* \"#utility.yul\":5589:5607   */\n      add\n        /* \"#utility.yul\":5581:5607   */\n      swap1\n      pop\n        /* \"#utility.yul\":5617:5688   */\n      tag_257\n        /* \"#utility.yul\":5685:5686   */\n      0x00\n        /* \"#utility.yul\":5674:5683   */\n      dup4\n        /* \"#utility.yul\":5670:5687   */\n      add\n        /* \"#utility.yul\":5661:5667   */\n      dup5\n        /* \"#utility.yul\":5617:5688   */\n      tag_160\n      jump\t// in\n    tag_257:\n        /* \"#utility.yul\":5473:5695   */\n      swap3\n      swap2\n      pop\n      pop\n      jump\t// out\n        /* \"#utility.yul\":5701:5870   */\n    tag_161:\n        /* \"#utility.yul\":5785:5796   */\n      0x00\n        /* \"#utility.yul\":5819:5825   */\n      dup3\n        /* \"#utility.yul\":5814:5817   */\n      dup3\n        /* \"#utility.yul\":5807:5826   */\n      mstore\n        /* \"#utility.yul\":5859:5863   */\n      0x20\n        /* \"#utility.yul\":5854:5857   */\n      dup3\n        /* \"#utility.yul\":5850:5864   */\n      add\n        /* \"#utility.yul\":5835:5864   */\n      swap1\n      pop\n        /* \"#utility.yul\":5701:5870   */\n      swap3\n      swap2\n      pop\n      pop\n      jump\t// out\n        /* \"#utility.yul\":5876:6044   */\n    tag_162:\n        /* \"#utility.yul\":6016:6036   */\n      0x4e6f20706f6f6c7320617661696c61626c650000000000000000000000000000\n        /* \"#utility.yul\":6012:6013   */\n      0x00\n        /* \"#utility.yul\":6004:6010   */\n      dup3\n        /* \"#utility.yul\":6000:6014   */\n      add\n        /* \"#utility.yul\":5993:6037   */\n      mstore\n        /* \"#utility.yul\":5876:6044   */\n      pop\n      jump\t// out\n        /* \"#utility.yul\":6050:6416   */\n    tag_163:\n        /* \"#utility.yul\":6192:6195   */\n      0x00\n        /* \"#utility.yul\":6213:6280   */\n      tag_261\n        /* \"#utility.yul\":6277:6279   */\n      0x12\n        /* \"#utility.yul\":6272:6275   */\n      dup4\n        /* \"#utility.yul\":6213:6280   */\n      tag_161\n      jump\t// in\n    tag_261:\n        /* \"#utility.yul\":6206:6280   */\n      swap2\n      pop\n        /* \"#utility.yul\":6289:6382   */\n      tag_262\n        /* \"#utility.yul\":6378:6381   */\n      dup3\n        /* \"#utility.yul\":6289:6382   */\n      tag_162\n      jump\t// in\n    tag_262:\n        /* \"#utility.yul\":6407:6409   */\n      0x20\n        /* \"#utility.yul\":6402:6405   */\n      dup3\n        /* \"#utility.yul\":6398:6410   */\n      add\n        /* \"#utility.yul\":6391:6410   */\n      swap1\n      pop\n        /* \"#utility.yul\":6050:6416   */\n      swap2\n      swap1\n      pop\n      jump\t// out\n        /* \"#utility.yul\":6422:6841   */\n    tag_46:\n        /* \"#utility.yul\":6588:6592   */\n      0x00\n        /* \"#utility.yul\":6626:6628   */\n      0x20\n        /* \"#utility.yul\":6615:6624   */\n      dup3\n        /* \"#utility.yul\":6611:6629   */\n      add\n        /* \"#utility.yul\":6603:6629   */\n      swap1\n      pop\n        /* \"#utility.yul\":6675:6684   */\n      dup2\n        /* \"#utility.yul\":6669:6673   */\n      dup2\n        /* \"#utility.yul\":6665:6685   */\n      sub\n        /* \"#utility.yul\":6661:6662   */\n      0x00\n        /* \"#utility.yul\":6650:6659   */\n      dup4\n        /* \"#utility.yul\":6646:6663   */\n      add\n        /* \"#utility.yul\":6639:6686   */\n      mstore\n        /* \"#utility.yul\":6703:6834   */\n      tag_264\n        /* \"#utility.yul\":6829:6833   */\n      dup2\n        /* \"#utility.yul\":6703:6834   */\n      tag_163\n      jump\t// in\n    tag_264:\n        /* \"#utility.yul\":6695:6834   */\n      swap1\n      pop\n        /* \"#utility.yul\":6422:6841   */\n      swap2\n      swap1\n      pop\n      jump\t// out\n        /* \"#utility.yul\":6847:7022   */\n    tag_164:\n        /* \"#utility.yul\":6987:7014   */\n      0x496e76616c696420726563697069656e74206164647265737300000000000000\n        /* \"#utility.yul\":6983:6984   */\n      0x00\n        /* \"#utility.yul\":6975:6981   */\n      dup3\n        /* \"#utility.yul\":6971:6985   */\n      add\n        /* \"#utility.yul\":6964:7015   */\n      mstore\n        /* \"#utility.yul\":6847:7022   */\n      pop\n      jump\t// out\n        /* \"#utility.yul\":7028:7394   */\n    tag_165:\n        /* \"#utility.yul\":7170:7173   */\n      0x00\n        /* \"#utility.yul\":7191:7258   */\n      tag_267\n        /* \"#utility.yul\":7255:7257   */\n      0x19\n        /* \"#utility.yul\":7250:7253   */\n      dup4\n        /* \"#utility.yul\":7191:7258   */\n      tag_161\n      jump\t// in\n    tag_267:\n        /* \"#utility.yul\":7184:7258   */\n      swap2\n      pop\n        /* \"#utility.yul\":7267:7360   */\n      tag_268\n        /* \"#utility.yul\":7356:7359   */\n      dup3\n        /* \"#utility.yul\":7267:7360   */\n      tag_164\n      jump\t// in\n    tag_268:\n        /* \"#utility.yul\":7385:7387   */\n      0x20\n        /* \"#utility.yul\":7380:7383   */\n      dup3\n        /* \"#utility.yul\":7376:7388   */\n      add\n        /* \"#utility.yul\":7369:7388   */\n      swap1\n      pop\n        /* \"#utility.yul\":7028:7394   */\n      swap2\n      swap1\n      pop\n      jump\t// out\n        /* \"#utility.yul\":7400:7819   */\n    tag_49:\n        /* \"#utility.yul\":7566:7570   */\n      0x00\n        /* \"#utility.yul\":7604:7606   */\n      0x20\n        /* \"#utility.yul\":7593:7602   */\n      dup3\n        /* \"#utility.yul\":7589:7607   */\n      add\n        /* \"#utility.yul\":7581:7607   */\n      swap1\n      pop\n        /* \"#utility.yul\":7653:7662   */\n      dup2\n        /* \"#utility.yul\":7647:7651   */\n      dup2\n        /* \"#utility.yul\":7643:7663   */\n      sub\n        /* \"#utility.yul\":7639:7640   */\n      0x00\n        /* \"#utility.yul\":7628:7637   */\n      dup4\n        /* \"#utility.yul\":7624:7641   */\n      add\n        /* \"#utility.yul\":7617:7664   */\n      mstore\n        /* \"#utility.yul\":7681:7812   */\n      tag_270\n        /* \"#utility.yul\":7807:7811   */\n      dup2\n        /* \"#utility.yul\":7681:7812   */\n      tag_165\n      jump\t// in\n    tag_270:\n        /* \"#utility.yul\":7673:7812   */\n      swap1\n      pop\n        /* \"#utility.yul\":7400:7819   */\n      swap2\n      swap1\n      pop\n      jump\t// out\n        /* \"#utility.yul\":7825:7904   */\n    tag_166:\n        /* \"#utility.yul\":7864:7871   */\n      0x00\n        /* \"#utility.yul\":7893:7898   */\n      dup2\n        /* \"#utility.yul\":7882:7898   */\n      swap1\n      pop\n        /* \"#utility.yul\":7825:7904   */\n      swap2\n      swap1\n      pop\n      jump\t// out\n        /* \"#utility.yul\":7910:8067   */\n    tag_167:\n        /* \"#utility.yul\":8015:8060   */\n      tag_273\n        /* \"#utility.yul\":8035:8059   */\n      tag_274\n        /* \"#utility.yul\":8053:8058   */\n      dup3\n        /* \"#utility.yul\":8035:8059   */\n      tag_151\n      jump\t// in\n    tag_274:\n        /* \"#utility.yul\":8015:8060   */\n      tag_166\n      jump\t// in\n    tag_273:\n        /* \"#utility.yul\":8010:8013   */\n      dup3\n        /* \"#utility.yul\":8003:8061   */\n      mstore\n        /* \"#utility.yul\":7910:8067   */\n      pop\n      pop\n      jump\t// out\n        /* \"#utility.yul\":8073:8167   */\n    tag_168:\n        /* \"#utility.yul\":8106:8114   */\n      0x00\n        /* \"#utility.yul\":8154:8159   */\n      dup2\n        /* \"#utility.yul\":8150:8152   */\n      0x60\n        /* \"#utility.yul\":8146:8160   */\n      shl\n        /* \"#utility.yul\":8125:8160   */\n      swap1\n      pop\n        /* \"#utility.yul\":8073:8167   */\n      swap2\n      swap1\n      pop\n      jump\t// out\n        /* \"#utility.yul\":8173:8267   */\n    tag_169:\n        /* \"#utility.yul\":8212:8219   */\n      0x00\n        /* \"#utility.yul\":8241:8261   */\n      tag_277\n        /* \"#utility.yul\":8255:8260   */\n      dup3\n        /* \"#utility.yul\":8241:8261   */\n      tag_168\n      jump\t// in\n    tag_277:\n        /* \"#utility.yul\":8230:8261   */\n      swap1\n      pop\n        /* \"#utility.yul\":8173:8267   */\n      swap2\n      swap1\n      pop\n      jump\t// out\n        /* \"#utility.yul\":8273:8373   */\n    tag_170:\n        /* \"#utility.yul\":8312:8319   */\n      0x00\n        /* \"#utility.yul\":8341:8367   */\n      tag_279\n        /* \"#utility.yul\":8361:8366   */\n      dup3\n        /* \"#utility.yul\":8341:8367   */\n      tag_169\n      jump\t// in\n    tag_279:\n        /* \"#utility.yul\":8330:8367   */\n      swap1\n      pop\n        /* \"#utility.yul\":8273:8373   */\n      swap2\n      swap1\n      pop\n      jump\t// out\n        /* \"#utility.yul\":8379:8536   */\n    tag_171:\n        /* \"#utility.yul\":8484:8529   */\n      tag_281\n        /* \"#utility.yul\":8504:8528   */\n      tag_282\n        /* \"#utility.yul\":8522:8527   */\n      dup3\n        /* \"#utility.yul\":8504:8528   */\n      tag_146\n      jump\t// in\n    tag_282:\n        /* \"#utility.yul\":8484:8529   */\n      tag_170\n      jump\t// in\n    tag_281:\n        /* \"#utility.yul\":8479:8482   */\n      dup3\n        /* \"#utility.yul\":8472:8530   */\n      mstore\n        /* \"#utility.yul\":8379:8536   */\n      pop\n      pop\n      jump\t// out\n        /* \"#utility.yul\":8542:9221   */\n    tag_54:\n        /* \"#utility.yul\":8738:8741   */\n      0x00\n        /* \"#utility.yul\":8753:8828   */\n      tag_284\n        /* \"#utility.yul\":8824:8827   */\n      dup3\n        /* \"#utility.yul\":8815:8821   */\n      dup8\n        /* \"#utility.yul\":8753:8828   */\n      tag_167\n      jump\t// in\n    tag_284:\n        /* \"#utility.yul\":8853:8855   */\n      0x20\n        /* \"#utility.yul\":8848:8851   */\n      dup3\n        /* \"#utility.yul\":8844:8856   */\n      add\n        /* \"#utility.yul\":8837:8856   */\n      swap2\n      pop\n        /* \"#utility.yul\":8866:8941   */\n      tag_285\n        /* \"#utility.yul\":8937:8940   */\n      dup3\n        /* \"#utility.yul\":8928:8934   */\n      dup7\n        /* \"#utility.yul\":8866:8941   */\n      tag_167\n      jump\t// in\n    tag_285:\n        /* \"#utility.yul\":8966:8968   */\n      0x20\n        /* \"#utility.yul\":8961:8964   */\n      dup3\n        /* \"#utility.yul\":8957:8969   */\n      add\n        /* \"#utility.yul\":8950:8969   */\n      swap2\n      pop\n        /* \"#utility.yul\":8979:9054   */\n      tag_286\n        /* \"#utility.yul\":9050:9053   */\n      dup3\n        /* \"#utility.yul\":9041:9047   */\n      dup6\n        /* \"#utility.yul\":8979:9054   */\n      tag_171\n      jump\t// in\n    tag_286:\n        /* \"#utility.yul\":9079:9081   */\n      0x14\n        /* \"#utility.yul\":9074:9077   */\n      dup3\n        /* \"#utility.yul\":9070:9082   */\n      add\n        /* \"#utility.yul\":9063:9082   */\n      swap2\n      pop\n        /* \"#utility.yul\":9092:9167   */\n      tag_287\n        /* \"#utility.yul\":9163:9166   */\n      dup3\n        /* \"#utility.yul\":9154:9160   */\n      dup5\n        /* \"#utility.yul\":9092:9167   */\n      tag_167\n      jump\t// in\n    tag_287:\n        /* \"#utility.yul\":9192:9194   */\n      0x20\n        /* \"#utility.yul\":9187:9190   */\n      dup3\n        /* \"#utility.yul\":9183:9195   */\n      add\n        /* \"#utility.yul\":9176:9195   */\n      swap2\n      pop\n        /* \"#utility.yul\":9212:9215   */\n      dup2\n        /* \"#utility.yul\":9205:9215   */\n      swap1\n      pop\n        /* \"#utility.yul\":8542:9221   */\n      swap6\n      swap5\n      pop\n      pop\n      pop\n      pop\n      pop\n      jump\t// out\n        /* \"#utility.yul\":9227:9407   */\n    tag_172:\n        /* \"#utility.yul\":9275:9352   */\n      0x4e487b7100000000000000000000000000000000000000000000000000000000\n        /* \"#utility.yul\":9272:9273   */\n      0x00\n        /* \"#utility.yul\":9265:9353   */\n      mstore\n        /* \"#utility.yul\":9372:9376   */\n      0x12\n        /* \"#utility.yul\":9369:9370   */\n      0x04\n        /* \"#utility.yul\":9362:9377   */\n      mstore\n        /* \"#utility.yul\":9396:9400   */\n      0x24\n        /* \"#utility.yul\":9393:9394   */\n      0x00\n        /* \"#utility.yul\":9386:9401   */\n      revert\n        /* \"#utility.yul\":9413:9589   */\n    tag_56:\n        /* \"#utility.yul\":9445:9446   */\n      0x00\n        /* \"#utility.yul\":9462:9482   */\n      tag_290\n        /* \"#utility.yul\":9480:9481   */\n      dup3\n        /* \"#utility.yul\":9462:9482   */\n      tag_151\n      jump\t// in\n    tag_290:\n        /* \"#utility.yul\":9457:9482   */\n      swap2\n      pop\n        /* \"#utility.yul\":9496:9516   */\n      tag_291\n        /* \"#utility.yul\":9514:9515   */\n      dup4\n        /* \"#utility.yul\":9496:9516   */\n      tag_151\n      jump\t// in\n    tag_291:\n        /* \"#utility.yul\":9491:9516   */\n      swap3\n      pop\n        /* \"#utility.yul\":9535:9536   */\n      dup3\n        /* \"#utility.yul\":9525:9560   */\n      tag_292\n      jumpi\n        /* \"#utility.yul\":9540:9558   */\n      tag_293\n      tag_172\n      jump\t// in\n    tag_293:\n        /* \"#utility.yul\":9525:9560   */\n    tag_292:\n        /* \"#utility.yul\":9581:9582   */\n      dup3\n        /* \"#utility.yul\":9578:9579   */\n      dup3\n        /* \"#utility.yul\":9574:9583   */\n      mod\n        /* \"#utility.yul\":9569:9583   */\n      swap1\n      pop\n        /* \"#utility.yul\":9413:9589   */\n      swap3\n      swap2\n      pop\n      pop\n      jump\t// out\n        /* \"#utility.yul\":9595:9775   */\n    tag_59:\n        /* \"#utility.yul\":9643:9720   */\n      0x4e487b7100000000000000000000000000000000000000000000000000000000\n        /* \"#utility.yul\":9640:9641   */\n      0x00\n        /* \"#utility.yul\":9633:9721   */\n      mstore\n        /* \"#utility.yul\":9740:9744   */\n      0x32\n        /* \"#utility.yul\":9737:9738   */\n      0x04\n        /* \"#utility.yul\":9730:9745   */\n      mstore\n        /* \"#utility.yul\":9764:9768   */\n      0x24\n        /* \"#utility.yul\":9761:9762   */\n      0x00\n        /* \"#utility.yul\":9754:9769   */\n      revert\n        /* \"#utility.yul\":9781:9907   */\n    tag_173:\n        /* \"#utility.yul\":9831:9840   */\n      0x00\n        /* \"#utility.yul\":9864:9901   */\n      tag_296\n        /* \"#utility.yul\":9895:9900   */\n      dup3\n        /* \"#utility.yul\":9864:9901   */\n      tag_156\n      jump\t// in\n    tag_296:\n        /* \"#utility.yul\":9851:9901   */\n      swap1\n      pop\n        /* \"#utility.yul\":9781:9907   */\n      swap2\n      swap1\n      pop\n      jump\t// out\n        /* \"#utility.yul\":9913:10047   */\n    tag_174:\n        /* \"#utility.yul\":9971:9980   */\n      0x00\n        /* \"#utility.yul\":10004:10041   */\n      tag_298\n        /* \"#utility.yul\":10035:10040   */\n      dup3\n        /* \"#utility.yul\":10004:10041   */\n      tag_173\n      jump\t// in\n    tag_298:\n        /* \"#utility.yul\":9991:10041   */\n      swap1\n      pop\n        /* \"#utility.yul\":9913:10047   */\n      swap2\n      swap1\n      pop\n      jump\t// out\n        /* \"#utility.yul\":10053:10200   */\n    tag_175:\n        /* \"#utility.yul\":10148:10193   */\n      tag_300\n        /* \"#utility.yul\":10187:10192   */\n      dup2\n        /* \"#utility.yul\":10148:10193   */\n      tag_174\n      jump\t// in\n    tag_300:\n        /* \"#utility.yul\":10143:10146   */\n      dup3\n        /* \"#utility.yul\":10136:10194   */\n      mstore\n        /* \"#utility.yul\":10053:10200   */\n      pop\n      pop\n      jump\t// out\n        /* \"#utility.yul\":10206:10554   */\n    tag_64:\n        /* \"#utility.yul\":10335:10339   */\n      0x00\n        /* \"#utility.yul\":10373:10375   */\n      0x40\n        /* \"#utility.yul\":10362:10371   */\n      dup3\n        /* \"#utility.yul\":10358:10376   */\n      add\n        /* \"#utility.yul\":10350:10376   */\n      swap1\n      pop\n        /* \"#utility.yul\":10386:10465   */\n      tag_302\n        /* \"#utility.yul\":10462:10463   */\n      0x00\n        /* \"#utility.yul\":10451:10460   */\n      dup4\n        /* \"#utility.yul\":10447:10464   */\n      add\n        /* \"#utility.yul\":10438:10444   */\n      dup6\n        /* \"#utility.yul\":10386:10465   */\n      tag_175\n      jump\t// in\n    tag_302:\n        /* \"#utility.yul\":10475:10547   */\n      tag_303\n        /* \"#utility.yul\":10543:10545   */\n      0x20\n        /* \"#utility.yul\":10532:10541   */\n      dup4\n        /* \"#utility.yul\":10528:10546   */\n      add\n        /* \"#utility.yul\":10519:10525   */\n      dup5\n        /* \"#utility.yul\":10475:10547   */\n      tag_152\n      jump\t// in\n    tag_303:\n        /* \"#utility.yul\":10206:10554   */\n      swap4\n      swap3\n      pop\n      pop\n      pop\n      jump\t// out\n        /* \"#utility.yul\":10560:10908   */\n    tag_69:\n        /* \"#utility.yul\":10689:10693   */\n      0x00\n        /* \"#utility.yul\":10727:10729   */\n      0x40\n        /* \"#utility.yul\":10716:10725   */\n      dup3\n        /* \"#utility.yul\":10712:10730   */\n      add\n        /* \"#utility.yul\":10704:10730   */\n      swap1\n      pop\n        /* \"#utility.yul\":10740:10811   */\n      tag_305\n        /* \"#utility.yul\":10808:10809   */\n      0x00\n        /* \"#utility.yul\":10797:10806   */\n      dup4\n        /* \"#utility.yul\":10793:10810   */\n      add\n        /* \"#utility.yul\":10784:10790   */\n      dup6\n        /* \"#utility.yul\":10740:10811   */\n      tag_152\n      jump\t// in\n    tag_305:\n        /* \"#utility.yul\":10821:10901   */\n      tag_306\n        /* \"#utility.yul\":10897:10899   */\n      0x20\n        /* \"#utility.yul\":10886:10895   */\n      dup4\n        /* \"#utility.yul\":10882:10900   */\n      add\n        /* \"#utility.yul\":10873:10879   */\n      dup5\n        /* \"#utility.yul\":10821:10901   */\n      tag_175\n      jump\t// in\n    tag_306:\n        /* \"#utility.yul\":10560:10908   */\n      swap4\n      swap3\n      pop\n      pop\n      pop\n      jump\t// out\n        /* \"#utility.yul\":10914:11142   */\n    tag_176:\n        /* \"#utility.yul\":11054:11088   */\n      0x4e6f20706f6f6c20776974682073756666696369656e742062616c616e636520\n        /* \"#utility.yul\":11050:11051   */\n      0x00\n        /* \"#utility.yul\":11042:11048   */\n      dup3\n        /* \"#utility.yul\":11038:11052   */\n      add\n        /* \"#utility.yul\":11031:11089   */\n      mstore\n        /* \"#utility.yul\":11123:11134   */\n      0x617661696c61626c650000000000000000000000000000000000000000000000\n        /* \"#utility.yul\":11118:11120   */\n      0x20\n        /* \"#utility.yul\":11110:11116   */\n      dup3\n        /* \"#utility.yul\":11106:11121   */\n      add\n        /* \"#utility.yul\":11099:11135   */\n      mstore\n        /* \"#utility.yul\":10914:11142   */\n      pop\n      jump\t// out\n        /* \"#utility.yul\":11148:11514   */\n    tag_177:\n        /* \"#utility.yul\":11290:11293   */\n      0x00\n        /* \"#utility.yul\":11311:11378   */\n      tag_309\n        /* \"#utility.yul\":11375:11377   */\n      0x29\n        /* \"#utility.yul\":11370:11373   */\n      dup4\n        /* \"#utility.yul\":11311:11378   */\n      tag_161\n      jump\t// in\n    tag_309:\n        /* \"#utility.yul\":11304:11378   */\n      swap2\n      pop\n        /* \"#utility.yul\":11387:11480   */\n      tag_310\n        /* \"#utility.yul\":11476:11479   */\n      dup3\n        /* \"#utility.yul\":11387:11480   */\n      tag_176\n      jump\t// in\n    tag_310:\n        /* \"#utility.yul\":11505:11507   */\n      0x40\n        /* \"#utility.yul\":11500:11503   */\n      dup3\n        /* \"#utility.yul\":11496:11508   */\n      add\n        /* \"#utility.yul\":11489:11508   */\n      swap1\n      pop\n        /* \"#utility.yul\":11148:11514   */\n      swap2\n      swap1\n      pop\n      jump\t// out\n        /* \"#utility.yul\":11520:11939   */\n    tag_71:\n        /* \"#utility.yul\":11686:11690   */\n      0x00\n        /* \"#utility.yul\":11724:11726   */\n      0x20\n        /* \"#utility.yul\":11713:11722   */\n      dup3\n        /* \"#utility.yul\":11709:11727   */\n      add\n        /* \"#utility.yul\":11701:11727   */\n      swap1\n      pop\n        /* \"#utility.yul\":11773:11782   */\n      dup2\n        /* \"#utility.yul\":11767:11771   */\n      dup2\n        /* \"#utility.yul\":11763:11783   */\n      sub\n        /* \"#utility.yul\":11759:11760   */\n      0x00\n        /* \"#utility.yul\":11748:11757   */\n      dup4\n        /* \"#utility.yul\":11744:11761   */\n      add\n        /* \"#utility.yul\":11737:11784   */\n      mstore\n        /* \"#utility.yul\":11801:11932   */\n      tag_312\n        /* \"#utility.yul\":11927:11931   */\n      dup2\n        /* \"#utility.yul\":11801:11932   */\n      tag_177\n      jump\t// in\n    tag_312:\n        /* \"#utility.yul\":11793:11932   */\n      swap1\n      pop\n        /* \"#utility.yul\":11520:11939   */\n      swap2\n      swap1\n      pop\n      jump\t// out\n        /* \"#utility.yul\":11945:12125   */\n    tag_75:\n        /* \"#utility.yul\":11993:12070   */\n      0x4e487b7100000000000000000000000000000000000000000000000000000000\n        /* \"#utility.yul\":11990:11991   */\n      0x00\n        /* \"#utility.yul\":11983:12071   */\n      mstore\n        /* \"#utility.yul\":12090:12094   */\n      0x41\n        /* \"#utility.yul\":12087:12088   */\n      0x04\n        /* \"#utility.yul\":12080:12095   */\n      mstore\n        /* \"#utility.yul\":12114:12118   */\n      0x24\n        /* \"#utility.yul\":12111:12112   */\n      0x00\n        /* \"#utility.yul\":12104:12119   */\n      revert\n        /* \"#utility.yul\":12131:12311   */\n    tag_178:\n        /* \"#utility.yul\":12179:12256   */\n      0x4e487b7100000000000000000000000000000000000000000000000000000000\n        /* \"#utility.yul\":12176:12177   */\n      0x00\n        /* \"#utility.yul\":12169:12257   */\n      mstore\n        /* \"#utility.yul\":12276:12280   */\n      0x11\n        /* \"#utility.yul\":12273:12274   */\n      0x04\n        /* \"#utility.yul\":12266:12281   */\n      mstore\n        /* \"#utility.yul\":12300:12304   */\n      0x24\n        /* \"#utility.yul\":12297:12298   */\n      0x00\n        /* \"#utility.yul\":12290:12305   */\n      revert\n        /* \"#utility.yul\":12317:12508   */\n    tag_95:\n        /* \"#utility.yul\":12357:12360   */\n      0x00\n        /* \"#utility.yul\":12376:12396   */\n      tag_316\n        /* \"#utility.yul\":12394:12395   */\n      dup3\n        /* \"#utility.yul\":12376:12396   */\n      tag_151\n      jump\t// in\n    tag_316:\n        /* \"#utility.yul\":12371:12396   */\n      swap2\n      pop\n        /* \"#utility.yul\":12410:12430   */\n      tag_317\n        /* \"#utility.yul\":12428:12429   */\n      dup4\n        /* \"#utility.yul\":12410:12430   */\n      tag_151\n      jump\t// in\n    tag_317:\n        /* \"#utility.yul\":12405:12430   */\n      swap3\n      pop\n        /* \"#utility.yul\":12453:12454   */\n      dup3\n        /* \"#utility.yul\":12450:12451   */\n      dup3\n        /* \"#utility.yul\":12446:12455   */\n      add\n        /* \"#utility.yul\":12439:12455   */\n      swap1\n      pop\n        /* \"#utility.yul\":12474:12477   */\n      dup1\n        /* \"#utility.yul\":12471:12472   */\n      dup3\n        /* \"#utility.yul\":12468:12478   */\n      gt\n        /* \"#utility.yul\":12465:12501   */\n      iszero\n      tag_318\n      jumpi\n        /* \"#utility.yul\":12481:12499   */\n      tag_319\n      tag_178\n      jump\t// in\n    tag_319:\n        /* \"#utility.yul\":12465:12501   */\n    tag_318:\n        /* \"#utility.yul\":12317:12508   */\n      swap3\n      swap2\n      pop\n      pop\n      jump\t// out\n        /* \"#utility.yul\":12514:12738   */\n    tag_179:\n        /* \"#utility.yul\":12654:12688   */\n      0x4465706f73697420616d6f756e74206d7573742062652065786163746c792031\n        /* \"#utility.yul\":12650:12651   */\n      0x00\n        /* \"#utility.yul\":12642:12648   */\n      dup3\n        /* \"#utility.yul\":12638:12652   */\n      add\n        /* \"#utility.yul\":12631:12689   */\n      mstore\n        /* \"#utility.yul\":12723:12730   */\n      0x3020585250000000000000000000000000000000000000000000000000000000\n        /* \"#utility.yul\":12718:12720   */\n      0x20\n        /* \"#utility.yul\":12710:12716   */\n      dup3\n        /* \"#utility.yul\":12706:12721   */\n      add\n        /* \"#utility.yul\":12699:12731   */\n      mstore\n        /* \"#utility.yul\":12514:12738   */\n      pop\n      jump\t// out\n        /* \"#utility.yul\":12744:13110   */\n    tag_180:\n        /* \"#utility.yul\":12886:12889   */\n      0x00\n        /* \"#utility.yul\":12907:12974   */\n      tag_322\n        /* \"#utility.yul\":12971:12973   */\n      0x25\n        /* \"#utility.yul\":12966:12969   */\n      dup4\n        /* \"#utility.yul\":12907:12974   */\n      tag_161\n      jump\t// in\n    tag_322:\n        /* \"#utility.yul\":12900:12974   */\n      swap2\n      pop\n        /* \"#utility.yul\":12983:13076   */\n      tag_323\n        /* \"#utility.yul\":13072:13075   */\n      dup3\n        /* \"#utility.yul\":12983:13076   */\n      tag_179\n      jump\t// in\n    tag_323:\n        /* \"#utility.yul\":13101:13103   */\n      0x40\n        /* \"#utility.yul\":13096:13099   */\n      dup3\n        /* \"#utility.yul\":13092:13104   */\n      add\n        /* \"#utility.yul\":13085:13104   */\n      swap1\n      pop\n        /* \"#utility.yul\":12744:13110   */\n      swap2\n      swap1\n      pop\n      jump\t// out\n        /* \"#utility.yul\":13116:13535   */\n    tag_101:\n        /* \"#utility.yul\":13282:13286   */\n      0x00\n        /* \"#utility.yul\":13320:13322   */\n      0x20\n        /* \"#utility.yul\":13309:13318   */\n      dup3\n        /* \"#utility.yul\":13305:13323   */\n      add\n        /* \"#utility.yul\":13297:13323   */\n      swap1\n      pop\n        /* \"#utility.yul\":13369:13378   */\n      dup2\n        /* \"#utility.yul\":13363:13367   */\n      dup2\n        /* \"#utility.yul\":13359:13379   */\n      sub\n        /* \"#utility.yul\":13355:13356   */\n      0x00\n        /* \"#utility.yul\":13344:13353   */\n      dup4\n        /* \"#utility.yul\":13340:13357   */\n      add\n        /* \"#utility.yul\":13333:13380   */\n      mstore\n        /* \"#utility.yul\":13397:13528   */\n      tag_325\n        /* \"#utility.yul\":13523:13527   */\n      dup2\n        /* \"#utility.yul\":13397:13528   */\n      tag_180\n      jump\t// in\n    tag_325:\n        /* \"#utility.yul\":13389:13528   */\n      swap1\n      pop\n        /* \"#utility.yul\":13116:13535   */\n      swap2\n      swap1\n      pop\n      jump\t// out\n        /* \"#utility.yul\":13541:14079   */\n    tag_105:\n        /* \"#utility.yul\":13709:13712   */\n      0x00\n        /* \"#utility.yul\":13724:13799   */\n      tag_327\n        /* \"#utility.yul\":13795:13798   */\n      dup3\n        /* \"#utility.yul\":13786:13792   */\n      dup7\n        /* \"#utility.yul\":13724:13799   */\n      tag_167\n      jump\t// in\n    tag_327:\n        /* \"#utility.yul\":13824:13826   */\n      0x20\n        /* \"#utility.yul\":13819:13822   */\n      dup3\n        /* \"#utility.yul\":13815:13827   */\n      add\n        /* \"#utility.yul\":13808:13827   */\n      swap2\n      pop\n        /* \"#utility.yul\":13837:13912   */\n      tag_328\n        /* \"#utility.yul\":13908:13911   */\n      dup3\n        /* \"#utility.yul\":13899:13905   */\n      dup6\n        /* \"#utility.yul\":13837:13912   */\n      tag_167\n      jump\t// in\n    tag_328:\n        /* \"#utility.yul\":13937:13939   */\n      0x20\n        /* \"#utility.yul\":13932:13935   */\n      dup3\n        /* \"#utility.yul\":13928:13940   */\n      add\n        /* \"#utility.yul\":13921:13940   */\n      swap2\n      pop\n        /* \"#utility.yul\":13950:14025   */\n      tag_329\n        /* \"#utility.yul\":14021:14024   */\n      dup3\n        /* \"#utility.yul\":14012:14018   */\n      dup5\n        /* \"#utility.yul\":13950:14025   */\n      tag_171\n      jump\t// in\n    tag_329:\n        /* \"#utility.yul\":14050:14052   */\n      0x14\n        /* \"#utility.yul\":14045:14048   */\n      dup3\n        /* \"#utility.yul\":14041:14053   */\n      add\n        /* \"#utility.yul\":14034:14053   */\n      swap2\n      pop\n        /* \"#utility.yul\":14070:14073   */\n      dup2\n        /* \"#utility.yul\":14063:14073   */\n      swap1\n      pop\n        /* \"#utility.yul\":13541:14079   */\n      swap5\n      swap4\n      pop\n      pop\n      pop\n      pop\n      jump\t// out\n        /* \"#utility.yul\":14085:14232   */\n    tag_181:\n        /* \"#utility.yul\":14186:14197   */\n      0x00\n        /* \"#utility.yul\":14223:14226   */\n      dup2\n        /* \"#utility.yul\":14208:14226   */\n      swap1\n      pop\n        /* \"#utility.yul\":14085:14232   */\n      swap3\n      swap2\n      pop\n      pop\n      jump\t// out\n        /* \"#utility.yul\":14238:14352   */\n    tag_182:\n      pop\n      jump\t// out\n        /* \"#utility.yul\":14358:14756   */\n    tag_183:\n        /* \"#utility.yul\":14517:14520   */\n      0x00\n        /* \"#utility.yul\":14538:14621   */\n      tag_333\n        /* \"#utility.yul\":14619:14620   */\n      0x00\n        /* \"#utility.yul\":14614:14617   */\n      dup4\n        /* \"#utility.yul\":14538:14621   */\n      tag_181\n      jump\t// in\n    tag_333:\n        /* \"#utility.yul\":14531:14621   */\n      swap2\n      pop\n        /* \"#utility.yul\":14630:14723   */\n      tag_334\n        /* \"#utility.yul\":14719:14722   */\n      dup3\n        /* \"#utility.yul\":14630:14723   */\n      tag_182\n      jump\t// in\n    tag_334:\n        /* \"#utility.yul\":14748:14749   */\n      0x00\n        /* \"#utility.yul\":14743:14746   */\n      dup3\n        /* \"#utility.yul\":14739:14750   */\n      add\n        /* \"#utility.yul\":14732:14750   */\n      swap1\n      pop\n        /* \"#utility.yul\":14358:14756   */\n      swap2\n      swap1\n      pop\n      jump\t// out\n        /* \"#utility.yul\":14762:15141   */\n    tag_111:\n        /* \"#utility.yul\":14946:14949   */\n      0x00\n        /* \"#utility.yul\":14968:15115   */\n      tag_336\n        /* \"#utility.yul\":15111:15114   */\n      dup3\n        /* \"#utility.yul\":14968:15115   */\n      tag_183\n      jump\t// in\n    tag_336:\n        /* \"#utility.yul\":14961:15115   */\n      swap2\n      pop\n        /* \"#utility.yul\":15132:15135   */\n      dup2\n        /* \"#utility.yul\":15125:15135   */\n      swap1\n      pop\n        /* \"#utility.yul\":14762:15141   */\n      swap2\n      swap1\n      pop\n      jump\t// out\n        /* \"#utility.yul\":15147:15320   */\n    tag_184:\n        /* \"#utility.yul\":15287:15312   */\n      0x5472616e7366657220746f20706f6f6c206661696c6564000000000000000000\n        /* \"#utility.yul\":15283:15284   */\n      0x00\n        /* \"#utility.yul\":15275:15281   */\n      dup3\n        /* \"#utility.yul\":15271:15285   */\n      add\n        /* \"#utility.yul\":15264:15313   */\n      mstore\n        /* \"#utility.yul\":15147:15320   */\n      pop\n      jump\t// out\n        /* \"#utility.yul\":15326:15692   */\n    tag_185:\n        /* \"#utility.yul\":15468:15471   */\n      0x00\n        /* \"#utility.yul\":15489:15556   */\n      tag_339\n        /* \"#utility.yul\":15553:15555   */\n      0x17\n        /* \"#utility.yul\":15548:15551   */\n      dup4\n        /* \"#utility.yul\":15489:15556   */\n      tag_161\n      jump\t// in\n    tag_339:\n        /* \"#utility.yul\":15482:15556   */\n      swap2\n      pop\n        /* \"#utility.yul\":15565:15658   */\n      tag_340\n        /* \"#utility.yul\":15654:15657   */\n      dup3\n        /* \"#utility.yul\":15565:15658   */\n      tag_184\n      jump\t// in\n    tag_340:\n        /* \"#utility.yul\":15683:15685   */\n      0x20\n        /* \"#utility.yul\":15678:15681   */\n      dup3\n        /* \"#utility.yul\":15674:15686   */\n      add\n        /* \"#utility.yul\":15667:15686   */\n      swap1\n      pop\n        /* \"#utility.yul\":15326:15692   */\n      swap2\n      swap1\n      pop\n      jump\t// out\n        /* \"#utility.yul\":15698:16117   */\n    tag_117:\n        /* \"#utility.yul\":15864:15868   */\n      0x00\n        /* \"#utility.yul\":15902:15904   */\n      0x20\n        /* \"#utility.yul\":15891:15900   */\n      dup3\n        /* \"#utility.yul\":15887:15905   */\n      add\n        /* \"#utility.yul\":15879:15905   */\n      swap1\n      pop\n        /* \"#utility.yul\":15951:15960   */\n      dup2\n        /* \"#utility.yul\":15945:15949   */\n      dup2\n        /* \"#utility.yul\":15941:15961   */\n      sub\n        /* \"#utility.yul\":15937:15938   */\n      0x00\n        /* \"#utility.yul\":15926:15935   */\n      dup4\n        /* \"#utility.yul\":15922:15939   */\n      add\n        /* \"#utility.yul\":15915:15962   */\n      mstore\n        /* \"#utility.yul\":15979:16110   */\n      tag_342\n        /* \"#utility.yul\":16105:16109   */\n      dup2\n        /* \"#utility.yul\":15979:16110   */\n      tag_185\n      jump\t// in\n    tag_342:\n        /* \"#utility.yul\":15971:16110   */\n      swap1\n      pop\n        /* \"#utility.yul\":15698:16117   */\n      swap2\n      swap1\n      pop\n      jump\t// out\n        /* \"#utility.yul\":16123:16455   */\n    tag_119:\n        /* \"#utility.yul\":16244:16248   */\n      0x00\n        /* \"#utility.yul\":16282:16284   */\n      0x40\n        /* \"#utility.yul\":16271:16280   */\n      dup3\n        /* \"#utility.yul\":16267:16285   */\n      add\n        /* \"#utility.yul\":16259:16285   */\n      swap1\n      pop\n        /* \"#utility.yul\":16295:16366   */\n      tag_344\n        /* \"#utility.yul\":16363:16364   */\n      0x00\n        /* \"#utility.yul\":16352:16361   */\n      dup4\n        /* \"#utility.yul\":16348:16365   */\n      add\n        /* \"#utility.yul\":16339:16345   */\n      dup6\n        /* \"#utility.yul\":16295:16366   */\n      tag_152\n      jump\t// in\n    tag_344:\n        /* \"#utility.yul\":16376:16448   */\n      tag_345\n        /* \"#utility.yul\":16444:16446   */\n      0x20\n        /* \"#utility.yul\":16433:16442   */\n      dup4\n        /* \"#utility.yul\":16429:16447   */\n      add\n        /* \"#utility.yul\":16420:16426   */\n      dup5\n        /* \"#utility.yul\":16376:16448   */\n      tag_160\n      jump\t// in\n    tag_345:\n        /* \"#utility.yul\":16123:16455   */\n      swap4\n      swap3\n      pop\n      pop\n      pop\n      jump\t// out\n        /* \"#utility.yul\":16461:16681   */\n    tag_186:\n        /* \"#utility.yul\":16601:16635   */\n      0x4f6e6c792061646d696e2063616e2063616c6c20746869732066756e6374696f\n        /* \"#utility.yul\":16597:16598   */\n      0x00\n        /* \"#utility.yul\":16589:16595   */\n      dup3\n        /* \"#utility.yul\":16585:16599   */\n      add\n        /* \"#utility.yul\":16578:16636   */\n      mstore\n        /* \"#utility.yul\":16670:16673   */\n      0x6e00000000000000000000000000000000000000000000000000000000000000\n        /* \"#utility.yul\":16665:16667   */\n      0x20\n        /* \"#utility.yul\":16657:16663   */\n      dup3\n        /* \"#utility.yul\":16653:16668   */\n      add\n        /* \"#utility.yul\":16646:16674   */\n      mstore\n        /* \"#utility.yul\":16461:16681   */\n      pop\n      jump\t// out\n        /* \"#utility.yul\":16687:17053   */\n    tag_187:\n        /* \"#utility.yul\":16829:16832   */\n      0x00\n        /* \"#utility.yul\":16850:16917   */\n      tag_348\n        /* \"#utility.yul\":16914:16916   */\n      0x21\n        /* \"#utility.yul\":16909:16912   */\n      dup4\n        /* \"#utility.yul\":16850:16917   */\n      tag_161\n      jump\t// in\n    tag_348:\n        /* \"#utility.yul\":16843:16917   */\n      swap2\n      pop\n        /* \"#utility.yul\":16926:17019   */\n      tag_349\n        /* \"#utility.yul\":17015:17018   */\n      dup3\n        /* \"#utility.yul\":16926:17019   */\n      tag_186\n      jump\t// in\n    tag_349:\n        /* \"#utility.yul\":17044:17046   */\n      0x40\n        /* \"#utility.yul\":17039:17042   */\n      dup3\n        /* \"#utility.yul\":17035:17047   */\n      add\n        /* \"#utility.yul\":17028:17047   */\n      swap1\n      pop\n        /* \"#utility.yul\":16687:17053   */\n      swap2\n      swap1\n      pop\n      jump\t// out\n        /* \"#utility.yul\":17059:17478   */\n    tag_123:\n        /* \"#utility.yul\":17225:17229   */\n      0x00\n        /* \"#utility.yul\":17263:17265   */\n      0x20\n        /* \"#utility.yul\":17252:17261   */\n      dup3\n        /* \"#utility.yul\":17248:17266   */\n      add\n        /* \"#utility.yul\":17240:17266   */\n      swap1\n      pop\n        /* \"#utility.yul\":17312:17321   */\n      dup2\n        /* \"#utility.yul\":17306:17310   */\n      dup2\n        /* \"#utility.yul\":17302:17322   */\n      sub\n        /* \"#utility.yul\":17298:17299   */\n      0x00\n        /* \"#utility.yul\":17287:17296   */\n      dup4\n        /* \"#utility.yul\":17283:17300   */\n      add\n        /* \"#utility.yul\":17276:17323   */\n      mstore\n        /* \"#utility.yul\":17340:17471   */\n      tag_351\n        /* \"#utility.yul\":17466:17470   */\n      dup2\n        /* \"#utility.yul\":17340:17471   */\n      tag_187\n      jump\t// in\n    tag_351:\n        /* \"#utility.yul\":17332:17471   */\n      swap1\n      pop\n        /* \"#utility.yul\":17059:17478   */\n      swap2\n      swap1\n      pop\n      jump\t// out\n        /* \"#utility.yul\":17484:17712   */\n    tag_188:\n        /* \"#utility.yul\":17624:17658   */\n      0x4e756d626572206f6620706f6f6c73206d757374206265206772656174657220\n        /* \"#utility.yul\":17620:17621   */\n      0x00\n        /* \"#utility.yul\":17612:17618   */\n      dup3\n        /* \"#utility.yul\":17608:17622   */\n      add\n        /* \"#utility.yul\":17601:17659   */\n      mstore\n        /* \"#utility.yul\":17693:17704   */\n      0x7468616e207a65726f0000000000000000000000000000000000000000000000\n        /* \"#utility.yul\":17688:17690   */\n      0x20\n        /* \"#utility.yul\":17680:17686   */\n      dup3\n        /* \"#utility.yul\":17676:17691   */\n      add\n        /* \"#utility.yul\":17669:17705   */\n      mstore\n        /* \"#utility.yul\":17484:17712   */\n      pop\n      jump\t// out\n        /* \"#utility.yul\":17718:18084   */\n    tag_189:\n        /* \"#utility.yul\":17860:17863   */\n      0x00\n        /* \"#utility.yul\":17881:17948   */\n      tag_354\n        /* \"#utility.yul\":17945:17947   */\n      0x29\n        /* \"#utility.yul\":17940:17943   */\n      dup4\n        /* \"#utility.yul\":17881:17948   */\n      tag_161\n      jump\t// in\n    tag_354:\n        /* \"#utility.yul\":17874:17948   */\n      swap2\n      pop\n        /* \"#utility.yul\":17957:18050   */\n      tag_355\n        /* \"#utility.yul\":18046:18049   */\n      dup3\n        /* \"#utility.yul\":17957:18050   */\n      tag_188\n      jump\t// in\n    tag_355:\n        /* \"#utility.yul\":18075:18077   */\n      0x40\n        /* \"#utility.yul\":18070:18073   */\n      dup3\n        /* \"#utility.yul\":18066:18078   */\n      add\n        /* \"#utility.yul\":18059:18078   */\n      swap1\n      pop\n        /* \"#utility.yul\":17718:18084   */\n      swap2\n      swap1\n      pop\n      jump\t// out\n        /* \"#utility.yul\":18090:18509   */\n    tag_127:\n        /* \"#utility.yul\":18256:18260   */\n      0x00\n        /* \"#utility.yul\":18294:18296   */\n      0x20\n        /* \"#utility.yul\":18283:18292   */\n      dup3\n        /* \"#utility.yul\":18279:18297   */\n      add\n        /* \"#utility.yul\":18271:18297   */\n      swap1\n      pop\n        /* \"#utility.yul\":18343:18352   */\n      dup2\n        /* \"#utility.yul\":18337:18341   */\n      dup2\n        /* \"#utility.yul\":18333:18353   */\n      sub\n        /* \"#utility.yul\":18329:18330   */\n      0x00\n        /* \"#utility.yul\":18318:18327   */\n      dup4\n        /* \"#utility.yul\":18314:18331   */\n      add\n        /* \"#utility.yul\":18307:18354   */\n      mstore\n        /* \"#utility.yul\":18371:18502   */\n      tag_357\n        /* \"#utility.yul\":18497:18501   */\n      dup2\n        /* \"#utility.yul\":18371:18502   */\n      tag_189\n      jump\t// in\n    tag_357:\n        /* \"#utility.yul\":18363:18502   */\n      swap1\n      pop\n        /* \"#utility.yul\":18090:18509   */\n      swap2\n      swap1\n      pop\n      jump\t// out\n    stop\n\n    sub_0: assembly {\n            /* \"pool.sol\":60:693  contract Pool {... */\n          mstore(0x40, 0x80)\n            /* \"pool.sol\":191:298  constructor(address _owner) {... */\n          callvalue\n          dup1\n          iszero\n          tag_1\n          jumpi\n          0x00\n          dup1\n          revert\n        tag_1:\n          pop\n          mload(0x40)\n          sub(codesize, bytecodeSize)\n          dup1\n          bytecodeSize\n          dup4\n          codecopy\n          dup2\n          dup2\n          add\n          0x40\n          mstore\n          dup2\n          add\n          swap1\n          tag_2\n          swap2\n          swap1\n          tag_3\n          jump\t// in\n        tag_2:\n            /* \"pool.sol\":238:244  _owner */\n          dup1\n            /* \"pool.sol\":230:235  owner */\n          0x00\n          dup1\n            /* \"pool.sol\":230:244  owner = _owner */\n          0x0100\n          exp\n          dup2\n          sload\n          dup2\n          0xffffffffffffffffffffffffffffffffffffffff\n          mul\n          not\n          and\n          swap1\n          dup4\n          0xffffffffffffffffffffffffffffffffffffffff\n          and\n          mul\n          or\n          swap1\n          sstore\n          pop\n            /* \"pool.sol\":191:298  constructor(address _owner) {... */\n          pop\n            /* \"pool.sol\":60:693  contract Pool {... */\n          jump(tag_6)\n            /* \"#utility.yul\":88:205   */\n        tag_8:\n            /* \"#utility.yul\":197:198   */\n          0x00\n            /* \"#utility.yul\":194:195   */\n          dup1\n            /* \"#utility.yul\":187:199   */\n          revert\n            /* \"#utility.yul\":334:460   */\n        tag_10:\n            /* \"#utility.yul\":371:378   */\n          0x00\n            /* \"#utility.yul\":411:453   */\n          0xffffffffffffffffffffffffffffffffffffffff\n            /* \"#utility.yul\":404:409   */\n          dup3\n            /* \"#utility.yul\":400:454   */\n          and\n            /* \"#utility.yul\":389:454   */\n          swap1\n          pop\n            /* \"#utility.yul\":334:460   */\n          swap2\n          swap1\n          pop\n          jump\t// out\n            /* \"#utility.yul\":466:562   */\n        tag_11:\n            /* \"#utility.yul\":503:510   */\n          0x00\n            /* \"#utility.yul\":532:556   */\n          tag_20\n            /* \"#utility.yul\":550:555   */\n          dup3\n            /* \"#utility.yul\":532:556   */\n          tag_10\n          jump\t// in\n        tag_20:\n            /* \"#utility.yul\":521:556   */\n          swap1\n          pop\n            /* \"#utility.yul\":466:562   */\n          swap2\n          swap1\n          pop\n          jump\t// out\n            /* \"#utility.yul\":568:690   */\n        tag_12:\n            /* \"#utility.yul\":641:665   */\n          tag_22\n            /* \"#utility.yul\":659:664   */\n          dup2\n            /* \"#utility.yul\":641:665   */\n          tag_11\n          jump\t// in\n        tag_22:\n            /* \"#utility.yul\":634:639   */\n          dup2\n            /* \"#utility.yul\":631:666   */\n          eq\n            /* \"#utility.yul\":621:684   */\n          tag_23\n          jumpi\n            /* \"#utility.yul\":680:681   */\n          0x00\n            /* \"#utility.yul\":677:678   */\n          dup1\n            /* \"#utility.yul\":670:682   */\n          revert\n            /* \"#utility.yul\":621:684   */\n        tag_23:\n            /* \"#utility.yul\":568:690   */\n          pop\n          jump\t// out\n            /* \"#utility.yul\":696:839   */\n        tag_13:\n            /* \"#utility.yul\":753:758   */\n          0x00\n            /* \"#utility.yul\":784:790   */\n          dup2\n            /* \"#utility.yul\":778:791   */\n          mload\n            /* \"#utility.yul\":769:791   */\n          swap1\n          pop\n            /* \"#utility.yul\":800:833   */\n          tag_25\n            /* \"#utility.yul\":827:832   */\n          dup2\n            /* \"#utility.yul\":800:833   */\n          tag_12\n          jump\t// in\n        tag_25:\n            /* \"#utility.yul\":696:839   */\n          swap3\n          swap2\n          pop\n          pop\n          jump\t// out\n            /* \"#utility.yul\":845:1196   */\n        tag_3:\n            /* \"#utility.yul\":915:921   */\n          0x00\n            /* \"#utility.yul\":964:966   */\n          0x20\n            /* \"#utility.yul\":952:961   */\n          dup3\n            /* \"#utility.yul\":943:950   */\n          dup5\n            /* \"#utility.yul\":939:962   */\n          sub\n            /* \"#utility.yul\":935:967   */\n          slt\n            /* \"#utility.yul\":932:1051   */\n          iszero\n          tag_27\n          jumpi\n            /* \"#utility.yul\":970:1049   */\n          tag_28\n          tag_8\n          jump\t// in\n        tag_28:\n            /* \"#utility.yul\":932:1051   */\n        tag_27:\n            /* \"#utility.yul\":1090:1091   */\n          0x00\n            /* \"#utility.yul\":1115:1179   */\n          tag_29\n            /* \"#utility.yul\":1171:1178   */\n          dup5\n            /* \"#utility.yul\":1162:1168   */\n          dup3\n            /* \"#utility.yul\":1151:1160   */\n          dup6\n            /* \"#utility.yul\":1147:1169   */\n          add\n            /* \"#utility.yul\":1115:1179   */\n          tag_13\n          jump\t// in\n        tag_29:\n            /* \"#utility.yul\":1105:1179   */\n          swap2\n          pop\n            /* \"#utility.yul\":1061:1189   */\n          pop\n            /* \"#utility.yul\":845:1196   */\n          swap3\n          swap2\n          pop\n          pop\n          jump\t// out\n            /* \"pool.sol\":60:693  contract Pool {... */\n        tag_6:\n          dataSize(sub_0)\n          dup1\n          dataOffset(sub_0)\n          0x00\n          codecopy\n          0x00\n          return\n        stop\n\n        sub_0: assembly {\n                /* \"pool.sol\":60:693  contract Pool {... */\n              mstore(0x40, 0x80)\n              jumpi(tag_1, lt(calldatasize, 0x04))\n              shr(0xe0, calldataload(0x00))\n              dup1\n              0x8da5cb5b\n              eq\n              tag_3\n              jumpi\n              dup1\n              0xf3fef3a3\n              eq\n              tag_4\n              jumpi\n              jump(tag_2)\n            tag_1:\n              jumpi(tag_2, calldatasize)\n              stop\n            tag_2:\n              0x00\n              dup1\n              revert\n                /* \"pool.sol\":81:101  address public owner */\n            tag_3:\n              callvalue\n              dup1\n              iszero\n              tag_7\n              jumpi\n              0x00\n              dup1\n              revert\n            tag_7:\n              pop\n              tag_8\n              tag_9\n              jump\t// in\n            tag_8:\n              mload(0x40)\n              tag_10\n              swap2\n              swap1\n              tag_11\n              jump\t// in\n            tag_10:\n              mload(0x40)\n              dup1\n              swap2\n              sub\n              swap1\n              return\n                /* \"pool.sol\":403:690  function withdraw(address to, uint256 amount) external {... */\n            tag_4:\n              callvalue\n              dup1\n              iszero\n              tag_12\n              jumpi\n              0x00\n              dup1\n              revert\n            tag_12:\n              pop\n              tag_13\n              0x04\n              dup1\n              calldatasize\n              sub\n              dup2\n              add\n              swap1\n              tag_14\n              swap2\n              swap1\n              tag_15\n              jump\t// in\n            tag_14:\n              tag_16\n              jump\t// in\n            tag_13:\n              stop\n                /* \"pool.sol\":81:101  address public owner */\n            tag_9:\n              0x00\n              dup1\n              sload\n              swap1\n              0x0100\n              exp\n              swap1\n              div\n              0xffffffffffffffffffffffffffffffffffffffff\n              and\n              dup2\n              jump\t// out\n                /* \"pool.sol\":403:690  function withdraw(address to, uint256 amount) external {... */\n            tag_16:\n                /* \"pool.sol\":491:496  owner */\n              0x00\n              dup1\n              sload\n              swap1\n              0x0100\n              exp\n              swap1\n              div\n              0xffffffffffffffffffffffffffffffffffffffff\n              and\n                /* \"pool.sol\":477:496  msg.sender == owner */\n              0xffffffffffffffffffffffffffffffffffffffff\n              and\n                /* \"pool.sol\":477:487  msg.sender */\n              caller\n                /* \"pool.sol\":477:496  msg.sender == owner */\n              0xffffffffffffffffffffffffffffffffffffffff\n              and\n              eq\n                /* \"pool.sol\":469:524  require(msg.sender == owner, \"Only owner can withdraw\") */\n              tag_18\n              jumpi\n              mload(0x40)\n              0x08c379a000000000000000000000000000000000000000000000000000000000\n              dup2\n              mstore\n              0x04\n              add\n              tag_19\n              swap1\n              tag_20\n              jump\t// in\n            tag_19:\n              mload(0x40)\n              dup1\n              swap2\n              sub\n              swap1\n              revert\n            tag_18:\n                /* \"pool.sol\":553:574  address(this).balance */\n              selfbalance\n                /* \"pool.sol\":543:549  amount */\n              dup2\n                /* \"pool.sol\":543:574  amount <= address(this).balance */\n              gt\n              iszero\n                /* \"pool.sol\":535:607  require(amount <= address(this).balance, \"Insufficient balance in pool\") */\n              tag_21\n              jumpi\n              mload(0x40)\n              0x08c379a000000000000000000000000000000000000000000000000000000000\n              dup2\n              mstore\n              0x04\n              add\n              tag_22\n              swap1\n              tag_23\n              jump\t// in\n            tag_22:\n              mload(0x40)\n              dup1\n              swap2\n              sub\n              swap1\n              revert\n            tag_21:\n                /* \"pool.sol\":626:628  to */\n              dup2\n                /* \"pool.sol\":618:638  payable(to).transfer */\n              0xffffffffffffffffffffffffffffffffffffffff\n              and\n                /* \"pool.sol\":618:646  payable(to).transfer(amount) */\n              0x08fc\n                /* \"pool.sol\":639:645  amount */\n              dup3\n                /* \"pool.sol\":618:646  payable(to).transfer(amount) */\n              swap1\n              dup2\n              iszero\n              mul\n              swap1\n              mload(0x40)\n              0x00\n              mload(0x40)\n              dup1\n              dup4\n              sub\n              dup2\n              dup6\n              dup9\n              dup9\n              call\n              swap4\n              pop\n              pop\n              pop\n              pop\n              iszero\n              dup1\n              iszero\n              tag_25\n              jumpi\n              returndatasize\n              0x00\n              dup1\n              returndatacopy\n              revert(0x00, returndatasize)\n            tag_25:\n              pop\n                /* \"pool.sol\":671:673  to */\n              dup2\n                /* \"pool.sol\":662:682  Withdraw(to, amount) */\n              0xffffffffffffffffffffffffffffffffffffffff\n              and\n              0x884edad9ce6fa2440d8a54cc123490eb96d2768479d49ff9c7366125a9424364\n                /* \"pool.sol\":675:681  amount */\n              dup3\n                /* \"pool.sol\":662:682  Withdraw(to, amount) */\n              mload(0x40)\n              tag_26\n              swap2\n              swap1\n              tag_27\n              jump\t// in\n            tag_26:\n              mload(0x40)\n              dup1\n              swap2\n              sub\n              swap1\n              log2\n                /* \"pool.sol\":403:690  function withdraw(address to, uint256 amount) external {... */\n              pop\n              pop\n              jump\t// out\n                /* \"#utility.yul\":7:133   */\n            tag_28:\n                /* \"#utility.yul\":44:51   */\n              0x00\n                /* \"#utility.yul\":84:126   */\n              0xffffffffffffffffffffffffffffffffffffffff\n                /* \"#utility.yul\":77:82   */\n              dup3\n                /* \"#utility.yul\":73:127   */\n              and\n                /* \"#utility.yul\":62:127   */\n              swap1\n              pop\n                /* \"#utility.yul\":7:133   */\n              swap2\n              swap1\n              pop\n              jump\t// out\n                /* \"#utility.yul\":139:235   */\n            tag_29:\n                /* \"#utility.yul\":176:183   */\n              0x00\n                /* \"#utility.yul\":205:229   */\n              tag_48\n                /* \"#utility.yul\":223:228   */\n              dup3\n                /* \"#utility.yul\":205:229   */\n              tag_28\n              jump\t// in\n            tag_48:\n                /* \"#utility.yul\":194:229   */\n              swap1\n              pop\n                /* \"#utility.yul\":139:235   */\n              swap2\n              swap1\n              pop\n              jump\t// out\n                /* \"#utility.yul\":241:359   */\n            tag_30:\n                /* \"#utility.yul\":328:352   */\n              tag_50\n                /* \"#utility.yul\":346:351   */\n              dup2\n                /* \"#utility.yul\":328:352   */\n              tag_29\n              jump\t// in\n            tag_50:\n                /* \"#utility.yul\":323:326   */\n              dup3\n                /* \"#utility.yul\":316:353   */\n              mstore\n                /* \"#utility.yul\":241:359   */\n              pop\n              pop\n              jump\t// out\n                /* \"#utility.yul\":365:587   */\n            tag_11:\n                /* \"#utility.yul\":458:462   */\n              0x00\n                /* \"#utility.yul\":496:498   */\n              0x20\n                /* \"#utility.yul\":485:494   */\n              dup3\n                /* \"#utility.yul\":481:499   */\n              add\n                /* \"#utility.yul\":473:499   */\n              swap1\n              pop\n                /* \"#utility.yul\":509:580   */\n              tag_52\n                /* \"#utility.yul\":577:578   */\n              0x00\n                /* \"#utility.yul\":566:575   */\n              dup4\n                /* \"#utility.yul\":562:579   */\n              add\n                /* \"#utility.yul\":553:559   */\n              dup5\n                /* \"#utility.yul\":509:580   */\n              tag_30\n              jump\t// in\n            tag_52:\n                /* \"#utility.yul\":365:587   */\n              swap3\n              swap2\n              pop\n              pop\n              jump\t// out\n                /* \"#utility.yul\":674:791   */\n            tag_32:\n                /* \"#utility.yul\":783:784   */\n              0x00\n                /* \"#utility.yul\":780:781   */\n              dup1\n                /* \"#utility.yul\":773:785   */\n              revert\n                /* \"#utility.yul\":920:1042   */\n            tag_34:\n                /* \"#utility.yul\":993:1017   */\n              tag_57\n                /* \"#utility.yul\":1011:1016   */\n              dup2\n                /* \"#utility.yul\":993:1017   */\n              tag_29\n              jump\t// in\n            tag_57:\n                /* \"#utility.yul\":986:991   */\n              dup2\n                /* \"#utility.yul\":983:1018   */\n              eq\n                /* \"#utility.yul\":973:1036   */\n              tag_58\n              jumpi\n                /* \"#utility.yul\":1032:1033   */\n              0x00\n                /* \"#utility.yul\":1029:1030   */\n              dup1\n                /* \"#utility.yul\":1022:1034   */\n              revert\n                /* \"#utility.yul\":973:1036   */\n            tag_58:\n                /* \"#utility.yul\":920:1042   */\n              pop\n              jump\t// out\n                /* \"#utility.yul\":1048:1187   */\n            tag_35:\n                /* \"#utility.yul\":1094:1099   */\n              0x00\n                /* \"#utility.yul\":1132:1138   */\n              dup2\n                /* \"#utility.yul\":1119:1139   */\n              calldataload\n                /* \"#utility.yul\":1110:1139   */\n              swap1\n              pop\n                /* \"#utility.yul\":1148:1181   */\n              tag_60\n                /* \"#utility.yul\":1175:1180   */\n              dup2\n                /* \"#utility.yul\":1148:1181   */\n              tag_34\n              jump\t// in\n            tag_60:\n                /* \"#utility.yul\":1048:1187   */\n              swap3\n              swap2\n              pop\n              pop\n              jump\t// out\n                /* \"#utility.yul\":1193:1270   */\n            tag_36:\n                /* \"#utility.yul\":1230:1237   */\n              0x00\n                /* \"#utility.yul\":1259:1264   */\n              dup2\n                /* \"#utility.yul\":1248:1264   */\n              swap1\n              pop\n                /* \"#utility.yul\":1193:1270   */\n              swap2\n              swap1\n              pop\n              jump\t// out\n                /* \"#utility.yul\":1276:1398   */\n            tag_37:\n                /* \"#utility.yul\":1349:1373   */\n              tag_63\n                /* \"#utility.yul\":1367:1372   */\n              dup2\n                /* \"#utility.yul\":1349:1373   */\n              tag_36\n              jump\t// in\n            tag_63:\n                /* \"#utility.yul\":1342:1347   */\n              dup2\n                /* \"#utility.yul\":1339:1374   */\n              eq\n                /* \"#utility.yul\":1329:1392   */\n              tag_64\n              jumpi\n                /* \"#utility.yul\":1388:1389   */\n              0x00\n                /* \"#utility.yul\":1385:1386   */\n              dup1\n                /* \"#utility.yul\":1378:1390   */\n              revert\n                /* \"#utility.yul\":1329:1392   */\n            tag_64:\n                /* \"#utility.yul\":1276:1398   */\n              pop\n              jump\t// out\n                /* \"#utility.yul\":1404:1543   */\n            tag_38:\n                /* \"#utility.yul\":1450:1455   */\n              0x00\n                /* \"#utility.yul\":1488:1494   */\n              dup2\n                /* \"#utility.yul\":1475:1495   */\n              calldataload\n                /* \"#utility.yul\":1466:1495   */\n              swap1\n              pop\n                /* \"#utility.yul\":1504:1537   */\n              tag_66\n                /* \"#utility.yul\":1531:1536   */\n              dup2\n                /* \"#utility.yul\":1504:1537   */\n              tag_37\n              jump\t// in\n            tag_66:\n                /* \"#utility.yul\":1404:1543   */\n              swap3\n              swap2\n              pop\n              pop\n              jump\t// out\n                /* \"#utility.yul\":1549:2023   */\n            tag_15:\n                /* \"#utility.yul\":1617:1623   */\n              0x00\n                /* \"#utility.yul\":1625:1631   */\n              dup1\n                /* \"#utility.yul\":1674:1676   */\n              0x40\n                /* \"#utility.yul\":1662:1671   */\n              dup4\n                /* \"#utility.yul\":1653:1660   */\n              dup6\n                /* \"#utility.yul\":1649:1672   */\n              sub\n                /* \"#utility.yul\":1645:1677   */\n              slt\n                /* \"#utility.yul\":1642:1761   */\n              iszero\n              tag_68\n              jumpi\n                /* \"#utility.yul\":1680:1759   */\n              tag_69\n              tag_32\n              jump\t// in\n            tag_69:\n                /* \"#utility.yul\":1642:1761   */\n            tag_68:\n                /* \"#utility.yul\":1800:1801   */\n              0x00\n                /* \"#utility.yul\":1825:1878   */\n              tag_70\n                /* \"#utility.yul\":1870:1877   */\n              dup6\n                /* \"#utility.yul\":1861:1867   */\n              dup3\n                /* \"#utility.yul\":1850:1859   */\n              dup7\n                /* \"#utility.yul\":1846:1868   */\n              add\n                /* \"#utility.yul\":1825:1878   */\n              tag_35\n              jump\t// in\n            tag_70:\n                /* \"#utility.yul\":1815:1878   */\n              swap3\n              pop\n                /* \"#utility.yul\":1771:1888   */\n              pop\n                /* \"#utility.yul\":1927:1929   */\n              0x20\n                /* \"#utility.yul\":1953:2006   */\n              tag_71\n                /* \"#utility.yul\":1998:2005   */\n              dup6\n                /* \"#utility.yul\":1989:1995   */\n              dup3\n                /* \"#utility.yul\":1978:1987   */\n              dup7\n                /* \"#utility.yul\":1974:1996   */\n              add\n                /* \"#utility.yul\":1953:2006   */\n              tag_38\n              jump\t// in\n            tag_71:\n                /* \"#utility.yul\":1943:2006   */\n              swap2\n              pop\n                /* \"#utility.yul\":1898:2016   */\n              pop\n                /* \"#utility.yul\":1549:2023   */\n              swap3\n              pop\n              swap3\n              swap1\n              pop\n              jump\t// out\n                /* \"#utility.yul\":2029:2198   */\n            tag_39:\n                /* \"#utility.yul\":2113:2124   */\n              0x00\n                /* \"#utility.yul\":2147:2153   */\n              dup3\n                /* \"#utility.yul\":2142:2145   */\n              dup3\n                /* \"#utility.yul\":2135:2154   */\n              mstore\n                /* \"#utility.yul\":2187:2191   */\n              0x20\n                /* \"#utility.yul\":2182:2185   */\n              dup3\n                /* \"#utility.yul\":2178:2192   */\n              add\n                /* \"#utility.yul\":2163:2192   */\n              swap1\n              pop\n                /* \"#utility.yul\":2029:2198   */\n              swap3\n              swap2\n              pop\n              pop\n              jump\t// out\n                /* \"#utility.yul\":2204:2377   */\n            tag_40:\n                /* \"#utility.yul\":2344:2369   */\n              0x4f6e6c79206f776e65722063616e207769746864726177000000000000000000\n                /* \"#utility.yul\":2340:2341   */\n              0x00\n                /* \"#utility.yul\":2332:2338   */\n              dup3\n                /* \"#utility.yul\":2328:2342   */\n              add\n                /* \"#utility.yul\":2321:2370   */\n              mstore\n                /* \"#utility.yul\":2204:2377   */\n              pop\n              jump\t// out\n                /* \"#utility.yul\":2383:2749   */\n            tag_41:\n                /* \"#utility.yul\":2525:2528   */\n              0x00\n                /* \"#utility.yul\":2546:2613   */\n              tag_75\n                /* \"#utility.yul\":2610:2612   */\n              0x17\n                /* \"#utility.yul\":2605:2608   */\n              dup4\n                /* \"#utility.yul\":2546:2613   */\n              tag_39\n              jump\t// in\n            tag_75:\n                /* \"#utility.yul\":2539:2613   */\n              swap2\n              pop\n                /* \"#utility.yul\":2622:2715   */\n              tag_76\n                /* \"#utility.yul\":2711:2714   */\n              dup3\n                /* \"#utility.yul\":2622:2715   */\n              tag_40\n              jump\t// in\n            tag_76:\n                /* \"#utility.yul\":2740:2742   */\n              0x20\n                /* \"#utility.yul\":2735:2738   */\n              dup3\n                /* \"#utility.yul\":2731:2743   */\n              add\n                /* \"#utility.yul\":2724:2743   */\n              swap1\n              pop\n                /* \"#utility.yul\":2383:2749   */\n              swap2\n              swap1\n              pop\n              jump\t// out\n                /* \"#utility.yul\":2755:3174   */\n            tag_20:\n                /* \"#utility.yul\":2921:2925   */\n              0x00\n                /* \"#utility.yul\":2959:2961   */\n              0x20\n                /* \"#utility.yul\":2948:2957   */\n              dup3\n                /* \"#utility.yul\":2944:2962   */\n              add\n                /* \"#utility.yul\":2936:2962   */\n              swap1\n              pop\n                /* \"#utility.yul\":3008:3017   */\n              dup2\n                /* \"#utility.yul\":3002:3006   */\n              dup2\n                /* \"#utility.yul\":2998:3018   */\n              sub\n                /* \"#utility.yul\":2994:2995   */\n              0x00\n                /* \"#utility.yul\":2983:2992   */\n              dup4\n                /* \"#utility.yul\":2979:2996   */\n              add\n                /* \"#utility.yul\":2972:3019   */\n              mstore\n                /* \"#utility.yul\":3036:3167   */\n              tag_78\n                /* \"#utility.yul\":3162:3166   */\n              dup2\n                /* \"#utility.yul\":3036:3167   */\n              tag_41\n              jump\t// in\n            tag_78:\n                /* \"#utility.yul\":3028:3167   */\n              swap1\n              pop\n                /* \"#utility.yul\":2755:3174   */\n              swap2\n              swap1\n              pop\n              jump\t// out\n                /* \"#utility.yul\":3180:3358   */\n            tag_42:\n                /* \"#utility.yul\":3320:3350   */\n              0x496e73756666696369656e742062616c616e636520696e20706f6f6c00000000\n                /* \"#utility.yul\":3316:3317   */\n              0x00\n                /* \"#utility.yul\":3308:3314   */\n              dup3\n                /* \"#utility.yul\":3304:3318   */\n              add\n                /* \"#utility.yul\":3297:3351   */\n              mstore\n                /* \"#utility.yul\":3180:3358   */\n              pop\n              jump\t// out\n                /* \"#utility.yul\":3364:3730   */\n            tag_43:\n                /* \"#utility.yul\":3506:3509   */\n              0x00\n                /* \"#utility.yul\":3527:3594   */\n              tag_81\n                /* \"#utility.yul\":3591:3593   */\n              0x1c\n                /* \"#utility.yul\":3586:3589   */\n              dup4\n                /* \"#utility.yul\":3527:3594   */\n              tag_39\n              jump\t// in\n            tag_81:\n                /* \"#utility.yul\":3520:3594   */\n              swap2\n              pop\n                /* \"#utility.yul\":3603:3696   */\n              tag_82\n                /* \"#utility.yul\":3692:3695   */\n              dup3\n                /* \"#utility.yul\":3603:3696   */\n              tag_42\n              jump\t// in\n            tag_82:\n                /* \"#utility.yul\":3721:3723   */\n              0x20\n                /* \"#utility.yul\":3716:3719   */\n              dup3\n                /* \"#utility.yul\":3712:3724   */\n              add\n                /* \"#utility.yul\":3705:3724   */\n              swap1\n              pop\n                /* \"#utility.yul\":3364:3730   */\n              swap2\n              swap1\n              pop\n              jump\t// out\n                /* \"#utility.yul\":3736:4155   */\n            tag_23:\n                /* \"#utility.yul\":3902:3906   */\n              0x00\n                /* \"#utility.yul\":3940:3942   */\n              0x20\n                /* \"#utility.yul\":3929:3938   */\n              dup3\n                /* \"#utility.yul\":3925:3943   */\n              add\n                /* \"#utility.yul\":3917:3943   */\n              swap1\n              pop\n                /* \"#utility.yul\":3989:3998   */\n              dup2\n                /* \"#utility.yul\":3983:3987   */\n              dup2\n                /* \"#utility.yul\":3979:3999   */\n              sub\n                /* \"#utility.yul\":3975:3976   */\n              0x00\n                /* \"#utility.yul\":3964:3973   */\n              dup4\n                /* \"#utility.yul\":3960:3977   */\n              add\n                /* \"#utility.yul\":3953:4000   */\n              mstore\n                /* \"#utility.yul\":4017:4148   */\n              tag_84\n                /* \"#utility.yul\":4143:4147   */\n              dup2\n                /* \"#utility.yul\":4017:4148   */\n              tag_43\n              jump\t// in\n            tag_84:\n                /* \"#utility.yul\":4009:4148   */\n              swap1\n              pop\n                /* \"#utility.yul\":3736:4155   */\n              swap2\n              swap1\n              pop\n              jump\t// out\n                /* \"#utility.yul\":4161:4279   */\n            tag_44:\n                /* \"#utility.yul\":4248:4272   */\n              tag_86\n                /* \"#utility.yul\":4266:4271   */\n              dup2\n                /* \"#utility.yul\":4248:4272   */\n              tag_36\n              jump\t// in\n            tag_86:\n                /* \"#utility.yul\":4243:4246   */\n              dup3\n                /* \"#utility.yul\":4236:4273   */\n              mstore\n                /* \"#utility.yul\":4161:4279   */\n              pop\n              pop\n              jump\t// out\n                /* \"#utility.yul\":4285:4507   */\n            tag_27:\n                /* \"#utility.yul\":4378:4382   */\n              0x00\n                /* \"#utility.yul\":4416:4418   */\n              0x20\n                /* \"#utility.yul\":4405:4414   */\n              dup3\n                /* \"#utility.yul\":4401:4419   */\n              add\n                /* \"#utility.yul\":4393:4419   */\n              swap1\n              pop\n                /* \"#utility.yul\":4429:4500   */\n              tag_88\n                /* \"#utility.yul\":4497:4498   */\n              0x00\n                /* \"#utility.yul\":4486:4495   */\n              dup4\n                /* \"#utility.yul\":4482:4499   */\n              add\n                /* \"#utility.yul\":4473:4479   */\n              dup5\n                /* \"#utility.yul\":4429:4500   */\n              tag_44\n              jump\t// in\n            tag_88:\n                /* \"#utility.yul\":4285:4507   */\n              swap3\n              swap2\n              pop\n              pop\n              jump\t// out\n\n            auxdata: 0xa264697066735822122054ef3b44197afbc74c4552be2f3164c2a30a70917ad8f2f234dd36ceb8c86cda64736f6c634300081a0033\n        }\n    }\n\n    auxdata: 0xa2646970667358221220643245b2095cdd941f67eeb93dd503721b94e410ac8eb06a679f44057ec8bfc864736f6c634300081a0033\n}\n",
				"bytecode": {
					"linkReferences": {},
					"object": "6080604052348015600e575f80fd5b503360015f6101000a81548173ffffffffffffffffffffffffffffffffffffffff021916908373ffffffffffffffffffffffffffffffffffffffff1602179055506118cf8061005c5f395ff3fe60806040526004361061006f575f3560e01c8063ac4afa381161004d578063ac4afa38146100ef578063d0e30db01461012b578063e487607814610135578063f851a4401461015d5761006f565b806351cff8d914610073578063673a2a1f1461009b5780637c8244d7146100c5575b5f80fd5b34801561007e575f80fd5b5061009960048036038101906100949190610aa5565b610187565b005b3480156100a6575f80fd5b506100af61046c565b6040516100bc9190610b98565b60405180910390f35b3480156100d0575f80fd5b506100d9610569565b6040516100e69190610bd0565b60405180910390f35b3480156100fa575f80fd5b5061011560048036038101906101109190610c13565b610609565b6040516101229190610c99565b60405180910390f35b610133610643565b005b348015610140575f80fd5b5061015b60048036038101906101569190610c13565b610852565b005b348015610168575f80fd5b50610171610a15565b60405161017e9190610cc1565b60405180910390f35b5f8080549050116101cd576040517f08c379a00000000000000000000000000000000000000000000000000000000081526004016101c490610d34565b60405180910390fd5b5f73ffffffffffffffffffffffffffffffffffffffff168173ffffffffffffffffffffffffffffffffffffffff160361023b576040517f08c379a000000000000000000000000000000000000000000000000000000000815260040161023290610d9c565b60405180910390fd5b5f678ac7230489e8000090505f808054905090505f5b8181101561042d575f82424433856040516020016102729493929190610e1f565b604051602081830303815290604052805190602001205f1c6102949190610e99565b90505f8082815481106102aa576102a9610ec9565b5b905f5260205f20015f9054906101000a900473ffffffffffffffffffffffffffffffffffffffff1690505f8173ffffffffffffffffffffffffffffffffffffffff163190508673ffffffffffffffffffffffffffffffffffffffff168273ffffffffffffffffffffffffffffffffffffffff167fd764f2dab73cedbd6d5fb479c647f3746632f050b1eadf2df110132376c1ad5c8360405161034c9190610bd0565b60405180910390a385811061041d578173ffffffffffffffffffffffffffffffffffffffff1663f3fef3a388886040518363ffffffff1660e01b8152600401610396929190610f27565b5f604051808303815f87803b1580156103ad575f80fd5b505af11580156103bf573d5f803e3d5ffd5b505050508673ffffffffffffffffffffffffffffffffffffffff167e1a143d5b175701cb3246058ffac3d63945192075a926ff73a19930f09d587a878460405161040a929190610f4e565b60405180910390a2505050505050610469565b5050508080600101915050610251565b506040517f08c379a000000000000000000000000000000000000000000000000000000000815260040161046090610fe5565b60405180910390fd5b50565b60605f808054905067ffffffffffffffff81111561048d5761048c611003565b5b6040519080825280602002602001820160405280156104bb5781602001602082028036833780820191505090505b5090505f5b5f80549050811015610561575f81815481106104df576104de610ec9565b5b905f5260205f20015f9054906101000a900473ffffffffffffffffffffffffffffffffffffffff1682828151811061051a57610519610ec9565b5b602002602001019073ffffffffffffffffffffffffffffffffffffffff16908173ffffffffffffffffffffffffffffffffffffffff168152505080806001019150506104c0565b508091505090565b5f805f90505f600a5f805490501061058257600a610588565b5f805490505b90505f5b81811015610600575f81815481106105a7576105a6610ec9565b5b905f5260205f20015f9054906101000a900473ffffffffffffffffffffffffffffffffffffffff1673ffffffffffffffffffffffffffffffffffffffff1631836105f1919061105d565b9250808060010191505061058c565b50819250505090565b5f8181548110610617575f80fd5b905f5260205f20015f915054906101000a900473ffffffffffffffffffffffffffffffffffffffff1681565b5f678ac7230489e800009050803414610691576040517f08c379a000000000000000000000000000000000000000000000000000000000815260040161068890611100565b60405180910390fd5b5f8080549050116106d7576040517f08c379a00000000000000000000000000000000000000000000000000000000081526004016106ce90610d34565b60405180910390fd5b5f80805490504244336040516020016106f29392919061111e565b604051602081830303815290604052805190602001205f1c6107149190610e99565b90505f80828154811061072a57610729610ec9565b5b905f5260205f20015f9054906101000a900473ffffffffffffffffffffffffffffffffffffffff1690505f8173ffffffffffffffffffffffffffffffffffffffff163460405161077990611187565b5f6040518083038185875af1925050503d805f81146107b3576040519150601f19603f3d011682016040523d82523d5f602084013e6107b8565b606091505b50509050806107fc576040517f08c379a00000000000000000000000000000000000000000000000000000000081526004016107f3906111e5565b60405180910390fd5b3373ffffffffffffffffffffffffffffffffffffffff167fe31c7b8d08ee7db0afa68782e1028ef92305caeea8626633ad44d413e30f6b2f3484604051610844929190611203565b60405180910390a250505050565b60015f9054906101000a900473ffffffffffffffffffffffffffffffffffffffff1673ffffffffffffffffffffffffffffffffffffffff163373ffffffffffffffffffffffffffffffffffffffff16146108e1576040517f08c379a00000000000000000000000000000000000000000000000000000000081526004016108d89061129a565b60405180910390fd5b5f8111610923576040517f08c379a000000000000000000000000000000000000000000000000000000000815260040161091a90611328565b60405180910390fd5b5f5b81811015610a11575f3060405161093b90610a3a565b6109459190610cc1565b604051809103905ff08015801561095e573d5f803e3d5ffd5b5090505f81908060018154018082558091505060019003905f5260205f20015f9091909190916101000a81548173ffffffffffffffffffffffffffffffffffffffff021916908373ffffffffffffffffffffffffffffffffffffffff1602179055508073ffffffffffffffffffffffffffffffffffffffff167f83a48fbcfc991335314e74d0496aab6a1987e992ddc85dddbcc4d6dd6ef2e9fc60405160405180910390a2508080600101915050610925565b5050565b60015f9054906101000a900473ffffffffffffffffffffffffffffffffffffffff1681565b6105538061134783390190565b5f80fd5b5f73ffffffffffffffffffffffffffffffffffffffff82169050919050565b5f610a7482610a4b565b9050919050565b610a8481610a6a565b8114610a8e575f80fd5b50565b5f81359050610a9f81610a7b565b92915050565b5f60208284031215610aba57610ab9610a47565b5b5f610ac784828501610a91565b91505092915050565b5f81519050919050565b5f82825260208201905092915050565b5f819050602082019050919050565b5f610b0382610a4b565b9050919050565b610b1381610af9565b82525050565b5f610b248383610b0a565b60208301905092915050565b5f602082019050919050565b5f610b4682610ad0565b610b508185610ada565b9350610b5b83610aea565b805f5b83811015610b8b578151610b728882610b19565b9750610b7d83610b30565b925050600181019050610b5e565b5085935050505092915050565b5f6020820190508181035f830152610bb08184610b3c565b905092915050565b5f819050919050565b610bca81610bb8565b82525050565b5f602082019050610be35f830184610bc1565b92915050565b610bf281610bb8565b8114610bfc575f80fd5b50565b5f81359050610c0d81610be9565b92915050565b5f60208284031215610c2857610c27610a47565b5b5f610c3584828501610bff565b91505092915050565b5f819050919050565b5f610c61610c5c610c5784610a4b565b610c3e565b610a4b565b9050919050565b5f610c7282610c47565b9050919050565b5f610c8382610c68565b9050919050565b610c9381610c79565b82525050565b5f602082019050610cac5f830184610c8a565b92915050565b610cbb81610af9565b82525050565b5f602082019050610cd45f830184610cb2565b92915050565b5f82825260208201905092915050565b7f4e6f20706f6f6c7320617661696c61626c6500000000000000000000000000005f82015250565b5f610d1e601283610cda565b9150610d2982610cea565b602082019050919050565b5f6020820190508181035f830152610d4b81610d12565b9050919050565b7f496e76616c696420726563697069656e742061646472657373000000000000005f82015250565b5f610d86601983610cda565b9150610d9182610d52565b602082019050919050565b5f6020820190508181035f830152610db381610d7a565b9050919050565b5f819050919050565b610dd4610dcf82610bb8565b610dba565b82525050565b5f8160601b9050919050565b5f610df082610dda565b9050919050565b5f610e0182610de6565b9050919050565b610e19610e1482610af9565b610df7565b82525050565b5f610e2a8287610dc3565b602082019150610e3a8286610dc3565b602082019150610e4a8285610e08565b601482019150610e5a8284610dc3565b60208201915081905095945050505050565b7f4e487b71000000000000000000000000000000000000000000000000000000005f52601260045260245ffd5b5f610ea382610bb8565b9150610eae83610bb8565b925082610ebe57610ebd610e6c565b5b828206905092915050565b7f4e487b71000000000000000000000000000000000000000000000000000000005f52603260045260245ffd5b5f610f0082610c47565b9050919050565b5f610f1182610ef6565b9050919050565b610f2181610f07565b82525050565b5f604082019050610f3a5f830185610f18565b610f476020830184610bc1565b9392505050565b5f604082019050610f615f830185610bc1565b610f6e6020830184610f18565b9392505050565b7f4e6f20706f6f6c20776974682073756666696369656e742062616c616e6365205f8201527f617661696c61626c650000000000000000000000000000000000000000000000602082015250565b5f610fcf602983610cda565b9150610fda82610f75565b604082019050919050565b5f6020820190508181035f830152610ffc81610fc3565b9050919050565b7f4e487b71000000000000000000000000000000000000000000000000000000005f52604160045260245ffd5b7f4e487b71000000000000000000000000000000000000000000000000000000005f52601160045260245ffd5b5f61106782610bb8565b915061107283610bb8565b925082820190508082111561108a57611089611030565b5b92915050565b7f4465706f73697420616d6f756e74206d7573742062652065786163746c7920315f8201527f3020585250000000000000000000000000000000000000000000000000000000602082015250565b5f6110ea602583610cda565b91506110f582611090565b604082019050919050565b5f6020820190508181035f830152611117816110de565b9050919050565b5f6111298286610dc3565b6020820191506111398285610dc3565b6020820191506111498284610e08565b601482019150819050949350505050565b5f81905092915050565b50565b5f6111725f8361115a565b915061117d82611164565b5f82019050919050565b5f61119182611167565b9150819050919050565b7f5472616e7366657220746f20706f6f6c206661696c65640000000000000000005f82015250565b5f6111cf601783610cda565b91506111da8261119b565b602082019050919050565b5f6020820190508181035f8301526111fc816111c3565b9050919050565b5f6040820190506112165f830185610bc1565b6112236020830184610cb2565b9392505050565b7f4f6e6c792061646d696e2063616e2063616c6c20746869732066756e6374696f5f8201527f6e00000000000000000000000000000000000000000000000000000000000000602082015250565b5f611284602183610cda565b915061128f8261122a565b604082019050919050565b5f6020820190508181035f8301526112b181611278565b9050919050565b7f4e756d626572206f6620706f6f6c73206d7573742062652067726561746572205f8201527f7468616e207a65726f0000000000000000000000000000000000000000000000602082015250565b5f611312602983610cda565b915061131d826112b8565b604082019050919050565b5f6020820190508181035f83015261133f81611306565b905091905056fe608060405234801561000f575f80fd5b50604051610553380380610553833981810160405281019061003191906100d4565b805f806101000a81548173ffffffffffffffffffffffffffffffffffffffff021916908373ffffffffffffffffffffffffffffffffffffffff160217905550506100ff565b5f80fd5b5f73ffffffffffffffffffffffffffffffffffffffff82169050919050565b5f6100a38261007a565b9050919050565b6100b381610099565b81146100bd575f80fd5b50565b5f815190506100ce816100aa565b92915050565b5f602082840312156100e9576100e8610076565b5b5f6100f6848285016100c0565b91505092915050565b6104478061010c5f395ff3fe60806040526004361061002c575f3560e01c80638da5cb5b14610037578063f3fef3a31461006157610033565b3661003357005b5f80fd5b348015610042575f80fd5b5061004b610089565b6040516100589190610251565b60405180910390f35b34801561006c575f80fd5b50610087600480360381019061008291906102cb565b6100ac565b005b5f8054906101000a900473ffffffffffffffffffffffffffffffffffffffff1681565b5f8054906101000a900473ffffffffffffffffffffffffffffffffffffffff1673ffffffffffffffffffffffffffffffffffffffff163373ffffffffffffffffffffffffffffffffffffffff1614610139576040517f08c379a000000000000000000000000000000000000000000000000000000000815260040161013090610363565b60405180910390fd5b4781111561017c576040517f08c379a0000000000000000000000000000000000000000000000000000000008152600401610173906103cb565b60405180910390fd5b8173ffffffffffffffffffffffffffffffffffffffff166108fc8290811502906040515f60405180830381858888f193505050501580156101bf573d5f803e3d5ffd5b508173ffffffffffffffffffffffffffffffffffffffff167f884edad9ce6fa2440d8a54cc123490eb96d2768479d49ff9c7366125a94243648260405161020691906103f8565b60405180910390a25050565b5f73ffffffffffffffffffffffffffffffffffffffff82169050919050565b5f61023b82610212565b9050919050565b61024b81610231565b82525050565b5f6020820190506102645f830184610242565b92915050565b5f80fd5b61027781610231565b8114610281575f80fd5b50565b5f813590506102928161026e565b92915050565b5f819050919050565b6102aa81610298565b81146102b4575f80fd5b50565b5f813590506102c5816102a1565b92915050565b5f80604083850312156102e1576102e061026a565b5b5f6102ee85828601610284565b92505060206102ff858286016102b7565b9150509250929050565b5f82825260208201905092915050565b7f4f6e6c79206f776e65722063616e2077697468647261770000000000000000005f82015250565b5f61034d601783610309565b915061035882610319565b602082019050919050565b5f6020820190508181035f83015261037a81610341565b9050919050565b7f496e73756666696369656e742062616c616e636520696e20706f6f6c000000005f82015250565b5f6103b5601c83610309565b91506103c082610381565b602082019050919050565b5f6020820190508181035f8301526103e2816103a9565b9050919050565b6103f281610298565b82525050565b5f60208201905061040b5f8301846103e9565b9291505056fea264697066735822122054ef3b44197afbc74c4552be2f3164c2a30a70917ad8f2f234dd36ceb8c86cda64736f6c634300081a0033a2646970667358221220643245b2095cdd941f67eeb93dd503721b94e410ac8eb06a679f44057ec8bfc864736f6c634300081a0033",
					"opcodes": "PUSH1 0x80 PUSH1 0x40 MSTORE CALLVALUE DUP1 ISZERO PUSH1 0xE JUMPI PUSH0 DUP1 REVERT JUMPDEST POP CALLER PUSH1 0x1 PUSH0 PUSH2 0x100 EXP DUP2 SLOAD DUP2 PUSH20 0xFFFFFFFFFFFFFFFFFFFFFFFFFFFFFFFFFFFFFFFF MUL NOT AND SWAP1 DUP4 PUSH20 0xFFFFFFFFFFFFFFFFFFFFFFFFFFFFFFFFFFFFFFFF AND MUL OR SWAP1 SSTORE POP PUSH2 0x18CF DUP1 PUSH2 0x5C PUSH0 CODECOPY PUSH0 RETURN INVALID PUSH1 0x80 PUSH1 0x40 MSTORE PUSH1 0x4 CALLDATASIZE LT PUSH2 0x6F JUMPI PUSH0 CALLDATALOAD PUSH1 0xE0 SHR DUP1 PUSH4 0xAC4AFA38 GT PUSH2 0x4D JUMPI DUP1 PUSH4 0xAC4AFA38 EQ PUSH2 0xEF JUMPI DUP1 PUSH4 0xD0E30DB0 EQ PUSH2 0x12B JUMPI DUP1 PUSH4 0xE4876078 EQ PUSH2 0x135 JUMPI DUP1 PUSH4 0xF851A440 EQ PUSH2 0x15D JUMPI PUSH2 0x6F JUMP JUMPDEST DUP1 PUSH4 0x51CFF8D9 EQ PUSH2 0x73 JUMPI DUP1 PUSH4 0x673A2A1F EQ PUSH2 0x9B JUMPI DUP1 PUSH4 0x7C8244D7 EQ PUSH2 0xC5 JUMPI JUMPDEST PUSH0 DUP1 REVERT JUMPDEST CALLVALUE DUP1 ISZERO PUSH2 0x7E JUMPI PUSH0 DUP1 REVERT JUMPDEST POP PUSH2 0x99 PUSH1 0x4 DUP1 CALLDATASIZE SUB DUP2 ADD SWAP1 PUSH2 0x94 SWAP2 SWAP1 PUSH2 0xAA5 JUMP JUMPDEST PUSH2 0x187 JUMP JUMPDEST STOP JUMPDEST CALLVALUE DUP1 ISZERO PUSH2 0xA6 JUMPI PUSH0 DUP1 REVERT JUMPDEST POP PUSH2 0xAF PUSH2 0x46C JUMP JUMPDEST PUSH1 0x40 MLOAD PUSH2 0xBC SWAP2 SWAP1 PUSH2 0xB98 JUMP JUMPDEST PUSH1 0x40 MLOAD DUP1 SWAP2 SUB SWAP1 RETURN JUMPDEST CALLVALUE DUP1 ISZERO PUSH2 0xD0 JUMPI PUSH0 DUP1 REVERT JUMPDEST POP PUSH2 0xD9 PUSH2 0x569 JUMP JUMPDEST PUSH1 0x40 MLOAD PUSH2 0xE6 SWAP2 SWAP1 PUSH2 0xBD0 JUMP JUMPDEST PUSH1 0x40 MLOAD DUP1 SWAP2 SUB SWAP1 RETURN JUMPDEST CALLVALUE DUP1 ISZERO PUSH2 0xFA JUMPI PUSH0 DUP1 REVERT JUMPDEST POP PUSH2 0x115 PUSH1 0x4 DUP1 CALLDATASIZE SUB DUP2 ADD SWAP1 PUSH2 0x110 SWAP2 SWAP1 PUSH2 0xC13 JUMP JUMPDEST PUSH2 0x609 JUMP JUMPDEST PUSH1 0x40 MLOAD PUSH2 0x122 SWAP2 SWAP1 PUSH2 0xC99 JUMP JUMPDEST PUSH1 0x40 MLOAD DUP1 SWAP2 SUB SWAP1 RETURN JUMPDEST PUSH2 0x133 PUSH2 0x643 JUMP JUMPDEST STOP JUMPDEST CALLVALUE DUP1 ISZERO PUSH2 0x140 JUMPI PUSH0 DUP1 REVERT JUMPDEST POP PUSH2 0x15B PUSH1 0x4 DUP1 CALLDATASIZE SUB DUP2 ADD SWAP1 PUSH2 0x156 SWAP2 SWAP1 PUSH2 0xC13 JUMP JUMPDEST PUSH2 0x852 JUMP JUMPDEST STOP JUMPDEST CALLVALUE DUP1 ISZERO PUSH2 0x168 JUMPI PUSH0 DUP1 REVERT JUMPDEST POP PUSH2 0x171 PUSH2 0xA15 JUMP JUMPDEST PUSH1 0x40 MLOAD PUSH2 0x17E SWAP2 SWAP1 PUSH2 0xCC1 JUMP JUMPDEST PUSH1 0x40 MLOAD DUP1 SWAP2 SUB SWAP1 RETURN JUMPDEST PUSH0 DUP1 DUP1 SLOAD SWAP1 POP GT PUSH2 0x1CD JUMPI PUSH1 0x40 MLOAD PUSH32 0x8C379A000000000000000000000000000000000000000000000000000000000 DUP2 MSTORE PUSH1 0x4 ADD PUSH2 0x1C4 SWAP1 PUSH2 0xD34 JUMP JUMPDEST PUSH1 0x40 MLOAD DUP1 SWAP2 SUB SWAP1 REVERT JUMPDEST PUSH0 PUSH20 0xFFFFFFFFFFFFFFFFFFFFFFFFFFFFFFFFFFFFFFFF AND DUP2 PUSH20 0xFFFFFFFFFFFFFFFFFFFFFFFFFFFFFFFFFFFFFFFF AND SUB PUSH2 0x23B JUMPI PUSH1 0x40 MLOAD PUSH32 0x8C379A000000000000000000000000000000000000000000000000000000000 DUP2 MSTORE PUSH1 0x4 ADD PUSH2 0x232 SWAP1 PUSH2 0xD9C JUMP JUMPDEST PUSH1 0x40 MLOAD DUP1 SWAP2 SUB SWAP1 REVERT JUMPDEST PUSH0 PUSH8 0x8AC7230489E80000 SWAP1 POP PUSH0 DUP1 DUP1 SLOAD SWAP1 POP SWAP1 POP PUSH0 JUMPDEST DUP2 DUP2 LT ISZERO PUSH2 0x42D JUMPI PUSH0 DUP3 TIMESTAMP PREVRANDAO CALLER DUP6 PUSH1 0x40 MLOAD PUSH1 0x20 ADD PUSH2 0x272 SWAP5 SWAP4 SWAP3 SWAP2 SWAP1 PUSH2 0xE1F JUMP JUMPDEST PUSH1 0x40 MLOAD PUSH1 0x20 DUP2 DUP4 SUB SUB DUP2 MSTORE SWAP1 PUSH1 0x40 MSTORE DUP1 MLOAD SWAP1 PUSH1 0x20 ADD KECCAK256 PUSH0 SHR PUSH2 0x294 SWAP2 SWAP1 PUSH2 0xE99 JUMP JUMPDEST SWAP1 POP PUSH0 DUP1 DUP3 DUP2 SLOAD DUP2 LT PUSH2 0x2AA JUMPI PUSH2 0x2A9 PUSH2 0xEC9 JUMP JUMPDEST JUMPDEST SWAP1 PUSH0 MSTORE PUSH1 0x20 PUSH0 KECCAK256 ADD PUSH0 SWAP1 SLOAD SWAP1 PUSH2 0x100 EXP SWAP1 DIV PUSH20 0xFFFFFFFFFFFFFFFFFFFFFFFFFFFFFFFFFFFFFFFF AND SWAP1 POP PUSH0 DUP2 PUSH20 0xFFFFFFFFFFFFFFFFFFFFFFFFFFFFFFFFFFFFFFFF AND BALANCE SWAP1 POP DUP7 PUSH20 0xFFFFFFFFFFFFFFFFFFFFFFFFFFFFFFFFFFFFFFFF AND DUP3 PUSH20 0xFFFFFFFFFFFFFFFFFFFFFFFFFFFFFFFFFFFFFFFF AND PUSH32 0xD764F2DAB73CEDBD6D5FB479C647F3746632F050B1EADF2DF110132376C1AD5C DUP4 PUSH1 0x40 MLOAD PUSH2 0x34C SWAP2 SWAP1 PUSH2 0xBD0 JUMP JUMPDEST PUSH1 0x40 MLOAD DUP1 SWAP2 SUB SWAP1 LOG3 DUP6 DUP2 LT PUSH2 0x41D JUMPI DUP2 PUSH20 0xFFFFFFFFFFFFFFFFFFFFFFFFFFFFFFFFFFFFFFFF AND PUSH4 0xF3FEF3A3 DUP9 DUP9 PUSH1 0x40 MLOAD DUP4 PUSH4 0xFFFFFFFF AND PUSH1 0xE0 SHL DUP2 MSTORE PUSH1 0x4 ADD PUSH2 0x396 SWAP3 SWAP2 SWAP1 PUSH2 0xF27 JUMP JUMPDEST PUSH0 PUSH1 0x40 MLOAD DUP1 DUP4 SUB DUP2 PUSH0 DUP8 DUP1 EXTCODESIZE ISZERO DUP1 ISZERO PUSH2 0x3AD JUMPI PUSH0 DUP1 REVERT JUMPDEST POP GAS CALL ISZERO DUP1 ISZERO PUSH2 0x3BF JUMPI RETURNDATASIZE PUSH0 DUP1 RETURNDATACOPY RETURNDATASIZE PUSH0 REVERT JUMPDEST POP POP POP POP DUP7 PUSH20 0xFFFFFFFFFFFFFFFFFFFFFFFFFFFFFFFFFFFFFFFF AND PUSH31 0x1A143D5B175701CB3246058FFAC3D63945192075A926FF73A19930F09D587A DUP8 DUP5 PUSH1 0x40 MLOAD PUSH2 0x40A SWAP3 SWAP2 SWAP1 PUSH2 0xF4E JUMP JUMPDEST PUSH1 0x40 MLOAD DUP1 SWAP2 SUB SWAP1 LOG2 POP POP POP POP POP POP PUSH2 0x469 JUMP JUMPDEST POP POP POP DUP1 DUP1 PUSH1 0x1 ADD SWAP2 POP POP PUSH2 0x251 JUMP JUMPDEST POP PUSH1 0x40 MLOAD PUSH32 0x8C379A000000000000000000000000000000000000000000000000000000000 DUP2 MSTORE PUSH1 0x4 ADD PUSH2 0x460 SWAP1 PUSH2 0xFE5 JUMP JUMPDEST PUSH1 0x40 MLOAD DUP1 SWAP2 SUB SWAP1 REVERT JUMPDEST POP JUMP JUMPDEST PUSH1 0x60 PUSH0 DUP1 DUP1 SLOAD SWAP1 POP PUSH8 0xFFFFFFFFFFFFFFFF DUP2 GT ISZERO PUSH2 0x48D JUMPI PUSH2 0x48C PUSH2 0x1003 JUMP JUMPDEST JUMPDEST PUSH1 0x40 MLOAD SWAP1 DUP1 DUP3 MSTORE DUP1 PUSH1 0x20 MUL PUSH1 0x20 ADD DUP3 ADD PUSH1 0x40 MSTORE DUP1 ISZERO PUSH2 0x4BB JUMPI DUP2 PUSH1 0x20 ADD PUSH1 0x20 DUP3 MUL DUP1 CALLDATASIZE DUP4 CALLDATACOPY DUP1 DUP3 ADD SWAP2 POP POP SWAP1 POP JUMPDEST POP SWAP1 POP PUSH0 JUMPDEST PUSH0 DUP1 SLOAD SWAP1 POP DUP2 LT ISZERO PUSH2 0x561 JUMPI PUSH0 DUP2 DUP2 SLOAD DUP2 LT PUSH2 0x4DF JUMPI PUSH2 0x4DE PUSH2 0xEC9 JUMP JUMPDEST JUMPDEST SWAP1 PUSH0 MSTORE PUSH1 0x20 PUSH0 KECCAK256 ADD PUSH0 SWAP1 SLOAD SWAP1 PUSH2 0x100 EXP SWAP1 DIV PUSH20 0xFFFFFFFFFFFFFFFFFFFFFFFFFFFFFFFFFFFFFFFF AND DUP3 DUP3 DUP2 MLOAD DUP2 LT PUSH2 0x51A JUMPI PUSH2 0x519 PUSH2 0xEC9 JUMP JUMPDEST JUMPDEST PUSH1 0x20 MUL PUSH1 0x20 ADD ADD SWAP1 PUSH20 0xFFFFFFFFFFFFFFFFFFFFFFFFFFFFFFFFFFFFFFFF AND SWAP1 DUP2 PUSH20 0xFFFFFFFFFFFFFFFFFFFFFFFFFFFFFFFFFFFFFFFF AND DUP2 MSTORE POP POP DUP1 DUP1 PUSH1 0x1 ADD SWAP2 POP POP PUSH2 0x4C0 JUMP JUMPDEST POP DUP1 SWAP2 POP POP SWAP1 JUMP JUMPDEST PUSH0 DUP1 PUSH0 SWAP1 POP PUSH0 PUSH1 0xA PUSH0 DUP1 SLOAD SWAP1 POP LT PUSH2 0x582 JUMPI PUSH1 0xA PUSH2 0x588 JUMP JUMPDEST PUSH0 DUP1 SLOAD SWAP1 POP JUMPDEST SWAP1 POP PUSH0 JUMPDEST DUP2 DUP2 LT ISZERO PUSH2 0x600 JUMPI PUSH0 DUP2 DUP2 SLOAD DUP2 LT PUSH2 0x5A7 JUMPI PUSH2 0x5A6 PUSH2 0xEC9 JUMP JUMPDEST JUMPDEST SWAP1 PUSH0 MSTORE PUSH1 0x20 PUSH0 KECCAK256 ADD PUSH0 SWAP1 SLOAD SWAP1 PUSH2 0x100 EXP SWAP1 DIV PUSH20 0xFFFFFFFFFFFFFFFFFFFFFFFFFFFFFFFFFFFFFFFF AND PUSH20 0xFFFFFFFFFFFFFFFFFFFFFFFFFFFFFFFFFFFFFFFF AND BALANCE DUP4 PUSH2 0x5F1 SWAP2 SWAP1 PUSH2 0x105D JUMP JUMPDEST SWAP3 POP DUP1 DUP1 PUSH1 0x1 ADD SWAP2 POP POP PUSH2 0x58C JUMP JUMPDEST POP DUP2 SWAP3 POP POP POP SWAP1 JUMP JUMPDEST PUSH0 DUP2 DUP2 SLOAD DUP2 LT PUSH2 0x617 JUMPI PUSH0 DUP1 REVERT JUMPDEST SWAP1 PUSH0 MSTORE PUSH1 0x20 PUSH0 KECCAK256 ADD PUSH0 SWAP2 POP SLOAD SWAP1 PUSH2 0x100 EXP SWAP1 DIV PUSH20 0xFFFFFFFFFFFFFFFFFFFFFFFFFFFFFFFFFFFFFFFF AND DUP2 JUMP JUMPDEST PUSH0 PUSH8 0x8AC7230489E80000 SWAP1 POP DUP1 CALLVALUE EQ PUSH2 0x691 JUMPI PUSH1 0x40 MLOAD PUSH32 0x8C379A000000000000000000000000000000000000000000000000000000000 DUP2 MSTORE PUSH1 0x4 ADD PUSH2 0x688 SWAP1 PUSH2 0x1100 JUMP JUMPDEST PUSH1 0x40 MLOAD DUP1 SWAP2 SUB SWAP1 REVERT JUMPDEST PUSH0 DUP1 DUP1 SLOAD SWAP1 POP GT PUSH2 0x6D7 JUMPI PUSH1 0x40 MLOAD PUSH32 0x8C379A000000000000000000000000000000000000000000000000000000000 DUP2 MSTORE PUSH1 0x4 ADD PUSH2 0x6CE SWAP1 PUSH2 0xD34 JUMP JUMPDEST PUSH1 0x40 MLOAD DUP1 SWAP2 SUB SWAP1 REVERT JUMPDEST PUSH0 DUP1 DUP1 SLOAD SWAP1 POP TIMESTAMP PREVRANDAO CALLER PUSH1 0x40 MLOAD PUSH1 0x20 ADD PUSH2 0x6F2 SWAP4 SWAP3 SWAP2 SWAP1 PUSH2 0x111E JUMP JUMPDEST PUSH1 0x40 MLOAD PUSH1 0x20 DUP2 DUP4 SUB SUB DUP2 MSTORE SWAP1 PUSH1 0x40 MSTORE DUP1 MLOAD SWAP1 PUSH1 0x20 ADD KECCAK256 PUSH0 SHR PUSH2 0x714 SWAP2 SWAP1 PUSH2 0xE99 JUMP JUMPDEST SWAP1 POP PUSH0 DUP1 DUP3 DUP2 SLOAD DUP2 LT PUSH2 0x72A JUMPI PUSH2 0x729 PUSH2 0xEC9 JUMP JUMPDEST JUMPDEST SWAP1 PUSH0 MSTORE PUSH1 0x20 PUSH0 KECCAK256 ADD PUSH0 SWAP1 SLOAD SWAP1 PUSH2 0x100 EXP SWAP1 DIV PUSH20 0xFFFFFFFFFFFFFFFFFFFFFFFFFFFFFFFFFFFFFFFF AND SWAP1 POP PUSH0 DUP2 PUSH20 0xFFFFFFFFFFFFFFFFFFFFFFFFFFFFFFFFFFFFFFFF AND CALLVALUE PUSH1 0x40 MLOAD PUSH2 0x779 SWAP1 PUSH2 0x1187 JUMP JUMPDEST PUSH0 PUSH1 0x40 MLOAD DUP1 DUP4 SUB DUP2 DUP6 DUP8 GAS CALL SWAP3 POP POP POP RETURNDATASIZE DUP1 PUSH0 DUP2 EQ PUSH2 0x7B3 JUMPI PUSH1 0x40 MLOAD SWAP2 POP PUSH1 0x1F NOT PUSH1 0x3F RETURNDATASIZE ADD AND DUP3 ADD PUSH1 0x40 MSTORE RETURNDATASIZE DUP3 MSTORE RETURNDATASIZE PUSH0 PUSH1 0x20 DUP5 ADD RETURNDATACOPY PUSH2 0x7B8 JUMP JUMPDEST PUSH1 0x60 SWAP2 POP JUMPDEST POP POP SWAP1 POP DUP1 PUSH2 0x7FC JUMPI PUSH1 0x40 MLOAD PUSH32 0x8C379A000000000000000000000000000000000000000000000000000000000 DUP2 MSTORE PUSH1 0x4 ADD PUSH2 0x7F3 SWAP1 PUSH2 0x11E5 JUMP JUMPDEST PUSH1 0x40 MLOAD DUP1 SWAP2 SUB SWAP1 REVERT JUMPDEST CALLER PUSH20 0xFFFFFFFFFFFFFFFFFFFFFFFFFFFFFFFFFFFFFFFF AND PUSH32 0xE31C7B8D08EE7DB0AFA68782E1028EF92305CAEEA8626633AD44D413E30F6B2F CALLVALUE DUP5 PUSH1 0x40 MLOAD PUSH2 0x844 SWAP3 SWAP2 SWAP1 PUSH2 0x1203 JUMP JUMPDEST PUSH1 0x40 MLOAD DUP1 SWAP2 SUB SWAP1 LOG2 POP POP POP POP JUMP JUMPDEST PUSH1 0x1 PUSH0 SWAP1 SLOAD SWAP1 PUSH2 0x100 EXP SWAP1 DIV PUSH20 0xFFFFFFFFFFFFFFFFFFFFFFFFFFFFFFFFFFFFFFFF AND PUSH20 0xFFFFFFFFFFFFFFFFFFFFFFFFFFFFFFFFFFFFFFFF AND CALLER PUSH20 0xFFFFFFFFFFFFFFFFFFFFFFFFFFFFFFFFFFFFFFFF AND EQ PUSH2 0x8E1 JUMPI PUSH1 0x40 MLOAD PUSH32 0x8C379A000000000000000000000000000000000000000000000000000000000 DUP2 MSTORE PUSH1 0x4 ADD PUSH2 0x8D8 SWAP1 PUSH2 0x129A JUMP JUMPDEST PUSH1 0x40 MLOAD DUP1 SWAP2 SUB SWAP1 REVERT JUMPDEST PUSH0 DUP2 GT PUSH2 0x923 JUMPI PUSH1 0x40 MLOAD PUSH32 0x8C379A000000000000000000000000000000000000000000000000000000000 DUP2 MSTORE PUSH1 0x4 ADD PUSH2 0x91A SWAP1 PUSH2 0x1328 JUMP JUMPDEST PUSH1 0x40 MLOAD DUP1 SWAP2 SUB SWAP1 REVERT JUMPDEST PUSH0 JUMPDEST DUP2 DUP2 LT ISZERO PUSH2 0xA11 JUMPI PUSH0 ADDRESS PUSH1 0x40 MLOAD PUSH2 0x93B SWAP1 PUSH2 0xA3A JUMP JUMPDEST PUSH2 0x945 SWAP2 SWAP1 PUSH2 0xCC1 JUMP JUMPDEST PUSH1 0x40 MLOAD DUP1 SWAP2 SUB SWAP1 PUSH0 CREATE DUP1 ISZERO DUP1 ISZERO PUSH2 0x95E JUMPI RETURNDATASIZE PUSH0 DUP1 RETURNDATACOPY RETURNDATASIZE PUSH0 REVERT JUMPDEST POP SWAP1 POP PUSH0 DUP2 SWAP1 DUP1 PUSH1 0x1 DUP2 SLOAD ADD DUP1 DUP3 SSTORE DUP1 SWAP2 POP POP PUSH1 0x1 SWAP1 SUB SWAP1 PUSH0 MSTORE PUSH1 0x20 PUSH0 KECCAK256 ADD PUSH0 SWAP1 SWAP2 SWAP1 SWAP2 SWAP1 SWAP2 PUSH2 0x100 EXP DUP2 SLOAD DUP2 PUSH20 0xFFFFFFFFFFFFFFFFFFFFFFFFFFFFFFFFFFFFFFFF MUL NOT AND SWAP1 DUP4 PUSH20 0xFFFFFFFFFFFFFFFFFFFFFFFFFFFFFFFFFFFFFFFF AND MUL OR SWAP1 SSTORE POP DUP1 PUSH20 0xFFFFFFFFFFFFFFFFFFFFFFFFFFFFFFFFFFFFFFFF AND PUSH32 0x83A48FBCFC991335314E74D0496AAB6A1987E992DDC85DDDBCC4D6DD6EF2E9FC PUSH1 0x40 MLOAD PUSH1 0x40 MLOAD DUP1 SWAP2 SUB SWAP1 LOG2 POP DUP1 DUP1 PUSH1 0x1 ADD SWAP2 POP POP PUSH2 0x925 JUMP JUMPDEST POP POP JUMP JUMPDEST PUSH1 0x1 PUSH0 SWAP1 SLOAD SWAP1 PUSH2 0x100 EXP SWAP1 DIV PUSH20 0xFFFFFFFFFFFFFFFFFFFFFFFFFFFFFFFFFFFFFFFF AND DUP2 JUMP JUMPDEST PUSH2 0x553 DUP1 PUSH2 0x1347 DUP4 CODECOPY ADD SWAP1 JUMP JUMPDEST PUSH0 DUP1 REVERT JUMPDEST PUSH0 PUSH20 0xFFFFFFFFFFFFFFFFFFFFFFFFFFFFFFFFFFFFFFFF DUP3 AND SWAP1 POP SWAP2 SWAP1 POP JUMP JUMPDEST PUSH0 PUSH2 0xA74 DUP3 PUSH2 0xA4B JUMP JUMPDEST SWAP1 POP SWAP2 SWAP1 POP JUMP JUMPDEST PUSH2 0xA84 DUP2 PUSH2 0xA6A JUMP JUMPDEST DUP2 EQ PUSH2 0xA8E JUMPI PUSH0 DUP1 REVERT JUMPDEST POP JUMP JUMPDEST PUSH0 DUP2 CALLDATALOAD SWAP1 POP PUSH2 0xA9F DUP2 PUSH2 0xA7B JUMP JUMPDEST SWAP3 SWAP2 POP POP JUMP JUMPDEST PUSH0 PUSH1 0x20 DUP3 DUP5 SUB SLT ISZERO PUSH2 0xABA JUMPI PUSH2 0xAB9 PUSH2 0xA47 JUMP JUMPDEST JUMPDEST PUSH0 PUSH2 0xAC7 DUP5 DUP3 DUP6 ADD PUSH2 0xA91 JUMP JUMPDEST SWAP2 POP POP SWAP3 SWAP2 POP POP JUMP JUMPDEST PUSH0 DUP2 MLOAD SWAP1 POP SWAP2 SWAP1 POP JUMP JUMPDEST PUSH0 DUP3 DUP3 MSTORE PUSH1 0x20 DUP3 ADD SWAP1 POP SWAP3 SWAP2 POP POP JUMP JUMPDEST PUSH0 DUP2 SWAP1 POP PUSH1 0x20 DUP3 ADD SWAP1 POP SWAP2 SWAP1 POP JUMP JUMPDEST PUSH0 PUSH2 0xB03 DUP3 PUSH2 0xA4B JUMP JUMPDEST SWAP1 POP SWAP2 SWAP1 POP JUMP JUMPDEST PUSH2 0xB13 DUP2 PUSH2 0xAF9 JUMP JUMPDEST DUP3 MSTORE POP POP JUMP JUMPDEST PUSH0 PUSH2 0xB24 DUP4 DUP4 PUSH2 0xB0A JUMP JUMPDEST PUSH1 0x20 DUP4 ADD SWAP1 POP SWAP3 SWAP2 POP POP JUMP JUMPDEST PUSH0 PUSH1 0x20 DUP3 ADD SWAP1 POP SWAP2 SWAP1 POP JUMP JUMPDEST PUSH0 PUSH2 0xB46 DUP3 PUSH2 0xAD0 JUMP JUMPDEST PUSH2 0xB50 DUP2 DUP6 PUSH2 0xADA JUMP JUMPDEST SWAP4 POP PUSH2 0xB5B DUP4 PUSH2 0xAEA JUMP JUMPDEST DUP1 PUSH0 JUMPDEST DUP4 DUP2 LT ISZERO PUSH2 0xB8B JUMPI DUP2 MLOAD PUSH2 0xB72 DUP9 DUP3 PUSH2 0xB19 JUMP JUMPDEST SWAP8 POP PUSH2 0xB7D DUP4 PUSH2 0xB30 JUMP JUMPDEST SWAP3 POP POP PUSH1 0x1 DUP2 ADD SWAP1 POP PUSH2 0xB5E JUMP JUMPDEST POP DUP6 SWAP4 POP POP POP POP SWAP3 SWAP2 POP POP JUMP JUMPDEST PUSH0 PUSH1 0x20 DUP3 ADD SWAP1 POP DUP2 DUP2 SUB PUSH0 DUP4 ADD MSTORE PUSH2 0xBB0 DUP2 DUP5 PUSH2 0xB3C JUMP JUMPDEST SWAP1 POP SWAP3 SWAP2 POP POP JUMP JUMPDEST PUSH0 DUP2 SWAP1 POP SWAP2 SWAP1 POP JUMP JUMPDEST PUSH2 0xBCA DUP2 PUSH2 0xBB8 JUMP JUMPDEST DUP3 MSTORE POP POP JUMP JUMPDEST PUSH0 PUSH1 0x20 DUP3 ADD SWAP1 POP PUSH2 0xBE3 PUSH0 DUP4 ADD DUP5 PUSH2 0xBC1 JUMP JUMPDEST SWAP3 SWAP2 POP POP JUMP JUMPDEST PUSH2 0xBF2 DUP2 PUSH2 0xBB8 JUMP JUMPDEST DUP2 EQ PUSH2 0xBFC JUMPI PUSH0 DUP1 REVERT JUMPDEST POP JUMP JUMPDEST PUSH0 DUP2 CALLDATALOAD SWAP1 POP PUSH2 0xC0D DUP2 PUSH2 0xBE9 JUMP JUMPDEST SWAP3 SWAP2 POP POP JUMP JUMPDEST PUSH0 PUSH1 0x20 DUP3 DUP5 SUB SLT ISZERO PUSH2 0xC28 JUMPI PUSH2 0xC27 PUSH2 0xA47 JUMP JUMPDEST JUMPDEST PUSH0 PUSH2 0xC35 DUP5 DUP3 DUP6 ADD PUSH2 0xBFF JUMP JUMPDEST SWAP2 POP POP SWAP3 SWAP2 POP POP JUMP JUMPDEST PUSH0 DUP2 SWAP1 POP SWAP2 SWAP1 POP JUMP JUMPDEST PUSH0 PUSH2 0xC61 PUSH2 0xC5C PUSH2 0xC57 DUP5 PUSH2 0xA4B JUMP JUMPDEST PUSH2 0xC3E JUMP JUMPDEST PUSH2 0xA4B JUMP JUMPDEST SWAP1 POP SWAP2 SWAP1 POP JUMP JUMPDEST PUSH0 PUSH2 0xC72 DUP3 PUSH2 0xC47 JUMP JUMPDEST SWAP1 POP SWAP2 SWAP1 POP JUMP JUMPDEST PUSH0 PUSH2 0xC83 DUP3 PUSH2 0xC68 JUMP JUMPDEST SWAP1 POP SWAP2 SWAP1 POP JUMP JUMPDEST PUSH2 0xC93 DUP2 PUSH2 0xC79 JUMP JUMPDEST DUP3 MSTORE POP POP JUMP JUMPDEST PUSH0 PUSH1 0x20 DUP3 ADD SWAP1 POP PUSH2 0xCAC PUSH0 DUP4 ADD DUP5 PUSH2 0xC8A JUMP JUMPDEST SWAP3 SWAP2 POP POP JUMP JUMPDEST PUSH2 0xCBB DUP2 PUSH2 0xAF9 JUMP JUMPDEST DUP3 MSTORE POP POP JUMP JUMPDEST PUSH0 PUSH1 0x20 DUP3 ADD SWAP1 POP PUSH2 0xCD4 PUSH0 DUP4 ADD DUP5 PUSH2 0xCB2 JUMP JUMPDEST SWAP3 SWAP2 POP POP JUMP JUMPDEST PUSH0 DUP3 DUP3 MSTORE PUSH1 0x20 DUP3 ADD SWAP1 POP SWAP3 SWAP2 POP POP JUMP JUMPDEST PUSH32 0x4E6F20706F6F6C7320617661696C61626C650000000000000000000000000000 PUSH0 DUP3 ADD MSTORE POP JUMP JUMPDEST PUSH0 PUSH2 0xD1E PUSH1 0x12 DUP4 PUSH2 0xCDA JUMP JUMPDEST SWAP2 POP PUSH2 0xD29 DUP3 PUSH2 0xCEA JUMP JUMPDEST PUSH1 0x20 DUP3 ADD SWAP1 POP SWAP2 SWAP1 POP JUMP JUMPDEST PUSH0 PUSH1 0x20 DUP3 ADD SWAP1 POP DUP2 DUP2 SUB PUSH0 DUP4 ADD MSTORE PUSH2 0xD4B DUP2 PUSH2 0xD12 JUMP JUMPDEST SWAP1 POP SWAP2 SWAP1 POP JUMP JUMPDEST PUSH32 0x496E76616C696420726563697069656E74206164647265737300000000000000 PUSH0 DUP3 ADD MSTORE POP JUMP JUMPDEST PUSH0 PUSH2 0xD86 PUSH1 0x19 DUP4 PUSH2 0xCDA JUMP JUMPDEST SWAP2 POP PUSH2 0xD91 DUP3 PUSH2 0xD52 JUMP JUMPDEST PUSH1 0x20 DUP3 ADD SWAP1 POP SWAP2 SWAP1 POP JUMP JUMPDEST PUSH0 PUSH1 0x20 DUP3 ADD SWAP1 POP DUP2 DUP2 SUB PUSH0 DUP4 ADD MSTORE PUSH2 0xDB3 DUP2 PUSH2 0xD7A JUMP JUMPDEST SWAP1 POP SWAP2 SWAP1 POP JUMP JUMPDEST PUSH0 DUP2 SWAP1 POP SWAP2 SWAP1 POP JUMP JUMPDEST PUSH2 0xDD4 PUSH2 0xDCF DUP3 PUSH2 0xBB8 JUMP JUMPDEST PUSH2 0xDBA JUMP JUMPDEST DUP3 MSTORE POP POP JUMP JUMPDEST PUSH0 DUP2 PUSH1 0x60 SHL SWAP1 POP SWAP2 SWAP1 POP JUMP JUMPDEST PUSH0 PUSH2 0xDF0 DUP3 PUSH2 0xDDA JUMP JUMPDEST SWAP1 POP SWAP2 SWAP1 POP JUMP JUMPDEST PUSH0 PUSH2 0xE01 DUP3 PUSH2 0xDE6 JUMP JUMPDEST SWAP1 POP SWAP2 SWAP1 POP JUMP JUMPDEST PUSH2 0xE19 PUSH2 0xE14 DUP3 PUSH2 0xAF9 JUMP JUMPDEST PUSH2 0xDF7 JUMP JUMPDEST DUP3 MSTORE POP POP JUMP JUMPDEST PUSH0 PUSH2 0xE2A DUP3 DUP8 PUSH2 0xDC3 JUMP JUMPDEST PUSH1 0x20 DUP3 ADD SWAP2 POP PUSH2 0xE3A DUP3 DUP7 PUSH2 0xDC3 JUMP JUMPDEST PUSH1 0x20 DUP3 ADD SWAP2 POP PUSH2 0xE4A DUP3 DUP6 PUSH2 0xE08 JUMP JUMPDEST PUSH1 0x14 DUP3 ADD SWAP2 POP PUSH2 0xE5A DUP3 DUP5 PUSH2 0xDC3 JUMP JUMPDEST PUSH1 0x20 DUP3 ADD SWAP2 POP DUP2 SWAP1 POP SWAP6 SWAP5 POP POP POP POP POP JUMP JUMPDEST PUSH32 0x4E487B7100000000000000000000000000000000000000000000000000000000 PUSH0 MSTORE PUSH1 0x12 PUSH1 0x4 MSTORE PUSH1 0x24 PUSH0 REVERT JUMPDEST PUSH0 PUSH2 0xEA3 DUP3 PUSH2 0xBB8 JUMP JUMPDEST SWAP2 POP PUSH2 0xEAE DUP4 PUSH2 0xBB8 JUMP JUMPDEST SWAP3 POP DUP3 PUSH2 0xEBE JUMPI PUSH2 0xEBD PUSH2 0xE6C JUMP JUMPDEST JUMPDEST DUP3 DUP3 MOD SWAP1 POP SWAP3 SWAP2 POP POP JUMP JUMPDEST PUSH32 0x4E487B7100000000000000000000000000000000000000000000000000000000 PUSH0 MSTORE PUSH1 0x32 PUSH1 0x4 MSTORE PUSH1 0x24 PUSH0 REVERT JUMPDEST PUSH0 PUSH2 0xF00 DUP3 PUSH2 0xC47 JUMP JUMPDEST SWAP1 POP SWAP2 SWAP1 POP JUMP JUMPDEST PUSH0 PUSH2 0xF11 DUP3 PUSH2 0xEF6 JUMP JUMPDEST SWAP1 POP SWAP2 SWAP1 POP JUMP JUMPDEST PUSH2 0xF21 DUP2 PUSH2 0xF07 JUMP JUMPDEST DUP3 MSTORE POP POP JUMP JUMPDEST PUSH0 PUSH1 0x40 DUP3 ADD SWAP1 POP PUSH2 0xF3A PUSH0 DUP4 ADD DUP6 PUSH2 0xF18 JUMP JUMPDEST PUSH2 0xF47 PUSH1 0x20 DUP4 ADD DUP5 PUSH2 0xBC1 JUMP JUMPDEST SWAP4 SWAP3 POP POP POP JUMP JUMPDEST PUSH0 PUSH1 0x40 DUP3 ADD SWAP1 POP PUSH2 0xF61 PUSH0 DUP4 ADD DUP6 PUSH2 0xBC1 JUMP JUMPDEST PUSH2 0xF6E PUSH1 0x20 DUP4 ADD DUP5 PUSH2 0xF18 JUMP JUMPDEST SWAP4 SWAP3 POP POP POP JUMP JUMPDEST PUSH32 0x4E6F20706F6F6C20776974682073756666696369656E742062616C616E636520 PUSH0 DUP3 ADD MSTORE PUSH32 0x617661696C61626C650000000000000000000000000000000000000000000000 PUSH1 0x20 DUP3 ADD MSTORE POP JUMP JUMPDEST PUSH0 PUSH2 0xFCF PUSH1 0x29 DUP4 PUSH2 0xCDA JUMP JUMPDEST SWAP2 POP PUSH2 0xFDA DUP3 PUSH2 0xF75 JUMP JUMPDEST PUSH1 0x40 DUP3 ADD SWAP1 POP SWAP2 SWAP1 POP JUMP JUMPDEST PUSH0 PUSH1 0x20 DUP3 ADD SWAP1 POP DUP2 DUP2 SUB PUSH0 DUP4 ADD MSTORE PUSH2 0xFFC DUP2 PUSH2 0xFC3 JUMP JUMPDEST SWAP1 POP SWAP2 SWAP1 POP JUMP JUMPDEST PUSH32 0x4E487B7100000000000000000000000000000000000000000000000000000000 PUSH0 MSTORE PUSH1 0x41 PUSH1 0x4 MSTORE PUSH1 0x24 PUSH0 REVERT JUMPDEST PUSH32 0x4E487B7100000000000000000000000000000000000000000000000000000000 PUSH0 MSTORE PUSH1 0x11 PUSH1 0x4 MSTORE PUSH1 0x24 PUSH0 REVERT JUMPDEST PUSH0 PUSH2 0x1067 DUP3 PUSH2 0xBB8 JUMP JUMPDEST SWAP2 POP PUSH2 0x1072 DUP4 PUSH2 0xBB8 JUMP JUMPDEST SWAP3 POP DUP3 DUP3 ADD SWAP1 POP DUP1 DUP3 GT ISZERO PUSH2 0x108A JUMPI PUSH2 0x1089 PUSH2 0x1030 JUMP JUMPDEST JUMPDEST SWAP3 SWAP2 POP POP JUMP JUMPDEST PUSH32 0x4465706F73697420616D6F756E74206D7573742062652065786163746C792031 PUSH0 DUP3 ADD MSTORE PUSH32 0x3020585250000000000000000000000000000000000000000000000000000000 PUSH1 0x20 DUP3 ADD MSTORE POP JUMP JUMPDEST PUSH0 PUSH2 0x10EA PUSH1 0x25 DUP4 PUSH2 0xCDA JUMP JUMPDEST SWAP2 POP PUSH2 0x10F5 DUP3 PUSH2 0x1090 JUMP JUMPDEST PUSH1 0x40 DUP3 ADD SWAP1 POP SWAP2 SWAP1 POP JUMP JUMPDEST PUSH0 PUSH1 0x20 DUP3 ADD SWAP1 POP DUP2 DUP2 SUB PUSH0 DUP4 ADD MSTORE PUSH2 0x1117 DUP2 PUSH2 0x10DE JUMP JUMPDEST SWAP1 POP SWAP2 SWAP1 POP JUMP JUMPDEST PUSH0 PUSH2 0x1129 DUP3 DUP7 PUSH2 0xDC3 JUMP JUMPDEST PUSH1 0x20 DUP3 ADD SWAP2 POP PUSH2 0x1139 DUP3 DUP6 PUSH2 0xDC3 JUMP JUMPDEST PUSH1 0x20 DUP3 ADD SWAP2 POP PUSH2 0x1149 DUP3 DUP5 PUSH2 0xE08 JUMP JUMPDEST PUSH1 0x14 DUP3 ADD SWAP2 POP DUP2 SWAP1 POP SWAP5 SWAP4 POP POP POP POP JUMP JUMPDEST PUSH0 DUP2 SWAP1 POP SWAP3 SWAP2 POP POP JUMP JUMPDEST POP JUMP JUMPDEST PUSH0 PUSH2 0x1172 PUSH0 DUP4 PUSH2 0x115A JUMP JUMPDEST SWAP2 POP PUSH2 0x117D DUP3 PUSH2 0x1164 JUMP JUMPDEST PUSH0 DUP3 ADD SWAP1 POP SWAP2 SWAP1 POP JUMP JUMPDEST PUSH0 PUSH2 0x1191 DUP3 PUSH2 0x1167 JUMP JUMPDEST SWAP2 POP DUP2 SWAP1 POP SWAP2 SWAP1 POP JUMP JUMPDEST PUSH32 0x5472616E7366657220746F20706F6F6C206661696C6564000000000000000000 PUSH0 DUP3 ADD MSTORE POP JUMP JUMPDEST PUSH0 PUSH2 0x11CF PUSH1 0x17 DUP4 PUSH2 0xCDA JUMP JUMPDEST SWAP2 POP PUSH2 0x11DA DUP3 PUSH2 0x119B JUMP JUMPDEST PUSH1 0x20 DUP3 ADD SWAP1 POP SWAP2 SWAP1 POP JUMP JUMPDEST PUSH0 PUSH1 0x20 DUP3 ADD SWAP1 POP DUP2 DUP2 SUB PUSH0 DUP4 ADD MSTORE PUSH2 0x11FC DUP2 PUSH2 0x11C3 JUMP JUMPDEST SWAP1 POP SWAP2 SWAP1 POP JUMP JUMPDEST PUSH0 PUSH1 0x40 DUP3 ADD SWAP1 POP PUSH2 0x1216 PUSH0 DUP4 ADD DUP6 PUSH2 0xBC1 JUMP JUMPDEST PUSH2 0x1223 PUSH1 0x20 DUP4 ADD DUP5 PUSH2 0xCB2 JUMP JUMPDEST SWAP4 SWAP3 POP POP POP JUMP JUMPDEST PUSH32 0x4F6E6C792061646D696E2063616E2063616C6C20746869732066756E6374696F PUSH0 DUP3 ADD MSTORE PUSH32 0x6E00000000000000000000000000000000000000000000000000000000000000 PUSH1 0x20 DUP3 ADD MSTORE POP JUMP JUMPDEST PUSH0 PUSH2 0x1284 PUSH1 0x21 DUP4 PUSH2 0xCDA JUMP JUMPDEST SWAP2 POP PUSH2 0x128F DUP3 PUSH2 0x122A JUMP JUMPDEST PUSH1 0x40 DUP3 ADD SWAP1 POP SWAP2 SWAP1 POP JUMP JUMPDEST PUSH0 PUSH1 0x20 DUP3 ADD SWAP1 POP DUP2 DUP2 SUB PUSH0 DUP4 ADD MSTORE PUSH2 0x12B1 DUP2 PUSH2 0x1278 JUMP JUMPDEST SWAP1 POP SWAP2 SWAP1 POP JUMP JUMPDEST PUSH32 0x4E756D626572206F6620706F6F6C73206D757374206265206772656174657220 PUSH0 DUP3 ADD MSTORE PUSH32 0x7468616E207A65726F0000000000000000000000000000000000000000000000 PUSH1 0x20 DUP3 ADD MSTORE POP JUMP JUMPDEST PUSH0 PUSH2 0x1312 PUSH1 0x29 DUP4 PUSH2 0xCDA JUMP JUMPDEST SWAP2 POP PUSH2 0x131D DUP3 PUSH2 0x12B8 JUMP JUMPDEST PUSH1 0x40 DUP3 ADD SWAP1 POP SWAP2 SWAP1 POP JUMP JUMPDEST PUSH0 PUSH1 0x20 DUP3 ADD SWAP1 POP DUP2 DUP2 SUB PUSH0 DUP4 ADD MSTORE PUSH2 0x133F DUP2 PUSH2 0x1306 JUMP JUMPDEST SWAP1 POP SWAP2 SWAP1 POP JUMP INVALID PUSH1 0x80 PUSH1 0x40 MSTORE CALLVALUE DUP1 ISZERO PUSH2 0xF JUMPI PUSH0 DUP1 REVERT JUMPDEST POP PUSH1 0x40 MLOAD PUSH2 0x553 CODESIZE SUB DUP1 PUSH2 0x553 DUP4 CODECOPY DUP2 DUP2 ADD PUSH1 0x40 MSTORE DUP2 ADD SWAP1 PUSH2 0x31 SWAP2 SWAP1 PUSH2 0xD4 JUMP JUMPDEST DUP1 PUSH0 DUP1 PUSH2 0x100 EXP DUP2 SLOAD DUP2 PUSH20 0xFFFFFFFFFFFFFFFFFFFFFFFFFFFFFFFFFFFFFFFF MUL NOT AND SWAP1 DUP4 PUSH20 0xFFFFFFFFFFFFFFFFFFFFFFFFFFFFFFFFFFFFFFFF AND MUL OR SWAP1 SSTORE POP POP PUSH2 0xFF JUMP JUMPDEST PUSH0 DUP1 REVERT JUMPDEST PUSH0 PUSH20 0xFFFFFFFFFFFFFFFFFFFFFFFFFFFFFFFFFFFFFFFF DUP3 AND SWAP1 POP SWAP2 SWAP1 POP JUMP JUMPDEST PUSH0 PUSH2 0xA3 DUP3 PUSH2 0x7A JUMP JUMPDEST SWAP1 POP SWAP2 SWAP1 POP JUMP JUMPDEST PUSH2 0xB3 DUP2 PUSH2 0x99 JUMP JUMPDEST DUP2 EQ PUSH2 0xBD JUMPI PUSH0 DUP1 REVERT JUMPDEST POP JUMP JUMPDEST PUSH0 DUP2 MLOAD SWAP1 POP PUSH2 0xCE DUP2 PUSH2 0xAA JUMP JUMPDEST SWAP3 SWAP2 POP POP JUMP JUMPDEST PUSH0 PUSH1 0x20 DUP3 DUP5 SUB SLT ISZERO PUSH2 0xE9 JUMPI PUSH2 0xE8 PUSH2 0x76 JUMP JUMPDEST JUMPDEST PUSH0 PUSH2 0xF6 DUP5 DUP3 DUP6 ADD PUSH2 0xC0 JUMP JUMPDEST SWAP2 POP POP SWAP3 SWAP2 POP POP JUMP JUMPDEST PUSH2 0x447 DUP1 PUSH2 0x10C PUSH0 CODECOPY PUSH0 RETURN INVALID PUSH1 0x80 PUSH1 0x40 MSTORE PUSH1 0x4 CALLDATASIZE LT PUSH2 0x2C JUMPI PUSH0 CALLDATALOAD PUSH1 0xE0 SHR DUP1 PUSH4 0x8DA5CB5B EQ PUSH2 0x37 JUMPI DUP1 PUSH4 0xF3FEF3A3 EQ PUSH2 0x61 JUMPI PUSH2 0x33 JUMP JUMPDEST CALLDATASIZE PUSH2 0x33 JUMPI STOP JUMPDEST PUSH0 DUP1 REVERT JUMPDEST CALLVALUE DUP1 ISZERO PUSH2 0x42 JUMPI PUSH0 DUP1 REVERT JUMPDEST POP PUSH2 0x4B PUSH2 0x89 JUMP JUMPDEST PUSH1 0x40 MLOAD PUSH2 0x58 SWAP2 SWAP1 PUSH2 0x251 JUMP JUMPDEST PUSH1 0x40 MLOAD DUP1 SWAP2 SUB SWAP1 RETURN JUMPDEST CALLVALUE DUP1 ISZERO PUSH2 0x6C JUMPI PUSH0 DUP1 REVERT JUMPDEST POP PUSH2 0x87 PUSH1 0x4 DUP1 CALLDATASIZE SUB DUP2 ADD SWAP1 PUSH2 0x82 SWAP2 SWAP1 PUSH2 0x2CB JUMP JUMPDEST PUSH2 0xAC JUMP JUMPDEST STOP JUMPDEST PUSH0 DUP1 SLOAD SWAP1 PUSH2 0x100 EXP SWAP1 DIV PUSH20 0xFFFFFFFFFFFFFFFFFFFFFFFFFFFFFFFFFFFFFFFF AND DUP2 JUMP JUMPDEST PUSH0 DUP1 SLOAD SWAP1 PUSH2 0x100 EXP SWAP1 DIV PUSH20 0xFFFFFFFFFFFFFFFFFFFFFFFFFFFFFFFFFFFFFFFF AND PUSH20 0xFFFFFFFFFFFFFFFFFFFFFFFFFFFFFFFFFFFFFFFF AND CALLER PUSH20 0xFFFFFFFFFFFFFFFFFFFFFFFFFFFFFFFFFFFFFFFF AND EQ PUSH2 0x139 JUMPI PUSH1 0x40 MLOAD PUSH32 0x8C379A000000000000000000000000000000000000000000000000000000000 DUP2 MSTORE PUSH1 0x4 ADD PUSH2 0x130 SWAP1 PUSH2 0x363 JUMP JUMPDEST PUSH1 0x40 MLOAD DUP1 SWAP2 SUB SWAP1 REVERT JUMPDEST SELFBALANCE DUP2 GT ISZERO PUSH2 0x17C JUMPI PUSH1 0x40 MLOAD PUSH32 0x8C379A000000000000000000000000000000000000000000000000000000000 DUP2 MSTORE PUSH1 0x4 ADD PUSH2 0x173 SWAP1 PUSH2 0x3CB JUMP JUMPDEST PUSH1 0x40 MLOAD DUP1 SWAP2 SUB SWAP1 REVERT JUMPDEST DUP2 PUSH20 0xFFFFFFFFFFFFFFFFFFFFFFFFFFFFFFFFFFFFFFFF AND PUSH2 0x8FC DUP3 SWAP1 DUP2 ISZERO MUL SWAP1 PUSH1 0x40 MLOAD PUSH0 PUSH1 0x40 MLOAD DUP1 DUP4 SUB DUP2 DUP6 DUP9 DUP9 CALL SWAP4 POP POP POP POP ISZERO DUP1 ISZERO PUSH2 0x1BF JUMPI RETURNDATASIZE PUSH0 DUP1 RETURNDATACOPY RETURNDATASIZE PUSH0 REVERT JUMPDEST POP DUP2 PUSH20 0xFFFFFFFFFFFFFFFFFFFFFFFFFFFFFFFFFFFFFFFF AND PUSH32 0x884EDAD9CE6FA2440D8A54CC123490EB96D2768479D49FF9C7366125A9424364 DUP3 PUSH1 0x40 MLOAD PUSH2 0x206 SWAP2 SWAP1 PUSH2 0x3F8 JUMP JUMPDEST PUSH1 0x40 MLOAD DUP1 SWAP2 SUB SWAP1 LOG2 POP POP JUMP JUMPDEST PUSH0 PUSH20 0xFFFFFFFFFFFFFFFFFFFFFFFFFFFFFFFFFFFFFFFF DUP3 AND SWAP1 POP SWAP2 SWAP1 POP JUMP JUMPDEST PUSH0 PUSH2 0x23B DUP3 PUSH2 0x212 JUMP JUMPDEST SWAP1 POP SWAP2 SWAP1 POP JUMP JUMPDEST PUSH2 0x24B DUP2 PUSH2 0x231 JUMP JUMPDEST DUP3 MSTORE POP POP JUMP JUMPDEST PUSH0 PUSH1 0x20 DUP3 ADD SWAP1 POP PUSH2 0x264 PUSH0 DUP4 ADD DUP5 PUSH2 0x242 JUMP JUMPDEST SWAP3 SWAP2 POP POP JUMP JUMPDEST PUSH0 DUP1 REVERT JUMPDEST PUSH2 0x277 DUP2 PUSH2 0x231 JUMP JUMPDEST DUP2 EQ PUSH2 0x281 JUMPI PUSH0 DUP1 REVERT JUMPDEST POP JUMP JUMPDEST PUSH0 DUP2 CALLDATALOAD SWAP1 POP PUSH2 0x292 DUP2 PUSH2 0x26E JUMP JUMPDEST SWAP3 SWAP2 POP POP JUMP JUMPDEST PUSH0 DUP2 SWAP1 POP SWAP2 SWAP1 POP JUMP JUMPDEST PUSH2 0x2AA DUP2 PUSH2 0x298 JUMP JUMPDEST DUP2 EQ PUSH2 0x2B4 JUMPI PUSH0 DUP1 REVERT JUMPDEST POP JUMP JUMPDEST PUSH0 DUP2 CALLDATALOAD SWAP1 POP PUSH2 0x2C5 DUP2 PUSH2 0x2A1 JUMP JUMPDEST SWAP3 SWAP2 POP POP JUMP JUMPDEST PUSH0 DUP1 PUSH1 0x40 DUP4 DUP6 SUB SLT ISZERO PUSH2 0x2E1 JUMPI PUSH2 0x2E0 PUSH2 0x26A JUMP JUMPDEST JUMPDEST PUSH0 PUSH2 0x2EE DUP6 DUP3 DUP7 ADD PUSH2 0x284 JUMP JUMPDEST SWAP3 POP POP PUSH1 0x20 PUSH2 0x2FF DUP6 DUP3 DUP7 ADD PUSH2 0x2B7 JUMP JUMPDEST SWAP2 POP POP SWAP3 POP SWAP3 SWAP1 POP JUMP JUMPDEST PUSH0 DUP3 DUP3 MSTORE PUSH1 0x20 DUP3 ADD SWAP1 POP SWAP3 SWAP2 POP POP JUMP JUMPDEST PUSH32 0x4F6E6C79206F776E65722063616E207769746864726177000000000000000000 PUSH0 DUP3 ADD MSTORE POP JUMP JUMPDEST PUSH0 PUSH2 0x34D PUSH1 0x17 DUP4 PUSH2 0x309 JUMP JUMPDEST SWAP2 POP PUSH2 0x358 DUP3 PUSH2 0x319 JUMP JUMPDEST PUSH1 0x20 DUP3 ADD SWAP1 POP SWAP2 SWAP1 POP JUMP JUMPDEST PUSH0 PUSH1 0x20 DUP3 ADD SWAP1 POP DUP2 DUP2 SUB PUSH0 DUP4 ADD MSTORE PUSH2 0x37A DUP2 PUSH2 0x341 JUMP JUMPDEST SWAP1 POP SWAP2 SWAP1 POP JUMP JUMPDEST PUSH32 0x496E73756666696369656E742062616C616E636520696E20706F6F6C00000000 PUSH0 DUP3 ADD MSTORE POP JUMP JUMPDEST PUSH0 PUSH2 0x3B5 PUSH1 0x1C DUP4 PUSH2 0x309 JUMP JUMPDEST SWAP2 POP PUSH2 0x3C0 DUP3 PUSH2 0x381 JUMP JUMPDEST PUSH1 0x20 DUP3 ADD SWAP1 POP SWAP2 SWAP1 POP JUMP JUMPDEST PUSH0 PUSH1 0x20 DUP3 ADD SWAP1 POP DUP2 DUP2 SUB PUSH0 DUP4 ADD MSTORE PUSH2 0x3E2 DUP2 PUSH2 0x3A9 JUMP JUMPDEST SWAP1 POP SWAP2 SWAP1 POP JUMP JUMPDEST PUSH2 0x3F2 DUP2 PUSH2 0x298 JUMP JUMPDEST DUP3 MSTORE POP POP JUMP JUMPDEST PUSH0 PUSH1 0x20 DUP3 ADD SWAP1 POP PUSH2 0x40B PUSH0 DUP4 ADD DUP5 PUSH2 0x3E9 JUMP JUMPDEST SWAP3 SWAP2 POP POP JUMP INVALID LOG2 PUSH5 0x6970667358 0x22 SLT KECCAK256 SLOAD 0xEF EXTCODESIZE PREVRANDAO NOT PUSH27 0xFBC74C4552BE2F3164C2A30A70917AD8F2F234DD36CEB8C86CDA64 PUSH20 0x6F6C634300081A0033A264697066735822122064 ORIGIN GASLIMIT 0xB2 MULMOD TLOAD 0xDD SWAP5 0x1F PUSH8 0xEEB93DD503721B94 0xE4 LT 0xAC DUP15 0xB0 PUSH11 0x679F44057EC8BFC864736F PUSH13 0x634300081A0033000000000000 "
				},
				"gasEstimates": {
					"creation": {
						"codeDepositCost": "1270200",
						"executionCost": "25585",
						"totalCost": "1295785"
					},
					"external": {
						"admin()": "2574",
						"createPools(uint256)": "infinite",
						"deposit()": "infinite",
						"getPools()": "infinite",
						"getTotalFundsInFirstTenPools()": "infinite",
						"pools(uint256)": "infinite",
						"withdraw(address)": "infinite"
					}
				},
				"methodIdentifiers": {
					"admin()": "f851a440",
					"createPools(uint256)": "e4876078",
					"deposit()": "d0e30db0",
					"getPools()": "673a2a1f",
					"getTotalFundsInFirstTenPools()": "7c8244d7",
					"pools(uint256)": "ac4afa38",
					"withdraw(address)": "51cff8d9"
				}
			},
			"storageLayout": {
				"storage": [
					{
						"astId": 6,
						"contract": "MultiPoolMixer.sol:MultiPoolMixer",
						"label": "pools",
						"offset": 0,
						"slot": "0",
						"type": "t_array(t_contract(Pool)461)dyn_storage"
					},
					{
						"astId": 8,
						"contract": "MultiPoolMixer.sol:MultiPoolMixer",
						"label": "admin",
						"offset": 0,
						"slot": "1",
						"type": "t_address"
					}
				],
				"types": {
					"t_address": {
						"encoding": "inplace",
						"label": "address",
						"numberOfBytes": "20"
					},
					"t_array(t_contract(Pool)461)dyn_storage": {
						"base": "t_contract(Pool)461",
						"encoding": "dynamic_array",
						"label": "contract Pool[]",
						"numberOfBytes": "32"
					},
					"t_contract(Pool)461": {
						"encoding": "inplace",
						"label": "contract Pool",
						"numberOfBytes": "20"
					}
				}
			},
			"userdoc": {
				"kind": "user",
				"methods": {},
				"version": 1
			}
		}
	}
}